{
  "transactions": [
    {
      "hash": "0x2db2c5a9bbc2917e1c13c3ff8c34f8905c2a7ff93f490a703eb513028e85c5d9",
      "transactionType": "CREATE",
      "contractName": "AssetRegistry",
      "contractAddress": "0xc0606efe733a23540708ce34d44c6e4f53f56f50",
      "function": null,
      "arguments": null,
      "transaction": {
        "from": "0x2c3a7d88cba76e1b231e969f8b11b73417f03a09",
        "gas": "0x15f8c6",
        "value": "0x0",
        "input": "0x608060405234801561000f575f80fd5b50338061003557604051631e4fbdf760e01b81525f600482015260240160405180910390fd5b61003e81610044565b50610093565b5f80546001600160a01b038381166001600160a01b0319831681178455604051919092169283917f8be0079c531659141344cd1fd0a4f28419497f9722a3daafe3b4186f6b6457e09190a35050565b611295806100a05f395ff3fe608060405234801561000f575f80fd5b50600436106100e5575f3560e01c8063715018a6116100885780639fda5b66116100635780639fda5b66146101f2578063b6a0a1f314610215578063d9b60e5414610228578063f2fde38b1461023b575f80fd5b8063715018a6146101a65780638da5cb5b146101ae5780639f11194f146101c8575f80fd5b80632acada4d116100c35780632acada4d146101565780632cc3ce801461016b5780633b1270881461018b57806369efa86314610193575f80fd5b806302515835146100e95780630838aebd1461012057806325c8a5ff14610135575b5f80fd5b61010b6100f7366004610d75565b60036020525f908152604090205460ff1681565b60405190151581526020015b60405180910390f35b61013361012e366004610da0565b61024e565b005b610148610143366004610d75565b6102f3565b604051908152602001610117565b61015e610312565b6040516101179190610dca565b61017e610179366004610d75565b610368565b6040516101179190610e50565b61015e610496565b6101486101a1366004610e96565b6105eb565b610133610711565b5f546040516001600160a01b039091168152602001610117565b6101db6101d6366004610e96565b610724565b604080519215158352602083019190915201610117565b610205610200366004610d75565b610886565b6040516101179493929190610f05565b610133610223366004610f4a565b61093f565b610133610236366004610fd6565b610b7a565b610133610249366004611019565b610cbd565b610256610cfa565b5f8281526003602052604090205460ff1661028c5760405162461bcd60e51b815260040161028390611046565b60405180910390fd5b5f82815260016020819052604091829020018054831515620100000262ff0000199091161790555182907f719af64513d5a1594144438ab36d36309d0876815b4e7b611fbcd21e463d48f4906102e790841515815260200190565b60405180910390a25050565b60028181548110610302575f80fd5b5f91825260209091200154905081565b6060600280548060200260200160405190810160405280929190818152602001828054801561035e57602002820191905f5260205f20905b81548152602001906001019080831161034a575b5050505050905090565b604080516080810182525f80825260208201819052918101919091526060808201525f8281526003602052604090205460ff166103b75760405162461bcd60e51b815260040161028390611046565b5f828152600160208181526040928390208351608081018552815481529281015461ffff8116928401929092526201000090910460ff1615159282019290925260028201805491929160608401919061040f90611074565b80601f016020809104026020016040519081016040528092919081815260200182805461043b90611074565b80156104865780601f1061045d57610100808354040283529160200191610486565b820191905f5260205f20905b81548152906001019060200180831161046957829003601f168201915b5050505050815250509050919050565b60605f805b6002548110156104fd5760015f600283815481106104bb576104bb6110ac565b905f5260205f20015481526020019081526020015f2060010160029054906101000a900460ff16156104f557816104f1816110d4565b9250505b60010161049b565b505f8167ffffffffffffffff811115610518576105186110ec565b604051908082528060200260200182016040528015610541578160200160208202803683370190505b5090505f805b6002548110156105e25760015f60028381548110610567576105676110ac565b905f5260205f20015481526020019081526020015f2060010160029054906101000a900460ff16156105da57600281815481106105a6576105a66110ac565b905f5260205f2001548383815181106105c1576105c16110ac565b6020908102919091010152816105d6816110d4565b9250505b600101610547565b50909392505050565b5f80805b838110156107075760035f86868481811061060c5761060c6110ac565b602090810292909201358352508101919091526040015f205460ff166106445760405162461bcd60e51b815260040161028390611046565b60015f868684818110610659576106596110ac565b9050602002013581526020019081526020015f2060010160029054906101000a900460ff166106be5760405162461bcd60e51b8152602060048201526011602482015270105cdcd95d081b9bdd08195b98589b1959607a1b6044820152606401610283565b60015f8686848181106106d3576106d36110ac565b602090810292909201358352508101919091526040015f20600101546106fd9061ffff1683611100565b91506001016105ef565b5090505b92915050565b610719610cfa565b6107225f610d26565b565b5f806007831461073857505f90508061087f565b505f805b838110156108765760035f868684818110610759576107596110ac565b602090810292909201358352508101919091526040015f205460ff1615806107b8575060015f868684818110610791576107916110ac565b9050602002013581526020019081526020015f2060010160029054906101000a900460ff16155b156107c9575f80925092505061087f565b5f6107d5826001611100565b90505b8481101561082c578585828181106107f2576107f26110ac565b9050602002013586868481811061080b5761080b6110ac565b9050602002013503610824575f8093509350505061087f565b6001016107d8565b5060015f868684818110610842576108426110ac565b602090810292909201358352508101919091526040015f206001015461086c9061ffff1683611100565b915060010161073c565b50606481111591505b9250929050565b600160208190525f918252604090912080549181015460028201805461ffff8316936201000090930460ff169291906108be90611074565b80601f01602080910402602001604051908101604052809291908181526020018280546108ea90611074565b80156109355780601f1061090c57610100808354040283529160200191610935565b820191905f5260205f20905b81548152906001019060200180831161091857829003601f168201915b5050505050905084565b610947610cfa565b5f8581526003602052604090205460ff161561099c5760405162461bcd60e51b8152602060048201526014602482015273417373657420616c72656164792065786973747360601b6044820152606401610283565b5f8361ffff161180156109b4575060648361ffff1611155b6109f55760405162461bcd60e51b81526020600482015260126024820152710436f7374206d75737420626520312d3130360741b6044820152606401610283565b83610a345760405162461bcd60e51b815260206004820152600f60248201526e125b9d985b1a590819995959081251608a1b6044820152606401610283565b60405180608001604052808581526020018461ffff16815260200160011515815260200183838080601f0160208091040260200160405190810160405280939291908181526020018383808284375f9201829052509390945250508781526001602081815260409283902085518155908501519181018054938601511515620100000262ffffff1990941661ffff9093169290921792909217905560608301519091506002820190610ae6908261115f565b50506002805460018181019092557f405787fa12a823e0f2b7631cc41b3ba8828b3321ca811111fa75cd3aa3bb5ace018790555f8781526003602052604090819020805460ff1916909217909155518691507fd2a0cc0c0474ed6c3349931dee3321400e8bb78763e064e0dc346c44824741d690610b6b90879087908790879061121f565b60405180910390a25050505050565b610b82610cfa565b5f8481526003602052604090205460ff16610baf5760405162461bcd60e51b815260040161028390611046565b5f8261ffff16118015610bc7575060648261ffff1611155b610c085760405162461bcd60e51b81526020600482015260126024820152710436f7374206d75737420626520312d3130360741b6044820152606401610283565b82610c475760405162461bcd60e51b815260206004820152600f60248201526e125b9d985b1a590819995959081251608a1b6044820152606401610283565b5f84815260016020818152604092839020868155918201805461ffff871662ffffff1990911681176201000087151590810291909117909255845188815292830152928101929092529085907f9afe5bac933bbcf43b02cd6ecffab466868ea75f91058b33e36cb1200a07515f90606001610b6b565b610cc5610cfa565b6001600160a01b038116610cee57604051631e4fbdf760e01b81525f6004820152602401610283565b610cf781610d26565b50565b5f546001600160a01b031633146107225760405163118cdaa760e01b8152336004820152602401610283565b5f80546001600160a01b038381166001600160a01b0319831681178455604051919092169283917f8be0079c531659141344cd1fd0a4f28419497f9722a3daafe3b4186f6b6457e09190a35050565b5f60208284031215610d85575f80fd5b5035919050565b80358015158114610d9b575f80fd5b919050565b5f8060408385031215610db1575f80fd5b82359150610dc160208401610d8c565b90509250929050565b602080825282518282018190525f9190848201906040850190845b81811015610e0157835183529284019291840191600101610de5565b50909695505050505050565b5f81518084525f5b81811015610e3157602081850181015186830182015201610e15565b505f602082860101526020601f19601f83011685010191505092915050565b602081528151602082015261ffff60208301511660408201526040820151151560608201525f6060830151608080840152610e8e60a0840182610e0d565b949350505050565b5f8060208385031215610ea7575f80fd5b823567ffffffffffffffff80821115610ebe575f80fd5b818501915085601f830112610ed1575f80fd5b813581811115610edf575f80fd5b8660208260051b8501011115610ef3575f80fd5b60209290920196919550909350505050565b84815261ffff841660208201528215156040820152608060608201525f610f2f6080830184610e0d565b9695505050505050565b803561ffff81168114610d9b575f80fd5b5f805f805f60808688031215610f5e575f80fd5b8535945060208601359350610f7560408701610f39565b9250606086013567ffffffffffffffff80821115610f91575f80fd5b818801915088601f830112610fa4575f80fd5b813581811115610fb2575f80fd5b896020828501011115610fc3575f80fd5b9699959850939650602001949392505050565b5f805f8060808587031215610fe9575f80fd5b843593506020850135925061100060408601610f39565b915061100e60608601610d8c565b905092959194509250565b5f60208284031215611029575f80fd5b81356001600160a01b038116811461103f575f80fd5b9392505050565b602080825260149082015273105cdcd95d08191bd95cc81b9bdd08195e1a5cdd60621b604082015260600190565b600181811c9082168061108857607f821691505b6020821081036110a657634e487b7160e01b5f52602260045260245ffd5b50919050565b634e487b7160e01b5f52603260045260245ffd5b634e487b7160e01b5f52601160045260245ffd5b5f600182016110e5576110e56110c0565b5060010190565b634e487b7160e01b5f52604160045260245ffd5b8082018082111561070b5761070b6110c0565b601f82111561115a57805f5260205f20601f840160051c810160208510156111385750805b601f840160051c820191505b81811015611157575f8155600101611144565b50505b505050565b815167ffffffffffffffff811115611179576111796110ec565b61118d816111878454611074565b84611113565b602080601f8311600181146111c0575f84156111a95750858301515b5f19600386901b1c1916600185901b178555611217565b5f85815260208120601f198616915b828110156111ee578886015182559484019460019091019084016111cf565b508582101561120b57878501515f19600388901b60f8161c191681555b505060018460011b0185555b505050505050565b84815261ffff8416602082015260606040820152816060820152818360808301375f818301608090810191909152601f909201601f19160101939250505056fea264697066735822122015746f6778de7fa91c5a00fb23819685af2f845f3bd4cb08f42984366a619cb964736f6c63430008180033",
        "nonce": "0x15",
        "chainId": "0x279f"
      },
      "additionalContracts": [],
      "isFixedGasLimit": false
    },
    {
      "hash": "0x5edba6f766527a90e215a94f730156084d23321873536aa496791805a9e923e7",
      "transactionType": "CREATE",
      "contractName": "NFTVault",
      "contractAddress": "0xefff5d7dd3c754c4cb4d8e68fb8773af853b5dac",
      "function": null,
      "arguments": null,
      "transaction": {
        "from": "0x2c3a7d88cba76e1b231e969f8b11b73417f03a09",
        "gas": "0x139799",
        "value": "0x0",
        "input": "0x608060405234801561000f575f80fd5b50338061003557604051631e4fbdf760e01b81525f600482015260240160405180910390fd5b61003e81610048565b5060018055610097565b5f80546001600160a01b038381166001600160a01b0319831681178455604051919092169283917f8be0079c531659141344cd1fd0a4f28419497f9722a3daafe3b4186f6b6457e09190a35050565b611004806100a45f395ff3fe608060405234801561000f575f80fd5b50600436106100e5575f3560e01c806379d4f25711610088578063980d81c111610063578063980d81c114610304578063d5b9221b14610398578063f2fa7392146103ba578063f2fde38b146103cd575f80fd5b806379d4f257146101df5780638c371e1c146102d75780638da5cb5b146102ea575f80fd5b8063499b84dd116100c3578063499b84dd1461014d5780634c294d49146101a25780634f05cbd8146101b5578063715018a6146101d7575f80fd5b8063078e94ca146100e9578063150b7a02146100fe5780632b4380c51461013a575b5f80fd5b6100fc6100f7366004610db2565b6103e0565b005b61011c61010c366004610dff565b630a85bd0160e11b949350505050565b6040516001600160e01b031990911681526020015b60405180910390f35b6100fc610148366004610ed4565b610499565b61019261015b366004610ed4565b6001600160a01b039283165f9081526002602090815260408083209490951682529283528381209181529152206004015460ff1690565b6040519015158152602001610131565b6100fc6101b0366004610f0d565b610676565b6101926101c3366004610f4e565b60036020525f908152604090205460ff1681565b6100fc6109b9565b61028d6101ed366004610ed4565b6040805160a0810182525f80825260208201819052918101829052606081018290526080810191909152506001600160a01b038084165f90815260026020818152604080842087861685528252808420868552825292839020835160a0810185528154861681526001820154928101929092529182015490931691830191909152600381015460608301526004015460ff16151560808201529392505050565b6040805182516001600160a01b039081168252602080850151908301528383015116918101919091526060808301519082015260809182015115159181019190915260a001610131565b6100fc6102e5366004610f6e565b6109cc565b5f546040516001600160a01b039091168152602001610131565b61035f610312366004610ed4565b600260208181525f9485526040808620825293855283852090529083529120805460018201549282015460038301546004909301546001600160a01b039283169493919092169160ff1685565b604080516001600160a01b039687168152602081019590955292909416918301919091526060820152901515608082015260a001610131565b6101926103a6366004610f4e565b60046020525f908152604090205460ff1681565b6100fc6103c8366004610db2565b610c00565b6100fc6103db366004610f4e565b610cb5565b6103e8610cf2565b6001600160a01b03821661043a5760405162461bcd60e51b8152602060048201526014602482015273125b9d985b1a59081391950818dbdb9d1c9858dd60621b60448201526064015b60405180910390fd5b6001600160a01b0382165f81815260036020908152604091829020805460ff191685151590811790915591519182527f39921e5677c943b0b7f6c29ab86b823c5daa404cb1a0a7e470670595761803c791015b60405180910390a25050565b335f9081526004602052604090205460ff16806104bf57505f546001600160a01b031633145b6104db5760405162461bcd60e51b815260040161043190610fa6565b6104e3610d1e565b6001600160a01b038084165f9081526002602090815260408083209386168352928152828220848352905220600481015460ff166105545760405162461bcd60e51b815260206004820152600e60248201526d139195081b9bdd081cdd185ad95960921b6044820152606401610431565b6003818101546001600160a01b038681165f818152600260208181526040808420958b168085529582528084208a855290915280832080546001600160a01b03199081168255600182018590559281018054909316909255958101919091556004908101805460ff191690559351632142170760e11b8152309481019490945260248401526044830185905290916342842e0e906064015f604051808303815f87803b158015610602575f80fd5b505af1158015610614573d5f803e3d5ffd5b5050505082846001600160a01b0316866001600160a01b03167f9e4737e975f458331a69febe3c95a72685013e3334bda3d588f6a8107a8311008460405161065e91815260200190565b60405180910390a4505061067160018055565b505050565b335f9081526004602052604090205460ff168061069c57505f546001600160a01b031633145b6106b85760405162461bcd60e51b815260040161043190610fa6565b6106c0610d1e565b6001600160a01b0384165f9081526003602052604090205460ff166107275760405162461bcd60e51b815260206004820152601a60248201527f436f6c6c656374696f6e206e6f742077686974656c69737465640000000000006044820152606401610431565b6001600160a01b03821661076d5760405162461bcd60e51b815260206004820152600d60248201526c24b73b30b634b21037bbb732b960991b6044820152606401610431565b6001600160a01b038083165f90815260026020908152604080832093881683529281528282208683529052206004015460ff16156107de5760405162461bcd60e51b815260206004820152600e60248201526d105b1c9958591e481cdd185ad95960921b6044820152606401610431565b604051632142170760e11b81526001600160a01b038381166004830152306024830152604482018590528516906342842e0e906064015f604051808303815f87803b15801561082b575f80fd5b505af115801561083d573d5f803e3d5ffd5b505050506040518060a00160405280856001600160a01b03168152602001848152602001836001600160a01b031681526020018281526020016001151581525060025f846001600160a01b03166001600160a01b031681526020019081526020015f205f866001600160a01b03166001600160a01b031681526020019081526020015f205f8581526020019081526020015f205f820151815f015f6101000a8154816001600160a01b0302191690836001600160a01b03160217905550602082015181600101556040820151816002015f6101000a8154816001600160a01b0302191690836001600160a01b03160217905550606082015181600301556080820151816004015f6101000a81548160ff02191690831515021790555090505082846001600160a01b0316836001600160a01b03167feec9ba5bfbc4283796482d3f7c7e891a5375d4e02efefac262ba00280fc2608d846040516109a291815260200190565b60405180910390a46109b360018055565b50505050565b6109c1610cf2565b6109ca5f610d48565b565b335f9081526004602052604090205460ff16806109f257505f546001600160a01b031633145b610a0e5760405162461bcd60e51b815260040161043190610fa6565b610a16610d1e565b6001600160a01b038316610a5d5760405162461bcd60e51b815260206004820152600e60248201526d24b73b30b634b2103bb4b73732b960911b6044820152606401610431565b6001600160a01b038085165f9081526002602090815260408083209386168352928152828220848352905220600481015460ff16610ace5760405162461bcd60e51b815260206004820152600e60248201526d139195081b9bdd081cdd185ad95960921b6044820152606401610431565b6003818101546001600160a01b038781165f9081526002602081815260408084208a86168086529083528185208a865290925280842080546001600160a01b03199081168255600182018690559381018054909416909355958201929092556004908101805460ff191690559351632142170760e11b8152309481019490945290871660248401526044830185905290916342842e0e906064015f604051808303815f87803b158015610b7f575f80fd5b505af1158015610b91573d5f803e3d5ffd5b50505050836001600160a01b0316856001600160a01b0316876001600160a01b03167fa17fea5a60a5d96718e8bb88b07be33e42271a2e5446c825688c8d6416b47a7f8685604051610bed929190918252602082015260400190565b60405180910390a450506109b360018055565b610c08610cf2565b6001600160a01b038216610c5e5760405162461bcd60e51b815260206004820152601860248201527f496e76616c696420636f6e7472616374206164647265737300000000000000006044820152606401610431565b6001600160a01b0382165f81815260046020908152604091829020805460ff191685151590811790915591519182527f3213ab8ec2ed122402f038736b41878b69ae9f61f49a7edd0666bce891d29fc9910161048d565b610cbd610cf2565b6001600160a01b038116610ce657604051631e4fbdf760e01b81525f6004820152602401610431565b610cef81610d48565b50565b5f546001600160a01b031633146109ca5760405163118cdaa760e01b8152336004820152602401610431565b600260015403610d4157604051633ee5aeb560e01b815260040160405180910390fd5b6002600155565b5f80546001600160a01b038381166001600160a01b0319831681178455604051919092169283917f8be0079c531659141344cd1fd0a4f28419497f9722a3daafe3b4186f6b6457e09190a35050565b80356001600160a01b0381168114610dad575f80fd5b919050565b5f8060408385031215610dc3575f80fd5b610dcc83610d97565b915060208301358015158114610de0575f80fd5b809150509250929050565b634e487b7160e01b5f52604160045260245ffd5b5f805f8060808587031215610e12575f80fd5b610e1b85610d97565b9350610e2960208601610d97565b925060408501359150606085013567ffffffffffffffff80821115610e4c575f80fd5b818701915087601f830112610e5f575f80fd5b813581811115610e7157610e71610deb565b604051601f8201601f19908116603f01168101908382118183101715610e9957610e99610deb565b816040528281528a6020848701011115610eb1575f80fd5b826020860160208301375f60208483010152809550505050505092959194509250565b5f805f60608486031215610ee6575f80fd5b610eef84610d97565b9250610efd60208501610d97565b9150604084013590509250925092565b5f805f8060808587031215610f20575f80fd5b610f2985610d97565b935060208501359250610f3e60408601610d97565b9396929550929360600135925050565b5f60208284031215610f5e575f80fd5b610f6782610d97565b9392505050565b5f805f8060808587031215610f81575f80fd5b610f8a85610d97565b9350610f9860208601610d97565b9250610f3e60408601610d97565b6020808252600e908201526d139bdd08185d5d1a1bdc9a5e995960921b60408201526060019056fea264697066735822122042e4296bdc6f39606f2a6f24d52c297fdf153bc27ad94e4eb60beaa46c78e5ed64736f6c63430008180033",
        "nonce": "0x16",
        "chainId": "0x279f"
      },
      "additionalContracts": [],
      "isFixedGasLimit": false
    },
    {
      "hash": "0xaa3068272f627be8c16e8ad418e637cbcb9d05305220ded43d4629ef593ef2ed",
      "transactionType": "CREATE",
      "contractName": "Matchmaker",
      "contractAddress": "0x1ac16ce4f9158a11152a90c61a66af9ebda10067",
      "function": null,
      "arguments": [
        "0xC0606efe733A23540708Ce34d44c6E4f53F56f50",
        "0xeffF5D7Dd3C754C4cb4D8e68FB8773AF853b5DaC",
        "0x2880aB155794e7179c9eE2e38200202908C17B43"
      ],
      "transaction": {
        "from": "0x2c3a7d88cba76e1b231e969f8b11b73417f03a09",
        "gas": "0x36df4a",
        "value": "0x0",
        "input": "0x608060405234801562000010575f80fd5b506040516200310e3803806200310e833981016040819052620000339162000176565b60015f556001600160a01b038316620000865760405162461bcd60e51b815260206004820152601060248201526f496e76616c696420726567697374727960801b60448201526064015b60405180910390fd5b6001600160a01b038216620000ce5760405162461bcd60e51b815260206004820152600d60248201526c125b9d985b1a59081d985d5b1d609a1b60448201526064016200007d565b6001600160a01b038116620001175760405162461bcd60e51b815260206004820152600e60248201526d496e76616c6964206f7261636c6560901b60448201526064016200007d565b600180546001600160a01b039485166001600160a01b031991821617909155600280549385169382169390931790925560038054919093169116179055620001bd565b80516001600160a01b038116811462000171575f80fd5b919050565b5f805f6060848603121562000189575f80fd5b62000194846200015a565b9250620001a4602085016200015a565b9150620001b4604085016200015a565b90509250925092565b612f4380620001cb5f395ff3fe608060405234801561000f575f80fd5b50600436106100f0575f3560e01c8063a189660511610093578063d02c8cdf11610063578063d02c8cdf14610221578063d6913b3214610234578063dbfb7d811461023c578063f5d6ac901461024f575f80fd5b8063a1896605146101b4578063ab9bcfc0146101dc578063bf725a84146101fb578063cece3cd41461020e575f80fd5b80634768d4ef116100ce5780634768d4ef1461014357806360c8b6c01461016c5780638d3bf1b314610181578063979d7e8614610189575f80fd5b806301fd1951146100f45780633d092b3d146101105780633ed6110d14610130575b5f80fd5b6100fd60045481565b6040519081526020015b60405180910390f35b61012361011e3660046126ce565b610262565b604051610107919061287b565b6100fd61013e366004612959565b61077e565b6101566101513660046126ce565b610989565b6040516101079a99989796959493929190612989565b61017f61017a366004612a5f565b610e41565b005b6100fd607881565b60015461019c906001600160a01b031681565b6040516001600160a01b039091168152602001610107565b6100fd6101c2366004612adb565b6001600160a01b03165f9081526006602052604090205490565b6100fd6101ea366004612adb565b60066020525f908152604090205481565b61017f6102093660046126ce565b6117ea565b61017f61021c366004612af4565b611929565b61017f61022f3660046126ce565b611bc4565b6100fd600581565b60025461019c906001600160a01b031681565b60035461019c906001600160a01b031681565b61026a61240e565b5f8281526005602090815260409182902082516101408101909352805483526001810154909183019060ff1660048111156102a7576102a76126e5565b60048111156102b8576102b86126e5565b81526040805160c0808201835260028501546001600160a01b039081168352600386015481166020848101919091526004870154848601526005870154606080860191909152600688015460ff8082161515608080890191909152610100928390048216151560a0808a0191909152858b019890985288518088018a5260078c01548716815260088c01549096168686015260098b0154868a0152600a8b015486850152600b8b01548083161515918701919091529190910416151583860152858701929092528451600c8801805492830282018501909652938401818152919095019492939284928491908401828280156103d157602002820191905f5260205f20905b8154815260200190600101908083116103bd575b505050505081526020016001820180548060200260200160405190810160405280929190818152602001828054801561045657602002820191905f5260205f20905f905b82829054906101000a900460ff166002811115610434576104346126e5565b8152602060019283018181049485019490930390920291018084116104155790505b50505050508152602001600282018054806020026020016040519081016040528092919081815260200182805480156104ce57602002820191905f5260205f20905f905b825461010083900a900460070b81526020600f830181900493840193600103600890930192909202910180841161049a5790505b505050505081526020016003820180548060200260200160405190810160405280929190818152602001828054801561054657602002820191905f5260205f20905f905b825461010083900a900460070b81526020600f83018190049384019360010360089093019290920291018084116105125790505b505050505081526020016004820154815250508152602001601182016040518060a00160405290815f82018054806020026020016040519081016040528092919081815260200182805480156105b957602002820191905f5260205f20905b8154815260200190600101908083116105a5575b505050505081526020016001820180548060200260200160405190810160405280929190818152602001828054801561063e57602002820191905f5260205f20905f905b82829054906101000a900460ff16600281111561061c5761061c6126e5565b8152602060019283018181049485019490930390920291018084116105fd5790505b50505050508152602001600282018054806020026020016040519081016040528092919081815260200182805480156106b657602002820191905f5260205f20905f905b825461010083900a900460070b81526020600f83018190049384019360010360089093019290920291018084116106825790505b505050505081526020016003820180548060200260200160405190810160405280929190818152602001828054801561072e57602002820191905f5260205f20905f905b825461010083900a900460070b81526020600f83018190049384019360010360089093019290920291018084116106fa5790505b5050509183525050600491909101546020918201529082526016830154908201526017820154604082015260188201546001600160a01b0316606082015260199091015460809091015292915050565b5f610787611d63565b335f90815260066020526040902054156107dd5760405162461bcd60e51b8152602060048201526012602482015271082d8e4cac2c8f240d2dc40c240dac2e8c6d60731b60448201526064015b60405180910390fd5b8161081b5760405162461bcd60e51b815260206004820152600e60248201526d125b9d985b1a590818dbdb5b5a5d60921b60448201526064016107d4565b60045f815461082990612b40565b9182905550600254604051634c294d4960e01b81526001600160a01b0387811660048301526024820187905233604483015260648201849052929350911690634c294d49906084015f604051808303815f87803b158015610888575f80fd5b505af115801561089a573d5f803e3d5ffd5b5050505f8281526005602081815260408084208681556001808201805460ff19169055825160c081018452338082526001600160a01b038d168287018190528286018d9052606083018c90526080830184905260a09092018890526002840180546001600160a01b03199081168317909155600385018054909116909217909155600483018b90559482018990556006808301805461ffff191690921790915542601983015584865290925280842086905551909350909184917f18a47d8df22f178f89e665cc0fccf4ee175e91434c7b749c4a7607ffa4d33a679190a35061098260015f55565b9392505050565b600560208181525f92835260409283902080546001820154855160c0808201885260028501546001600160a01b03908116835260038601548116838801526004860154838a015296850154606080840191909152600686015460ff8181161515608080870191909152610100928390048216151560a0808801919091528c518087018e5260078b01548d16815260088b0154909c168c8c015260098a01548c8e0152600a8a0154948c0194909452600b8901548083161515918c01919091529190910481161515898301528951600c88018054998a0282018501909b52918201888152959994169792969295949093928492849190840182828015610aab57602002820191905f5260205f20905b815481526020019060010190808311610a97575b5050505050815260200160018201805480602002602001604051908101604052809291908181526020018280548015610b3057602002820191905f5260205f20905f905b82829054906101000a900460ff166002811115610b0e57610b0e6126e5565b815260206001928301818104948501949093039092029101808411610aef5790505b5050505050815260200160028201805480602002602001604051908101604052809291908181526020018280548015610ba857602002820191905f5260205f20905f905b825461010083900a900460070b81526020600f8301819004938401936001036008909301929092029101808411610b745790505b5050505050815260200160038201805480602002602001604051908101604052809291908181526020018280548015610c2057602002820191905f5260205f20905f905b825461010083900a900460070b81526020600f8301819004938401936001036008909301929092029101808411610bec5790505b5050505050815260200160048201548152505090806011016040518060a00160405290815f8201805480602002602001604051908101604052809291908181526020018280548015610c8f57602002820191905f5260205f20905b815481526020019060010190808311610c7b575b5050505050815260200160018201805480602002602001604051908101604052809291908181526020018280548015610d1457602002820191905f5260205f20905f905b82829054906101000a900460ff166002811115610cf257610cf26126e5565b815260206001928301818104948501949093039092029101808411610cd35790505b5050505050815260200160028201805480602002602001604051908101604052809291908181526020018280548015610d8c57602002820191905f5260205f20905f905b825461010083900a900460070b81526020600f8301819004938401936001036008909301929092029101808411610d585790505b5050505050815260200160038201805480602002602001604051908101604052809291908181526020018280548015610e0457602002820191905f5260205f20905f905b825461010083900a900460070b81526020600f8301819004938401936001036008909301929092029101808411610dd05790505b5050509183525050600491909101546020909101526016820154601783015460188401546019909401549293919290916001600160a01b0316908a565b610e49611d63565b5f8681526005602052604090206002600182015460ff166004811115610e7157610e716126e5565b14610eb25760405162461bcd60e51b815260206004820152601160248201527013585d18da081b9bdd081cdd185c9d1959607a1b60448201526064016107d4565b8060170154421015610ef85760405162461bcd60e51b815260206004820152600f60248201526e13585d18da081b9bdd08195b991959608a1b60448201526064016107d4565b60028101546001600160a01b0316331480610f1f575060078101546001600160a01b031633145b610f5a5760405162461bcd60e51b815260206004820152600c60248201526b2737ba103090383630bcb2b960a11b60448201526064016107d4565b5f8686868686604051602001610f74959493929190612b58565b60408051808303601f19018152919052805160209091012060028301549091506001600160a01b03163314801561103b5760058301548214610fe95760405162461bcd60e51b815260206004820152600e60248201526d125b9d985b1a59081c995d99585b60921b60448201526064016107d4565b6006830154610100900460ff16156110365760405162461bcd60e51b815260206004820152601060248201526f105b1c9958591e481c995d99585b195960821b60448201526064016107d4565b6110cc565b600a830154821461107f5760405162461bcd60e51b815260206004820152600e60248201526d125b9d985b1a59081c995d99585b60921b60448201526064016107d4565b600b830154610100900460ff16156110cc5760405162461bcd60e51b815260206004820152601060248201526f105b1c9958591e481c995d99585b195960821b60448201526064016107d4565b600154604051639f11194f60e01b81525f9182916001600160a01b0390911690639f11194f90611102908d908d90600401612bbf565b6040805180830381865afa15801561111c573d5f803e3d5ffd5b505050506040513d601f19601f820116820180604052508101906111409190612c05565b91509150816111855760405162461bcd60e51b8152602060048201526011602482015270496e76616c696420706f7274666f6c696f60781b60448201526064016107d4565b6111c08888808060200260200160405190810160405280939291908181526020018383602002808284375f92019190915250611d8b92505050565b6111fc5760405162461bcd60e51b815260206004820152600d60248201526c496e76616c696420726f6c657360981b60448201526064016107d4565b60408051600780825261010082019092525f916020820160e080368337505060408051600780825261010082019092529293505f9291506020820160e0803683370190505090505f5b6007811015611445576001545f906001600160a01b0316632cc3ce808f8f8581811061127357611273612c43565b905060200201356040518263ffffffff1660e01b815260040161129891815260200190565b5f60405180830381865afa1580156112b2573d5f803e3d5ffd5b505050506040513d5f823e601f3d908101601f191682016040526112d99190810190612cb1565b60035481519192505f916001600160a01b039091169063a4ae35e09061130160786005612db4565b61130c90603c612db4565b6040516001600160e01b031960e085901b16815260048101929092526024820152604401608060405180830381865afa15801561134b573d5f803e3d5ffd5b505050506040513d601f19601f8201168201806040525081019061136f9190612dc7565b9050805f015185848151811061138757611387612c43565b60079290920b60209283029190910190910152600354825160405163052571af60e51b81526004810191909152600560248201525f916001600160a01b03169063a4ae35e090604401608060405180830381865afa1580156113eb573d5f803e3d5ffd5b505050506040513d601f19601f8201168201806040525081019061140f9190612dc7565b9050805f015185858151811061142757611427612c43565b60079290920b60209283029190910190910152505050600101611245565b5060408051600780825261010082019092525f916020820160e0803683370190505090505f5b60078110156114d5576114b084828151811061148957611489612c43565b60200260200101518483815181106114a3576114a3612c43565b6020026020010151611e4e565b8282815181106114c2576114c2612c43565b602090810291909101015260010161146b565b505f611513828d8d808060200260200160405190810160405280939291908181526020018383602002808284375f92019190915250611ed192505050565b90508615611644576040518060a001604052808f8f808060200260200160405190810160405280939291908181526020018383602002808284375f81840152601f19601f8201169050808301925050505050505081526020018d8d808060200260200160405190810160405280939291908181526020018383602002808284375f92019190915250505090825250602080820187905260408201869052606090910183905281518051600c8d01926115cf92849291019061251e565b5060208281015180516115e89260018501920190612567565b5060408201518051611604916002840191602090910190612611565b5060608201518051611620916003840191602090910190612611565b506080919091015160049091015560068901805461ff001916610100179055611769565b6040518060a001604052808f8f808060200260200160405190810160405280939291908181526020018383602002808284375f81840152601f19601f8201169050808301925050505050505081526020018d8d808060200260200160405190810160405280939291908181526020018383602002808284375f9201919091525050509082525060208082018790526040820186905260609091018390528151805160118d01926116f892849291019061251e565b5060208281015180516117119260018501920190612567565b506040820151805161172d916002840191602090910190612611565b5060608201518051611749916003840191602090910190612611565b5060809190910151600490910155600b8901805461ff0019166101001790555b336001600160a01b03168f7f672e5933f8d781e4eb1872b8bd9f8587e3bea4755364cee5ea569ea2dee5787660405160405180910390a36006890154610100900460ff1680156117c25750600b890154610100900460ff165b156117d0576117d08f611fbf565b5050505050505050506117e260015f55565b505050505050565b6117f2611d63565b5f81815260056020526040902060018082015460ff166004811115611819576118196126e5565b146118585760405162461bcd60e51b815260206004820152600f60248201526e4d61746368206e6f7420726561647960881b60448201526064016107d4565b60028101546001600160a01b031633148061187f575060078101546001600160a01b031633145b6118ba5760405162461bcd60e51b815260206004820152600c60248201526b2737ba103090383630bcb2b960a11b60448201526064016107d4565b60018101805460ff1916600217905542601682018190556118dd90607890612db4565b6017820155601681015460405190815282907fc21a199ff4f6a91b067a8a76292ba2e24c5202ddfbc8f5f5a68823666a51e6e99060200160405180910390a25061192660015f55565b50565b611931611d63565b335f90815260066020526040902054156119825760405162461bcd60e51b8152602060048201526012602482015271082d8e4cac2c8f240d2dc40c240dac2e8c6d60731b60448201526064016107d4565b806119c05760405162461bcd60e51b815260206004820152600e60248201526d125b9d985b1a590818dbdb5b5a5d60921b60448201526064016107d4565b5f84815260056020526040812090600182015460ff1660048111156119e7576119e76126e5565b14611a2a5760405162461bcd60e51b81526020600482015260136024820152724d61746368206e6f7420617661696c61626c6560681b60448201526064016107d4565b6002810154336001600160a01b0390911603611a7f5760405162461bcd60e51b815260206004820152601460248201527321b0b73737ba10383630bc903cb7bab939b2b63360611b60448201526064016107d4565b600254604051634c294d4960e01b81526001600160a01b038681166004830152602482018690523360448301526064820188905290911690634c294d49906084015f604051808303815f87803b158015611ad7575f80fd5b505af1158015611ae9573d5f803e3d5ffd5b50506040805160c081018252338082526001600160a01b03891660208084018290528385018a9052606084018990526001608085018190525f60a09095018590526007890180546001600160a01b0319908116861790915560088a018054909116909317909255600988018a9055600a8801899055600b8801805461ffff191683179055878201805460ff1916909217909155818352600690528282208a905591519193508892507f50d6e5d288766a7340b6110b6738cac822c48c128a47399df2fad303041f8d5091a350611bbe60015f55565b50505050565b611bcc611d63565b5f81815260056020526040902060028101546001600160a01b03163314611c355760405162461bcd60e51b815260206004820152601760248201527f4f6e6c792063726561746f722063616e2063616e63656c00000000000000000060448201526064016107d4565b5f600182015460ff166004811115611c4f57611c4f6126e5565b14611c945760405162461bcd60e51b815260206004820152601560248201527413585d18da08185b1c9958591e481cdd185c9d1959605a1b60448201526064016107d4565b60028054908201546003830154600480850154604051632b4380c560e01b81526001600160a01b0395861695632b4380c595611cd895908216949116929101612e3c565b5f604051808303815f87803b158015611cef575f80fd5b505af1158015611d01573d5f803e3d5ffd5b5050505060018101805460ff1916600417905560028101546001600160a01b03165f908152600660205260408082208290555183917f700135b4fe8746e2d2c85a9baa43c62887740aebfeb3a439f71a083fe5d5675991a25061192660015f55565b60025f5403611d8557604051633ee5aeb560e01b815260040160405180910390fd5b60025f55565b5f8151600714611d9c57505f919050565b5f805f5b8451811015611e35576002858281518110611dbd57611dbd612c43565b60200260200101516002811115611dd657611dd66126e5565b03611ded5782611de581612b40565b935050611e2d565b6001858281518110611e0157611e01612c43565b60200260200101516002811115611e1a57611e1a6126e5565b03611e2d5781611e2981612b40565b9250505b600101611da0565b50816001148015611e465750806001145b949350505050565b5f808360070b13611ea15760405162461bcd60e51b815260206004820152601c60248201527f5374617274207072696365206d75737420626520706f7369746976650000000060448201526064016107d4565b5f8360070b8360070b611eb49190612e60565b9050600784900b611ec761271083612e7f565b611e469190612eae565b5f8151835114611f155760405162461bcd60e51b815260206004820152600f60248201526e098cadccee8d040dad2e6dac2e8c6d608b1b60448201526064016107d4565b8251600714611f5b5760405162461bcd60e51b81526020600482015260126024820152714d757374206861766520372061737365747360701b60448201526064016107d4565b505f805b8351811015611fb857611fa4848281518110611f7d57611f7d612c43565b6020026020010151848381518110611f9757611f97612c43565b602002602001015161237b565b611fae9083612ee6565b9150600101611f5f565b5092915050565b5f81815260056020526040812060108101546015820154919291611fe39190612394565b6001838101805460ff1916600417905590915060ff8216900361210e576002808301546018840180546001600160a01b0319166001600160a01b0392831690811790915591546003850154600480870154604051632b4380c560e01b815293851695632b4380c595612059959194169201612e3c565b5f604051808303815f87803b158015612070575f80fd5b505af1158015612082573d5f803e3d5ffd5b5050600280546007860154918601546008870154600988015460405163230dc78760e21b81526001600160a01b03958616600482015292851660248401529084166044830152606482015291169250638c371e1c91506084015b5f604051808303815f87803b1580156120f3575f80fd5b505af1158015612105573d5f803e3d5ffd5b505050506122f9565b8060ff166002036122035760078201546018830180546001600160a01b0319166001600160a01b0392831690811790915560025460088501546009860154604051632b4380c560e01b815292851694632b4380c5946121769490939091169190600401612e3c565b5f604051808303815f87803b15801561218d575f80fd5b505af115801561219f573d5f803e3d5ffd5b505060028054908501546007860154600387015460048089015460405163230dc78760e21b81526001600160a01b039586169281019290925292841660248201529083166044820152606481019190915291169250638c371e1c91506084016120dc565b6018820180546001600160a01b031916905560028054908301546003840154600480860154604051632b4380c560e01b81526001600160a01b0395861695632b4380c59561225995908216949116929101612e3c565b5f604051808303815f87803b158015612270575f80fd5b505af1158015612282573d5f803e3d5ffd5b5050600254600785015460088601546009870154604051632b4380c560e01b81526001600160a01b039485169650632b4380c595506122cb949384169390921691600401612e3c565b5f604051808303815f87803b1580156122e2575f80fd5b505af11580156122f4573d5f803e3d5ffd5b505050505b60028201546001600160a01b039081165f90815260066020908152604080832083905560078601548416835280832092909255601885015460108601546015870154845191825292810192909252825193169286927f1fc410bdd49f77d51c03f857ea2d53d582a0e2b9a693caa99798dc76172bdf65928290030190a3505050565b5f80612386836123be565b90506064611ec78286612e7f565b5f818313156123a5575060016123b8565b828213156123b5575060026123b8565b505f5b92915050565b5f60028260028111156123d3576123d36126e5565b036123e0575060c8919050565b60018260028111156123f4576123f46126e5565b0361240157506096919050565b506064919050565b919050565b6040805161014081019091525f808252602082019081526040805160c0810182525f8082526020828101829052928201819052606082018190526080820181905260a082015291019081526040805160c0810182525f8082526020828101829052928201819052606082018190526080820181905260a082015291019081526020016124c16040518060a00160405280606081526020016060815260200160608152602001606081526020015f81525090565b81526020016124f76040518060a00160405280606081526020016060815260200160608152602001606081526020015f81525090565b81526020015f81526020015f81526020015f6001600160a01b031681526020015f81525090565b828054828255905f5260205f20908101928215612557579160200282015b8281111561255757825182559160200191906001019061253c565b506125639291506126ba565b5090565b828054828255905f5260205f2090601f01602090048101928215612557579160200282015f5b838211156125d857835183826101000a81548160ff021916908360028111156125b8576125b86126e5565b021790555092602001926001016020815f0104928301926001030261258d565b80156126045782816101000a81549060ff02191690556001016020815f010492830192600103026125d8565b50506125639291506126ba565b828054828255905f5260205f2090600301600490048101928215612557579160200282015f5b8382111561268657835183826101000a81548167ffffffffffffffff021916908360070b67ffffffffffffffff1602179055509260200192600801602081600701049283019260010302612637565b80156126045782816101000a81549067ffffffffffffffff0219169055600801602081600701049283019260010302612686565b5b80821115612563575f81556001016126bb565b5f602082840312156126de575f80fd5b5035919050565b634e487b7160e01b5f52602160045260245ffd5b60058110612709576127096126e5565b9052565b80516001600160a01b03908116835260208083015190911690830152604080820151908301526060808201519083015260808082015115159083015260a0908101511515910152565b60038110612709576127096126e5565b5f815180845260208085019450602084015f5b8381101561279c5761278c878351612756565b9582019590820190600101612779565b509495945050505050565b5f815180845260208085019450602084015f5b8381101561279c57815160070b875295820195908201906001016127ba565b805160a080845281519084018190525f916020919082019060c0860190845b81811015612814578351835292840192918401916001016127f8565b505060208501519250858103602087015261282f8184612766565b925050506040830151848203604086015261284a82826127a7565b9150506060830151848203606086015261286482826127a7565b915050608083015160808501528091505092915050565b60208152815160208201525f602083015161289960408401826126f9565b5060408301516128ac606084018261270d565b5060608301516101206128c18185018361270d565b60808501519150610280806101e08601526128e06102a08601846127d9565b925060a0860151601f19868503016102008701526128fe84826127d9565b93505060c086015161022086015260e08601516102408601526101008601516129336102608701826001600160a01b03169052565b5094015192909301919091525090565b80356001600160a01b0381168114612409575f80fd5b5f805f6060848603121561296b575f80fd5b61297484612943565b95602085013595506040909401359392505050565b5f6102808c835261299d602084018d6126f9565b6129aa604084018c61270d565b6129b861010084018b61270d565b806101c08401526129cb8184018a6127d9565b90508281036101e08401526129e081896127d9565b61020084019790975250506102208101939093526001600160a01b0391909116610240830152610260909101529695505050505050565b5f8083601f840112612a27575f80fd5b50813567ffffffffffffffff811115612a3e575f80fd5b6020830191508360208260051b8501011115612a58575f80fd5b9250929050565b5f805f805f8060808789031215612a74575f80fd5b86359550602087013567ffffffffffffffff80821115612a92575f80fd5b612a9e8a838b01612a17565b90975095506040890135915080821115612ab6575f80fd5b50612ac389828a01612a17565b979a9699509497949695606090950135949350505050565b5f60208284031215612aeb575f80fd5b61098282612943565b5f805f8060808587031215612b07575f80fd5b84359350612b1760208601612943565b93969395505050506040820135916060013590565b634e487b7160e01b5f52601160045260245ffd5b5f60018201612b5157612b51612b2c565b5060010190565b5f6001600160fb1b03861115612b6c575f80fd5b8560051b808884378201855f5b86811015612bad57813560038110612b8f575f80fd5b612b998482612756565b506020928301929190910190600101612b79565b50509283525050602001949350505050565b602080825281018290525f6001600160fb1b03831115612bdd575f80fd5b8260051b80856040850137919091016040019392505050565b80518015158114612409575f80fd5b5f8060408385031215612c16575f80fd5b612c1f83612bf6565b9150602083015190509250929050565b634e487b7160e01b5f52604160045260245ffd5b634e487b7160e01b5f52603260045260245ffd5b6040516080810167ffffffffffffffff81118282101715612c7a57612c7a612c2f565b60405290565b604051601f8201601f1916810167ffffffffffffffff81118282101715612ca957612ca9612c2f565b604052919050565b5f6020808385031215612cc2575f80fd5b825167ffffffffffffffff80821115612cd9575f80fd5b9084019060808287031215612cec575f80fd5b612cf4612c57565b825181528383015161ffff81168114612d0b575f80fd5b81850152612d1b60408401612bf6565b6040820152606083015182811115612d31575f80fd5b80840193505086601f840112612d45575f80fd5b825182811115612d5757612d57612c2f565b612d69601f8201601f19168601612c80565b92508083528785828601011115612d7e575f80fd5b5f5b81811015612d9b578481018601518482018701528501612d80565b505f908301909401939093526060830152509392505050565b808201808211156123b8576123b8612b2c565b5f60808284031215612dd7575f80fd5b612ddf612c57565b82518060070b8114612def575f80fd5b8152602083015167ffffffffffffffff81168114612e0b575f80fd5b60208201526040830151600381900b8114612e24575f80fd5b60408201526060928301519281019290925250919050565b6001600160a01b039384168152919092166020820152604081019190915260600190565b8181035f831280158383131683831282161715611fb857611fb8612b2c565b8082025f8212600160ff1b84141615612e9a57612e9a612b2c565b81810583148215176123b8576123b8612b2c565b5f82612ec857634e487b7160e01b5f52601260045260245ffd5b600160ff1b82145f1984141615612ee157612ee1612b2c565b500590565b8082018281125f831280158216821582161715612f0557612f05612b2c565b50509291505056fea2646970667358221220b391d0ccf1cbb0679a619258538af597d923666dfbd89544890978966e0f64b164736f6c63430008180033000000000000000000000000c0606efe733a23540708ce34d44c6e4f53f56f50000000000000000000000000efff5d7dd3c754c4cb4d8e68fb8773af853b5dac0000000000000000000000002880ab155794e7179c9ee2e38200202908c17b43",
        "nonce": "0x17",
        "chainId": "0x279f"
      },
      "additionalContracts": [],
      "isFixedGasLimit": false
    },
    {
      "hash": "0x58655aa1c8358bb700ff79686459e47c67e90dc6c7ac409ba96fa6352b546b86",
      "transactionType": "CREATE",
      "contractName": "ClapoNFT",
      "contractAddress": "0x19432d872c790caba08b5b99bad907d5360d90ea",
      "function": null,
      "arguments": null,
      "transaction": {
        "from": "0x2c3a7d88cba76e1b231e969f8b11b73417f03a09",
        "gas": "0x1554a6",
        "value": "0x0",
        "input": "0x608060405234801562000010575f80fd5b50336040518060400160405280600e81526020016d10db185c1bc811d85b594813919560921b81525060405180604001604052806005815260200164434c41504f60d81b815250815f9081620000679190620001a8565b506001620000768282620001a8565b5050506001600160a01b038116620000a757604051631e4fbdf760e01b81525f600482015260240160405180910390fd5b620000b281620000b9565b5062000274565b600680546001600160a01b038381166001600160a01b0319831681179093556040519116919082907f8be0079c531659141344cd1fd0a4f28419497f9722a3daafe3b4186f6b6457e0905f90a35050565b634e487b7160e01b5f52604160045260245ffd5b600181811c908216806200013357607f821691505b6020821081036200015257634e487b7160e01b5f52602260045260245ffd5b50919050565b601f821115620001a357805f5260205f20601f840160051c810160208510156200017f5750805b601f840160051c820191505b81811015620001a0575f81556001016200018b565b50505b505050565b81516001600160401b03811115620001c457620001c46200010a565b620001dc81620001d584546200011e565b8462000158565b602080601f83116001811462000212575f8415620001fa5750858301515b5f19600386901b1c1916600185901b1785556200026c565b5f85815260208120601f198616915b82811015620002425788860151825594840194600190910190840162000221565b50858210156200026057878501515f19600388901b60f8161c191681555b505060018460011b0185555b505050505050565b61110c80620002825f395ff3fe608060405234801561000f575f80fd5b506004361061011b575f3560e01c80636a627842116100a9578063a22cb4651161006e578063a22cb46514610241578063b88d4fde14610254578063c87b56dd14610267578063e985e9c51461027a578063f2fde38b1461028d575f80fd5b80636a627842146101fa57806370a082311461020d578063715018a6146102205780638da5cb5b1461022857806395d89b4114610239575f80fd5b8063095ea7b3116100ef578063095ea7b31461019957806323b872dd146101ae57806342842e0e146101c157806343508b05146101d45780636352211e146101e7575f80fd5b80629a9b7b1461011f57806301ffc9a71461013657806306fdde0314610159578063081812fc1461016e575b5f80fd5b6007545b6040519081526020015b60405180910390f35b610149610144366004610d7c565b6102a0565b604051901515815260200161012d565b6101616102f1565b60405161012d9190610de4565b61018161017c366004610df6565b610380565b6040516001600160a01b03909116815260200161012d565b6101ac6101a7366004610e28565b6103a7565b005b6101ac6101bc366004610e50565b6103b6565b6101ac6101cf366004610e50565b610444565b6101ac6101e2366004610e28565b610463565b6101816101f5366004610df6565b610496565b610123610208366004610e89565b6104a0565b61012361021b366004610e89565b6104c3565b6101ac610508565b6006546001600160a01b0316610181565b61016161051b565b6101ac61024f366004610ea2565b61052a565b6101ac610262366004610eef565b610535565b610161610275366004610df6565b61054d565b610149610288366004610fc4565b6105be565b6101ac61029b366004610e89565b6105eb565b5f6001600160e01b031982166380ac58cd60e01b14806102d057506001600160e01b03198216635b5e139f60e01b145b806102eb57506301ffc9a760e01b6001600160e01b03198316145b92915050565b60605f80546102ff90610ff5565b80601f016020809104026020016040519081016040528092919081815260200182805461032b90610ff5565b80156103765780601f1061034d57610100808354040283529160200191610376565b820191905f5260205f20905b81548152906001019060200180831161035957829003601f168201915b5050505050905090565b5f61038a82610628565b505f828152600460205260409020546001600160a01b03166102eb565b6103b2828233610660565b5050565b6001600160a01b0382166103e457604051633250574960e11b81525f60048201526024015b60405180910390fd5b5f6103f083833361066d565b9050836001600160a01b0316816001600160a01b03161461043e576040516364283d7b60e01b81526001600160a01b03808616600483015260248201849052821660448201526064016103db565b50505050565b61045e83838360405180602001604052805f815250610535565b505050565b5f5b8181101561045e57600780545f918261047d8361102d565b91905055905061048d848261075f565b50600101610465565b5f6102eb82610628565b600780545f91829190826104b38361102d565b9190505590506102eb838261075f565b5f6001600160a01b0382166104ed576040516322718ad960e21b81525f60048201526024016103db565b506001600160a01b03165f9081526003602052604090205490565b610510610778565b6105195f6107a5565b565b6060600180546102ff90610ff5565b6103b23383836107f6565b6105408484846103b6565b61043e3385858585610894565b606061055882610628565b505f61056e60408051602081019091525f815290565b90505f81511161058c5760405180602001604052805f8152506105b7565b80610596846109bc565b6040516020016105a7929190611051565b6040516020818303038152906040525b9392505050565b6001600160a01b039182165f90815260056020908152604080832093909416825291909152205460ff1690565b6105f3610778565b6001600160a01b03811661061c57604051631e4fbdf760e01b81525f60048201526024016103db565b610625816107a5565b50565b5f818152600260205260408120546001600160a01b0316806102eb57604051637e27328960e01b8152600481018490526024016103db565b61045e8383836001610a4c565b5f828152600260205260408120546001600160a01b039081169083161561069957610699818486610b50565b6001600160a01b038116156106d3576106b45f855f80610a4c565b6001600160a01b0381165f90815260036020526040902080545f190190555b6001600160a01b03851615610701576001600160a01b0385165f908152600360205260409020805460010190555b5f8481526002602052604080822080546001600160a01b0319166001600160a01b0389811691821790925591518793918516917fddf252ad1be2c89b69c2b068fc378daa952ba7f163c4a11628f55a4df523b3ef91a4949350505050565b6103b2828260405180602001604052805f815250610bb4565b6006546001600160a01b031633146105195760405163118cdaa760e01b81523360048201526024016103db565b600680546001600160a01b038381166001600160a01b0319831681179093556040519116919082907f8be0079c531659141344cd1fd0a4f28419497f9722a3daafe3b4186f6b6457e0905f90a35050565b6001600160a01b03821661082857604051630b61174360e31b81526001600160a01b03831660048201526024016103db565b6001600160a01b038381165f81815260056020908152604080832094871680845294825291829020805460ff191686151590811790915591519182527f17307eab39ab6107e8899845ad3d59bd9653f200f220920489ca2b5937696c31910160405180910390a3505050565b6001600160a01b0383163b156109b557604051630a85bd0160e11b81526001600160a01b0384169063150b7a02906108d690889088908790879060040161107f565b6020604051808303815f875af1925050508015610910575060408051601f3d908101601f1916820190925261090d918101906110bb565b60015b610977573d80801561093d576040519150601f19603f3d011682016040523d82523d5f602084013e610942565b606091505b5080515f0361096f57604051633250574960e11b81526001600160a01b03851660048201526024016103db565b805160208201fd5b6001600160e01b03198116630a85bd0160e11b146109b357604051633250574960e11b81526001600160a01b03851660048201526024016103db565b505b5050505050565b60605f6109c883610bcb565b60010190505f8167ffffffffffffffff8111156109e7576109e7610edb565b6040519080825280601f01601f191660200182016040528015610a11576020820181803683370190505b5090508181016020015b5f19016f181899199a1a9b1b9c1cb0b131b232b360811b600a86061a8153600a8504945084610a1b57509392505050565b8080610a6057506001600160a01b03821615155b15610b21575f610a6f84610628565b90506001600160a01b03831615801590610a9b5750826001600160a01b0316816001600160a01b031614155b8015610aae5750610aac81846105be565b155b15610ad75760405163a9fbf51f60e01b81526001600160a01b03841660048201526024016103db565b8115610b1f5783856001600160a01b0316826001600160a01b03167f8c5be1e5ebec7d5bd14f71427d1e84f3dd0314c0f7b2291e5b200ac8c7c3b92560405160405180910390a45b505b50505f90815260046020526040902080546001600160a01b0319166001600160a01b0392909216919091179055565b610b5b838383610ca2565b61045e576001600160a01b038316610b8957604051637e27328960e01b8152600481018290526024016103db565b60405163177e802f60e01b81526001600160a01b0383166004820152602481018290526044016103db565b610bbe8383610d06565b61045e335f858585610894565b5f8072184f03e93ff9f4daa797ed6e38ed64bf6a1f0160401b8310610c095772184f03e93ff9f4daa797ed6e38ed64bf6a1f0160401b830492506040015b6d04ee2d6d415b85acef81000000008310610c35576d04ee2d6d415b85acef8100000000830492506020015b662386f26fc100008310610c5357662386f26fc10000830492506010015b6305f5e1008310610c6b576305f5e100830492506008015b6127108310610c7f57612710830492506004015b60648310610c91576064830492506002015b600a83106102eb5760010192915050565b5f6001600160a01b03831615801590610cfe5750826001600160a01b0316846001600160a01b03161480610cdb5750610cdb84846105be565b80610cfe57505f828152600460205260409020546001600160a01b038481169116145b949350505050565b6001600160a01b038216610d2f57604051633250574960e11b81525f60048201526024016103db565b5f610d3b83835f61066d565b90506001600160a01b0381161561045e576040516339e3563760e11b81525f60048201526024016103db565b6001600160e01b031981168114610625575f80fd5b5f60208284031215610d8c575f80fd5b81356105b781610d67565b5f5b83811015610db1578181015183820152602001610d99565b50505f910152565b5f8151808452610dd0816020860160208601610d97565b601f01601f19169290920160200192915050565b602081525f6105b76020830184610db9565b5f60208284031215610e06575f80fd5b5035919050565b80356001600160a01b0381168114610e23575f80fd5b919050565b5f8060408385031215610e39575f80fd5b610e4283610e0d565b946020939093013593505050565b5f805f60608486031215610e62575f80fd5b610e6b84610e0d565b9250610e7960208501610e0d565b9150604084013590509250925092565b5f60208284031215610e99575f80fd5b6105b782610e0d565b5f8060408385031215610eb3575f80fd5b610ebc83610e0d565b915060208301358015158114610ed0575f80fd5b809150509250929050565b634e487b7160e01b5f52604160045260245ffd5b5f805f8060808587031215610f02575f80fd5b610f0b85610e0d565b9350610f1960208601610e0d565b925060408501359150606085013567ffffffffffffffff80821115610f3c575f80fd5b818701915087601f830112610f4f575f80fd5b813581811115610f6157610f61610edb565b604051601f8201601f19908116603f01168101908382118183101715610f8957610f89610edb565b816040528281528a6020848701011115610fa1575f80fd5b826020860160208301375f60208483010152809550505050505092959194509250565b5f8060408385031215610fd5575f80fd5b610fde83610e0d565b9150610fec60208401610e0d565b90509250929050565b600181811c9082168061100957607f821691505b60208210810361102757634e487b7160e01b5f52602260045260245ffd5b50919050565b5f6001820161104a57634e487b7160e01b5f52601160045260245ffd5b5060010190565b5f8351611062818460208801610d97565b835190830190611076818360208801610d97565b01949350505050565b6001600160a01b03858116825284166020820152604081018390526080606082018190525f906110b190830184610db9565b9695505050505050565b5f602082840312156110cb575f80fd5b81516105b781610d6756fea26469706673582212203eecd2c9a5bceb81d018f8b65cc945b0cab1e697128373f7c4a4d6611f57e53064736f6c63430008180033",
        "nonce": "0x18",
        "chainId": "0x279f"
      },
      "additionalContracts": [],
      "isFixedGasLimit": false
    },
    {
      "hash": "0x2c6f0d158daa3e1c43083389ec98e0e8749620a38a0ecfbdb1cc447d638ba782",
      "transactionType": "CALL",
      "contractName": "NFTVault",
      "contractAddress": "0xefff5d7dd3c754c4cb4d8e68fb8773af853b5dac",
      "function": "setWhitelistedCollection(address,bool)",
      "arguments": [
        "0x19432D872C790CaBA08B5b99bad907d5360D90eA",
        "true"
      ],
      "transaction": {
        "from": "0x2c3a7d88cba76e1b231e969f8b11b73417f03a09",
        "to": "0xefff5d7dd3c754c4cb4d8e68fb8773af853b5dac",
        "gas": "0x11137",
        "value": "0x0",
        "input": "0x078e94ca00000000000000000000000019432d872c790caba08b5b99bad907d5360d90ea0000000000000000000000000000000000000000000000000000000000000001",
        "nonce": "0x19",
        "chainId": "0x279f"
      },
      "additionalContracts": [],
      "isFixedGasLimit": false
    },
    {
      "hash": "0x88b76f69794c65769aee7e53a84a6bbaf0ee74c57fe07a54129799a81a27aaf3",
      "transactionType": "CALL",
      "contractName": "NFTVault",
      "contractAddress": "0xefff5d7dd3c754c4cb4d8e68fb8773af853b5dac",
      "function": "setAuthorizedContract(address,bool)",
      "arguments": [
        "0x1ac16cE4F9158a11152a90C61A66aF9eBdA10067",
        "true"
      ],
      "transaction": {
        "from": "0x2c3a7d88cba76e1b231e969f8b11b73417f03a09",
        "to": "0xefff5d7dd3c754c4cb4d8e68fb8773af853b5dac",
        "gas": "0x11173",
        "value": "0x0",
        "input": "0xf2fa73920000000000000000000000001ac16ce4f9158a11152a90c61a66af9ebda100670000000000000000000000000000000000000000000000000000000000000001",
        "nonce": "0x1a",
        "chainId": "0x279f"
      },
      "additionalContracts": [],
      "isFixedGasLimit": false
    },
    {
      "hash": "0xa1afe2f2a3ab4dc2d3f697e47ae13d9df3dcc3dcf6684ffb8d6bb73a61aaa8e6",
      "transactionType": "CALL",
      "contractName": "AssetRegistry",
      "contractAddress": "0xc0606efe733a23540708ce34d44c6e4f53f56f50",
      "function": "addAsset(bytes32,bytes32,uint16,string)",
      "arguments": [
        "0xe98e2830be1a7e4156d656a7505e65d08c67660dc618072422e9c78053c261e9",
        "0xe62df6c8b4a85fe1a67db44dc12de5db330f7ac66b72dc658afedf0f4a415b43",
        "30",
        "Bitcoin"
      ],
      "transaction": {
        "from": "0x2c3a7d88cba76e1b231e969f8b11b73417f03a09",
        "to": "0xc0606efe733a23540708ce34d44c6e4f53f56f50",
        "gas": "0x36a0e",
        "value": "0x0",
        "input": "0xb6a0a1f3e98e2830be1a7e4156d656a7505e65d08c67660dc618072422e9c78053c261e9e62df6c8b4a85fe1a67db44dc12de5db330f7ac66b72dc658afedf0f4a415b43000000000000000000000000000000000000000000000000000000000000001e00000000000000000000000000000000000000000000000000000000000000800000000000000000000000000000000000000000000000000000000000000007426974636f696e00000000000000000000000000000000000000000000000000",
        "nonce": "0x1b",
        "chainId": "0x279f"
      },
      "additionalContracts": [],
      "isFixedGasLimit": false
    },
    {
      "hash": "0xc6f4dd5af9a7a26e70d2102bdae22fb0293640460af8a1bcf44d942b2f28d98d",
      "transactionType": "CALL",
      "contractName": "AssetRegistry",
      "contractAddress": "0xc0606efe733a23540708ce34d44c6e4f53f56f50",
      "function": "addAsset(bytes32,bytes32,uint16,string)",
      "arguments": [
        "0xaaaebeba3810b1e6b70781f14b2d72c1cb89c0b2b320c43bb67ff79f562f5ff4",
        "0xff61491a931112ddf1bd8147cd1b641375f79f5825126d665480874634fd0ace",
        "25",
        "Ethereum"
      ],
      "transaction": {
        "from": "0x2c3a7d88cba76e1b231e969f8b11b73417f03a09",
        "to": "0xc0606efe733a23540708ce34d44c6e4f53f56f50",
        "gas": "0x30ddb",
        "value": "0x0",
        "input": "0xb6a0a1f3aaaebeba3810b1e6b70781f14b2d72c1cb89c0b2b320c43bb67ff79f562f5ff4ff61491a931112ddf1bd8147cd1b641375f79f5825126d665480874634fd0ace000000000000000000000000000000000000000000000000000000000000001900000000000000000000000000000000000000000000000000000000000000800000000000000000000000000000000000000000000000000000000000000008457468657265756d000000000000000000000000000000000000000000000000",
        "nonce": "0x1c",
        "chainId": "0x279f"
      },
      "additionalContracts": [],
      "isFixedGasLimit": false
    },
    {
      "hash": "0x214eecaa957129ecc00145940387eb7f41993d68873b50bb7ac6449de59f884e",
      "transactionType": "CALL",
      "contractName": "AssetRegistry",
      "contractAddress": "0xc0606efe733a23540708ce34d44c6e4f53f56f50",
      "function": "addAsset(bytes32,bytes32,uint16,string)",
      "arguments": [
        "0x0a3ec4fc70eaf64faf6eeda4e9b2bd4742a785464053aa23afad8bd24650e86f",
        "0xef0d8b6fda2ceba41da15d4095d1da392a0d2f8ed0c6c7bc0f4cfac8c280b56d",
        "18",
        "Solana"
      ],
      "transaction": {
        "from": "0x2c3a7d88cba76e1b231e969f8b11b73417f03a09",
        "to": "0xc0606efe733a23540708ce34d44c6e4f53f56f50",
        "gas": "0x30dbb",
        "value": "0x0",
        "input": "0xb6a0a1f30a3ec4fc70eaf64faf6eeda4e9b2bd4742a785464053aa23afad8bd24650e86fef0d8b6fda2ceba41da15d4095d1da392a0d2f8ed0c6c7bc0f4cfac8c280b56d000000000000000000000000000000000000000000000000000000000000001200000000000000000000000000000000000000000000000000000000000000800000000000000000000000000000000000000000000000000000000000000006536f6c616e610000000000000000000000000000000000000000000000000000",
        "nonce": "0x1d",
        "chainId": "0x279f"
      },
      "additionalContracts": [],
      "isFixedGasLimit": false
    },
    {
      "hash": "0xa386fe5064064d0254c98ade800ff2948baf0862c32cb5eaf2b6c1e3e1423123",
      "transactionType": "CALL",
      "contractName": "AssetRegistry",
      "contractAddress": "0xc0606efe733a23540708ce34d44c6e4f53f56f50",
      "function": "addAsset(bytes32,bytes32,uint16,string)",
      "arguments": [
        "0x3ed03c38e59dc60c7b69c2a4bf68f9214acd953252b5a90e8f5f59583e9bc3ae",
        "0x2f95862b045670cd22bee3114c39763a4a08beeb663b145d283c31d7d1101c4f",
        "16",
        "BNB"
      ],
      "transaction": {
        "from": "0x2c3a7d88cba76e1b231e969f8b11b73417f03a09",
        "to": "0xc0606efe733a23540708ce34d44c6e4f53f56f50",
        "gas": "0x33b82",
        "value": "0x0",
        "input": "0xb6a0a1f33ed03c38e59dc60c7b69c2a4bf68f9214acd953252b5a90e8f5f59583e9bc3ae2f95862b045670cd22bee3114c39763a4a08beeb663b145d283c31d7d1101c4f000000000000000000000000000000000000000000000000000000000000001000000000000000000000000000000000000000000000000000000000000000800000000000000000000000000000000000000000000000000000000000000003424e420000000000000000000000000000000000000000000000000000000000",
        "nonce": "0x1e",
        "chainId": "0x279f"
      },
      "additionalContracts": [],
      "isFixedGasLimit": false
    },
    {
      "hash": "0xb0eb82bbfef68f7efb3d9092858e7f309abf621e56a5bfdf84b1762c29266829",
      "transactionType": "CALL",
      "contractName": "AssetRegistry",
      "contractAddress": "0xc0606efe733a23540708ce34d44c6e4f53f56f50",
      "function": "addAsset(bytes32,bytes32,uint16,string)",
      "arguments": [
        "0x49f18ed70c3220abb735efdc7fce309e384d008d4bc14c846dcce9e31050e29b",
        "0x93da3352f9f1d105fdfe4971cfa80e9dd777bfc5d0f683ebb6e1294b92137bb7",
        "12",
        "Avalanche"
      ],
      "transaction": {
        "from": "0x2c3a7d88cba76e1b231e969f8b11b73417f03a09",
        "to": "0xc0606efe733a23540708ce34d44c6e4f53f56f50",
        "gas": "0x30ddb",
        "value": "0x0",
        "input": "0xb6a0a1f349f18ed70c3220abb735efdc7fce309e384d008d4bc14c846dcce9e31050e29b93da3352f9f1d105fdfe4971cfa80e9dd777bfc5d0f683ebb6e1294b92137bb7000000000000000000000000000000000000000000000000000000000000000c000000000000000000000000000000000000000000000000000000000000008000000000000000000000000000000000000000000000000000000000000000094176616c616e6368650000000000000000000000000000000000000000000000",
        "nonce": "0x1f",
        "chainId": "0x279f"
      },
      "additionalContracts": [],
      "isFixedGasLimit": false
    },
    {
      "hash": "0x2f112787a926dd2cd47b8869060cb40da2281c94534aa61a674111dd2a1704c2",
      "transactionType": "CALL",
      "contractName": "AssetRegistry",
      "contractAddress": "0xc0606efe733a23540708ce34d44c6e4f53f56f50",
      "function": "addAsset(bytes32,bytes32,uint16,string)",
      "arguments": [
        "0xaeb724422620edb430dcaf22aeeff2e9388a578c02754cd08699652fb76035c7",
        "0xec5d399846a9209f3fe5881d70aae9268c94339ff9817e8d18ff19fa05eea1c8",
        "12",
        "Ripple"
      ],
      "transaction": {
        "from": "0x2c3a7d88cba76e1b231e969f8b11b73417f03a09",
        "to": "0xc0606efe733a23540708ce34d44c6e4f53f56f50",
        "gas": "0x30dbb",
        "value": "0x0",
        "input": "0xb6a0a1f3aeb724422620edb430dcaf22aeeff2e9388a578c02754cd08699652fb76035c7ec5d399846a9209f3fe5881d70aae9268c94339ff9817e8d18ff19fa05eea1c8000000000000000000000000000000000000000000000000000000000000000c00000000000000000000000000000000000000000000000000000000000000800000000000000000000000000000000000000000000000000000000000000006526970706c650000000000000000000000000000000000000000000000000000",
        "nonce": "0x20",
        "chainId": "0x279f"
      },
      "additionalContracts": [],
      "isFixedGasLimit": false
    },
    {
      "hash": "0x8154785113d6ad29548413a7cda5ef74b29f2573dd991a06dbba2e1380654f7e",
      "transactionType": "CALL",
      "contractName": "AssetRegistry",
      "contractAddress": "0xc0606efe733a23540708ce34d44c6e4f53f56f50",
      "function": "addAsset(bytes32,bytes32,uint16,string)",
      "arguments": [
        "0x4e1e6d8aa1ff8f43f933718e113229b0ec6b091b699f7a8671bcbd606da36eea",
        "0x2a01deaec9e51a579277b34b122399984d0bbf57e2458a7e42fecd2829867a0d",
        "10",
        "Cardano"
      ],
      "transaction": {
        "from": "0x2c3a7d88cba76e1b231e969f8b11b73417f03a09",
        "to": "0xc0606efe733a23540708ce34d44c6e4f53f56f50",
        "gas": "0x33bc9",
        "value": "0x0",
        "input": "0xb6a0a1f34e1e6d8aa1ff8f43f933718e113229b0ec6b091b699f7a8671bcbd606da36eea2a01deaec9e51a579277b34b122399984d0bbf57e2458a7e42fecd2829867a0d000000000000000000000000000000000000000000000000000000000000000a0000000000000000000000000000000000000000000000000000000000000080000000000000000000000000000000000000000000000000000000000000000743617264616e6f00000000000000000000000000000000000000000000000000",
        "nonce": "0x21",
        "chainId": "0x279f"
      },
      "additionalContracts": [],
      "isFixedGasLimit": false
    },
    {
      "hash": "0x15fdf91e0b672852cdb3284fa5070e375fcdc8d41e4068fd0c2b6a71e281b1a6",
      "transactionType": "CALL",
      "contractName": "AssetRegistry",
      "contractAddress": "0xc0606efe733a23540708ce34d44c6e4f53f56f50",
      "function": "addAsset(bytes32,bytes32,uint16,string)",
      "arguments": [
        "0xa6a7de01e8b7ba6a4a61c782a73188d808fc1f3cf5743fadb68a02ed884b594f",
        "0x5de33a9112c2b700b8d30b8a3402c103578ccfa2765696471cc672bd5cf6ac52",
        "10",
        "Polygon"
      ],
      "transaction": {
        "from": "0x2c3a7d88cba76e1b231e969f8b11b73417f03a09",
        "to": "0xc0606efe733a23540708ce34d44c6e4f53f56f50",
        "gas": "0x30dbb",
        "value": "0x0",
        "input": "0xb6a0a1f3a6a7de01e8b7ba6a4a61c782a73188d808fc1f3cf5743fadb68a02ed884b594f5de33a9112c2b700b8d30b8a3402c103578ccfa2765696471cc672bd5cf6ac52000000000000000000000000000000000000000000000000000000000000000a00000000000000000000000000000000000000000000000000000000000000800000000000000000000000000000000000000000000000000000000000000007506f6c79676f6e00000000000000000000000000000000000000000000000000",
        "nonce": "0x22",
        "chainId": "0x279f"
      },
      "additionalContracts": [],
      "isFixedGasLimit": false
    },
    {
      "hash": "0x09108d5a294f1fd936b8db1d3152853f58bd56791b6fc23ca331324150fc12cf",
      "transactionType": "CALL",
      "contractName": "AssetRegistry",
      "contractAddress": "0xc0606efe733a23540708ce34d44c6e4f53f56f50",
      "function": "addAsset(bytes32,bytes32,uint16,string)",
      "arguments": [
        "0xa486e4b27cce131bfeacd003018c22a55744bdb94821829f0ff1d4061d8d0533",
        "0xc415de8d2eba7db216527dff4b60e8f3a5311c740dadb233e13e12547e226750",
        "10",
        "NEAR Protocol"
      ],
      "transaction": {
        "from": "0x2c3a7d88cba76e1b231e969f8b11b73417f03a09",
        "to": "0xc0606efe733a23540708ce34d44c6e4f53f56f50",
        "gas": "0x33c32",
        "value": "0x0",
        "input": "0xb6a0a1f3a486e4b27cce131bfeacd003018c22a55744bdb94821829f0ff1d4061d8d0533c415de8d2eba7db216527dff4b60e8f3a5311c740dadb233e13e12547e226750000000000000000000000000000000000000000000000000000000000000000a0000000000000000000000000000000000000000000000000000000000000080000000000000000000000000000000000000000000000000000000000000000d4e4541522050726f746f636f6c00000000000000000000000000000000000000",
        "nonce": "0x23",
        "chainId": "0x279f"
      },
      "additionalContracts": [],
      "isFixedGasLimit": false
    },
    {
      "hash": "0x40a132ec26b7366dca875603775acc3645a37c879a07fd1940ebbea68646c22b",
      "transactionType": "CALL",
      "contractName": "AssetRegistry",
      "contractAddress": "0xc0606efe733a23540708ce34d44c6e4f53f56f50",
      "function": "addAsset(bytes32,bytes32,uint16,string)",
      "arguments": [
        "0x9a3f52b1b31ae58da40209f38379e78c3a0756495a0f585d0b3c84a9e9718f9d",
        "0xdcef50dd0a4cd2dcc17e45df1676dcb336a11a61c69df7a0299b0150c672d25c",
        "9",
        "Dogecoin"
      ],
      "transaction": {
        "from": "0x2c3a7d88cba76e1b231e969f8b11b73417f03a09",
        "to": "0xc0606efe733a23540708ce34d44c6e4f53f56f50",
        "gas": "0x30ddb",
        "value": "0x0",
        "input": "0xb6a0a1f39a3f52b1b31ae58da40209f38379e78c3a0756495a0f585d0b3c84a9e9718f9ddcef50dd0a4cd2dcc17e45df1676dcb336a11a61c69df7a0299b0150c672d25c000000000000000000000000000000000000000000000000000000000000000900000000000000000000000000000000000000000000000000000000000000800000000000000000000000000000000000000000000000000000000000000008446f6765636f696e000000000000000000000000000000000000000000000000",
        "nonce": "0x24",
        "chainId": "0x279f"
      },
      "additionalContracts": [],
      "isFixedGasLimit": false
    },
    {
      "hash": "0x33d2334c185e7c3ec8ab663b0465dd58071c9dc983b44a4897345de0b974d777",
      "transactionType": "CALL",
      "contractName": "AssetRegistry",
      "contractAddress": "0xc0606efe733a23540708ce34d44c6e4f53f56f50",
      "function": "addAsset(bytes32,bytes32,uint16,string)",
      "arguments": [
        "0x89e00465fb83774b035e591ad1577585bbb47b9ee6745a0ef8052c9623fc55ac",
        "0x67aed5a24fdad045475e7195c98a98aea119c763f272d4523f5bac93a4f33c2b",
        "8",
        "Tron"
      ],
      "transaction": {
        "from": "0x2c3a7d88cba76e1b231e969f8b11b73417f03a09",
        "to": "0xc0606efe733a23540708ce34d44c6e4f53f56f50",
        "gas": "0x30d99",
        "value": "0x0",
        "input": "0xb6a0a1f389e00465fb83774b035e591ad1577585bbb47b9ee6745a0ef8052c9623fc55ac67aed5a24fdad045475e7195c98a98aea119c763f272d4523f5bac93a4f33c2b00000000000000000000000000000000000000000000000000000000000000080000000000000000000000000000000000000000000000000000000000000080000000000000000000000000000000000000000000000000000000000000000454726f6e00000000000000000000000000000000000000000000000000000000",
        "nonce": "0x25",
        "chainId": "0x279f"
      },
      "additionalContracts": [],
      "isFixedGasLimit": false
    },
    {
      "hash": "0x55782162c805d2747c64eec4c15807e99f6f1f3a26e4b49a361d61f97c9f363d",
      "transactionType": "CALL",
      "contractName": "AssetRegistry",
      "contractAddress": "0xc0606efe733a23540708ce34d44c6e4f53f56f50",
      "function": "addAsset(bytes32,bytes32,uint16,string)",
      "arguments": [
        "0x542d10e155091389b3358f5f9188642f6ada7c12d94c1ffcb1d3a513e62ac319",
        "0x23d7315113f5b1d3ba7a83604c44b94d79f4fd69af77f804fc7f920a6dc65744",
        "8",
        "Sui"
      ],
      "transaction": {
        "from": "0x2c3a7d88cba76e1b231e969f8b11b73417f03a09",
        "to": "0xc0606efe733a23540708ce34d44c6e4f53f56f50",
        "gas": "0x33b82",
        "value": "0x0",
        "input": "0xb6a0a1f3542d10e155091389b3358f5f9188642f6ada7c12d94c1ffcb1d3a513e62ac31923d7315113f5b1d3ba7a83604c44b94d79f4fd69af77f804fc7f920a6dc657440000000000000000000000000000000000000000000000000000000000000008000000000000000000000000000000000000000000000000000000000000008000000000000000000000000000000000000000000000000000000000000000035375690000000000000000000000000000000000000000000000000000000000",
        "nonce": "0x26",
        "chainId": "0x279f"
      },
      "additionalContracts": [],
      "isFixedGasLimit": false
    },
    {
      "hash": "0xf4911df18edadb7838dc5eb507d8546e8b1b9806bab98ea6f1464571250517f7",
      "transactionType": "CALL",
      "contractName": "AssetRegistry",
      "contractAddress": "0xc0606efe733a23540708ce34d44c6e4f53f56f50",
      "function": "addAsset(bytes32,bytes32,uint16,string)",
      "arguments": [
        "0xc18f56144146939da796e8717010c2f5140aa0b98704a95b71f5b503102c8c27",
        "0xb7e3904c08ddd9c0c10c6d207d390fd19e87eb6aab96304f571ed94caebdefa0",
        "7",
        "Astar"
      ],
      "transaction": {
        "from": "0x2c3a7d88cba76e1b231e969f8b11b73417f03a09",
        "to": "0xc0606efe733a23540708ce34d44c6e4f53f56f50",
        "gas": "0x33ba5",
        "value": "0x0",
        "input": "0xb6a0a1f3c18f56144146939da796e8717010c2f5140aa0b98704a95b71f5b503102c8c27b7e3904c08ddd9c0c10c6d207d390fd19e87eb6aab96304f571ed94caebdefa00000000000000000000000000000000000000000000000000000000000000007000000000000000000000000000000000000000000000000000000000000008000000000000000000000000000000000000000000000000000000000000000054173746172000000000000000000000000000000000000000000000000000000",
        "nonce": "0x27",
        "chainId": "0x279f"
      },
      "additionalContracts": [],
      "isFixedGasLimit": false
    },
    {
      "hash": "0xdb8a24c5894d6edb2d5ccda3125596f7c637a2133fee2904647b656ad16e400a",
      "transactionType": "CALL",
      "contractName": "AssetRegistry",
      "contractAddress": "0xc0606efe733a23540708ce34d44c6e4f53f56f50",
      "function": "addAsset(bytes32,bytes32,uint16,string)",
      "arguments": [
        "0xefa585451ff82e7559b7e4aa3c7d26b394fd121301bbf6f1da4ef6d29210466e",
        "0xf0d57deca57b3da2fe63a493f4c25925fdfd8edf834b20f93e1f84dbd1504d4a",
        "6",
        "Shiba Inu"
      ],
      "transaction": {
        "from": "0x2c3a7d88cba76e1b231e969f8b11b73417f03a09",
        "to": "0xc0606efe733a23540708ce34d44c6e4f53f56f50",
        "gas": "0x33bec",
        "value": "0x0",
        "input": "0xb6a0a1f3efa585451ff82e7559b7e4aa3c7d26b394fd121301bbf6f1da4ef6d29210466ef0d57deca57b3da2fe63a493f4c25925fdfd8edf834b20f93e1f84dbd1504d4a000000000000000000000000000000000000000000000000000000000000000600000000000000000000000000000000000000000000000000000000000000800000000000000000000000000000000000000000000000000000000000000009536869626120496e750000000000000000000000000000000000000000000000",
        "nonce": "0x28",
        "chainId": "0x279f"
      },
      "additionalContracts": [],
      "isFixedGasLimit": false
    },
    {
      "hash": "0xa9b28ddd40607b5300354292ffae7c858ff4444996500b4c0af88d2eb9db70a1",
      "transactionType": "CALL",
      "contractName": "AssetRegistry",
      "contractAddress": "0xc0606efe733a23540708ce34d44c6e4f53f56f50",
      "function": "addAsset(bytes32,bytes32,uint16,string)",
      "arguments": [
        "0x608e17bb6814e7eb8d564b13416322f3d8a2dc5e36dde75519945008d7848749",
        "0xd69731a2e74ac1ce884fc3890f7ee324b6deb66147055249568869ed700882e4",
        "5",
        "Pepe"
      ],
      "transaction": {
        "from": "0x2c3a7d88cba76e1b231e969f8b11b73417f03a09",
        "to": "0xc0606efe733a23540708ce34d44c6e4f53f56f50",
        "gas": "0x30d99",
        "value": "0x0",
        "input": "0xb6a0a1f3608e17bb6814e7eb8d564b13416322f3d8a2dc5e36dde75519945008d7848749d69731a2e74ac1ce884fc3890f7ee324b6deb66147055249568869ed700882e40000000000000000000000000000000000000000000000000000000000000005000000000000000000000000000000000000000000000000000000000000008000000000000000000000000000000000000000000000000000000000000000045065706500000000000000000000000000000000000000000000000000000000",
        "nonce": "0x29",
        "chainId": "0x279f"
      },
      "additionalContracts": [],
      "isFixedGasLimit": false
    },
    {
      "hash": "0x54bf65cd438e2eea0d2d8e2b559da9d2a034b11504f607e5272abe26d0f0e622",
      "transactionType": "CALL",
      "contractName": "AssetRegistry",
      "contractAddress": "0xc0606efe733a23540708ce34d44c6e4f53f56f50",
      "function": "addAsset(bytes32,bytes32,uint16,string)",
      "arguments": [
        "0xa8631acbe37917ccaaf28385e6997f2db9e3876151964f689ee4762ac40f71b8",
        "0x7c28a4f3ca1e583f83c5c430ae9ad42f80bc3f6fcbde13906e7b569cd6f22aa1",
        "5",
        "Hype"
      ],
      "transaction": {
        "from": "0x2c3a7d88cba76e1b231e969f8b11b73417f03a09",
        "to": "0xc0606efe733a23540708ce34d44c6e4f53f56f50",
        "gas": "0x30d99",
        "value": "0x0",
        "input": "0xb6a0a1f3a8631acbe37917ccaaf28385e6997f2db9e3876151964f689ee4762ac40f71b87c28a4f3ca1e583f83c5c430ae9ad42f80bc3f6fcbde13906e7b569cd6f22aa10000000000000000000000000000000000000000000000000000000000000005000000000000000000000000000000000000000000000000000000000000008000000000000000000000000000000000000000000000000000000000000000044879706500000000000000000000000000000000000000000000000000000000",
        "nonce": "0x2a",
        "chainId": "0x279f"
      },
      "additionalContracts": [],
      "isFixedGasLimit": false
    },
    {
      "hash": "0xa78eaae18364c8b1a6b2b5377e1e62a3dbe5f28fccd6ac798d94920b76a8c157",
      "transactionType": "CALL",
      "contractName": "AssetRegistry",
      "contractAddress": "0xc0606efe733a23540708ce34d44c6e4f53f56f50",
      "function": "addAsset(bytes32,bytes32,uint16,string)",
      "arguments": [
        "0x9bd00430e53a5999c7c603cfc04cbdaf68bdbc180f300e4a2067937f57a0534f",
        "0xca3eed9b267293f6595901c734c7525ce8ef49adafe8284606ceb307afa2ca5b",
        "10",
        "Polkadot"
      ],
      "transaction": {
        "from": "0x2c3a7d88cba76e1b231e969f8b11b73417f03a09",
        "to": "0xc0606efe733a23540708ce34d44c6e4f53f56f50",
        "gas": "0x30ddb",
        "value": "0x0",
        "input": "0xb6a0a1f39bd00430e53a5999c7c603cfc04cbdaf68bdbc180f300e4a2067937f57a0534fca3eed9b267293f6595901c734c7525ce8ef49adafe8284606ceb307afa2ca5b000000000000000000000000000000000000000000000000000000000000000a00000000000000000000000000000000000000000000000000000000000000800000000000000000000000000000000000000000000000000000000000000008506f6c6b61646f74000000000000000000000000000000000000000000000000",
        "nonce": "0x2b",
        "chainId": "0x279f"
      },
      "additionalContracts": [],
      "isFixedGasLimit": false
    },
    {
      "hash": "0xb4c1427c39dec353c5455094ec85ef672313459f5ea5b855b01164e39fb7931e",
      "transactionType": "CALL",
      "contractName": "AssetRegistry",
      "contractAddress": "0xc0606efe733a23540708ce34d44c6e4f53f56f50",
      "function": "addAsset(bytes32,bytes32,uint16,string)",
      "arguments": [
        "0x3a540c592f9dbcbbe2f3f7f7a25a9554cef45a0c93b7209090ddcb77180f6ab1",
        "0x03ae4db29ed4ae33d323568895aa00337e658e348b37509f5372ae51f0af00d5",
        "9",
        "Aptos"
      ],
      "transaction": {
        "from": "0x2c3a7d88cba76e1b231e969f8b11b73417f03a09",
        "to": "0xc0606efe733a23540708ce34d44c6e4f53f56f50",
        "gas": "0x33b82",
        "value": "0x0",
        "input": "0xb6a0a1f33a540c592f9dbcbbe2f3f7f7a25a9554cef45a0c93b7209090ddcb77180f6ab103ae4db29ed4ae33d323568895aa00337e658e348b37509f5372ae51f0af00d50000000000000000000000000000000000000000000000000000000000000009000000000000000000000000000000000000000000000000000000000000008000000000000000000000000000000000000000000000000000000000000000054170746f73000000000000000000000000000000000000000000000000000000",
        "nonce": "0x2c",
        "chainId": "0x279f"
      },
      "additionalContracts": [],
      "isFixedGasLimit": false
    }
  ],
  "receipts": [
    {
      "status": "0x1",
      "cumulativeGasUsed": "0x17048a",
      "logs": [
        {
          "address": "0xc0606efe733a23540708ce34d44c6e4f53f56f50",
          "topics": [
            "0x8be0079c531659141344cd1fd0a4f28419497f9722a3daafe3b4186f6b6457e0",
            "0x0000000000000000000000000000000000000000000000000000000000000000",
            "0x0000000000000000000000002c3a7d88cba76e1b231e969f8b11b73417f03a09"
          ],
          "data": "0x",
          "blockHash": "0xe244fa52b4ca0e37baad991dbd086fccbe7b2fcdfb741ed1e0730c4f1bdd9ba1",
          "blockNumber": "0x2a0737d",
          "blockTimestamp": "0x68f47029",
          "transactionHash": "0x2db2c5a9bbc2917e1c13c3ff8c34f8905c2a7ff93f490a703eb513028e85c5d9",
          "transactionIndex": "0x2",
          "logIndex": "0x2",
          "removed": false
        }
      ],
      "logsBloom": "0x00000000000000000000000000000000000000000000000000800000000000000000000000000000000000000800000000000000000000000000000000000000000000000000000000000000000000000001000000000000000000000000000000000000020000000000000000000800000000000000000020000000000000400000000000000000000000000000000000000000000000000000000000000000000000000000000000000000000000000000000080000000000000000000000400000000000000000000000000000000000000000000000000000000000020100000000000000000800000000000000000000000000000000000000000000000",
      "type": "0x0",
      "transactionHash": "0x2db2c5a9bbc2917e1c13c3ff8c34f8905c2a7ff93f490a703eb513028e85c5d9",
      "transactionIndex": "0x2",
      "blockHash": "0xe244fa52b4ca0e37baad991dbd086fccbe7b2fcdfb741ed1e0730c4f1bdd9ba1",
      "blockNumber": "0x2a0737d",
      "gasUsed": "0x15f8c6",
      "effectiveGasPrice": "0x17bfac7c00",
      "from": "0x2c3a7d88cba76e1b231e969f8b11b73417f03a09",
      "to": null,
      "contractAddress": "0xc0606efe733a23540708ce34d44c6e4f53f56f50"
    },
    {
      "status": "0x1",
      "cumulativeGasUsed": "0x15af21",
      "logs": [
        {
          "address": "0xefff5d7dd3c754c4cb4d8e68fb8773af853b5dac",
          "topics": [
            "0x8be0079c531659141344cd1fd0a4f28419497f9722a3daafe3b4186f6b6457e0",
            "0x0000000000000000000000000000000000000000000000000000000000000000",
            "0x0000000000000000000000002c3a7d88cba76e1b231e969f8b11b73417f03a09"
          ],
          "data": "0x",
          "blockHash": "0xff99f8c7b2ede7eaee220d660c88b71b86479e813188710cfc482b9593fb4087",
          "blockNumber": "0x2a07383",
          "blockTimestamp": "0x68f4702b",
          "transactionHash": "0x5edba6f766527a90e215a94f730156084d23321873536aa496791805a9e923e7",
          "transactionIndex": "0x3",
          "logIndex": "0x3",
          "removed": false
        }
      ],
      "logsBloom": "0x00000000000000000000000000000000000000000000000000800000000000000000000000000000000000000000000000000000000000000000000000000000000000000000000000000000000000000001000000000000000000000000000000000000020000000000000000000800000000000000040000000000000000404000000000000000000000000000000000008000000000000000000000000000000000000000000000000000000000000000000000000000000000000000000400000000000000000000000000000000000000000000000000000000000020100000000000000000800000000000000000000000000000000000000000000000",
      "type": "0x0",
      "transactionHash": "0x5edba6f766527a90e215a94f730156084d23321873536aa496791805a9e923e7",
      "transactionIndex": "0x3",
      "blockHash": "0xff99f8c7b2ede7eaee220d660c88b71b86479e813188710cfc482b9593fb4087",
      "blockNumber": "0x2a07383",
      "gasUsed": "0x139799",
      "effectiveGasPrice": "0x17bfac7c00",
      "from": "0x2c3a7d88cba76e1b231e969f8b11b73417f03a09",
      "to": null,
      "contractAddress": "0xefff5d7dd3c754c4cb4d8e68fb8773af853b5dac"
    },
    {
      "status": "0x1",
      "cumulativeGasUsed": "0x36df4a",
      "logs": [],
      "logsBloom": "0x00000000000000000000000000000000000000000000000000000000000000000000000000000000000000000000000000000000000000000000000000000000000000000000000000000000000000000000000000000000000000000000000000000000000000000000000000000000000000000000000000000000000000000000000000000000000000000000000000000000000000000000000000000000000000000000000000000000000000000000000000000000000000000000000000000000000000000000000000000000000000000000000000000000000000000000000000000000000000000000000000000000000000000000000000000000",
      "type": "0x0",
      "transactionHash": "0xaa3068272f627be8c16e8ad418e637cbcb9d05305220ded43d4629ef593ef2ed",
      "transactionIndex": "0x1",
      "blockHash": "0xd9a3ff52e9adcd7f4c2371d5fc7c1ff72ccaf6f868f7c20e62766df62586d704",
      "blockNumber": "0x2a07388",
      "gasUsed": "0x36df4a",
      "effectiveGasPrice": "0x17bfac7c00",
      "from": "0x2c3a7d88cba76e1b231e969f8b11b73417f03a09",
      "to": null,
      "contractAddress": "0x1ac16ce4f9158a11152a90c61a66af9ebda10067"
    },
    {
      "status": "0x1",
      "cumulativeGasUsed": "0x223ab7",
      "logs": [
        {
          "address": "0x19432d872c790caba08b5b99bad907d5360d90ea",
          "topics": [
            "0x8be0079c531659141344cd1fd0a4f28419497f9722a3daafe3b4186f6b6457e0",
            "0x0000000000000000000000000000000000000000000000000000000000000000",
            "0x0000000000000000000000002c3a7d88cba76e1b231e969f8b11b73417f03a09"
          ],
          "data": "0x",
          "blockHash": "0xe2eeab24f3b8d1563a9c1572db0676564d0a486a4bac4da3e617c5e0b5c89e60",
          "blockNumber": "0x2a0738d",
          "blockTimestamp": "0x68f4702f",
          "transactionHash": "0x58655aa1c8358bb700ff79686459e47c67e90dc6c7ac409ba96fa6352b546b86",
          "transactionIndex": "0x5",
          "logIndex": "0x16",
          "removed": false
        }
      ],
      "logsBloom": "0x00000000000000000000000000000000000000000000000000800000000000000000000000000000000000000000000000000000000000000004000000000000000000000000000000000000000000000001000000000000000100000000000000000000020000000000000000000800000000000000000000000000000000401000000000000000000000000000000000000000000000000000000000000000000000000000000000000000000000000000000000000000000000000000000400000000000000000000000000000000000000000000000000000000000020100000000000000000800000000000000000000000000000000000000000000000",
      "type": "0x0",
      "transactionHash": "0x58655aa1c8358bb700ff79686459e47c67e90dc6c7ac409ba96fa6352b546b86",
      "transactionIndex": "0x5",
      "blockHash": "0xe2eeab24f3b8d1563a9c1572db0676564d0a486a4bac4da3e617c5e0b5c89e60",
      "blockNumber": "0x2a0738d",
      "gasUsed": "0x1554a6",
      "effectiveGasPrice": "0x17bfac7c00",
      "from": "0x2c3a7d88cba76e1b231e969f8b11b73417f03a09",
      "to": null,
      "contractAddress": "0x19432d872c790caba08b5b99bad907d5360d90ea"
    },
    {
      "status": "0x1",
      "cumulativeGasUsed": "0x5552e",
      "logs": [
        {
          "address": "0xefff5d7dd3c754c4cb4d8e68fb8773af853b5dac",
          "topics": [
            "0x39921e5677c943b0b7f6c29ab86b823c5daa404cb1a0a7e470670595761803c7",
            "0x00000000000000000000000019432d872c790caba08b5b99bad907d5360d90ea"
          ],
          "data": "0x0000000000000000000000000000000000000000000000000000000000000001",
          "blockHash": "0xb95c5c07d1554982c248b7ab92812a000bcfb941820ee6611d9b04814beeb0e0",
          "blockNumber": "0x2a07393",
          "blockTimestamp": "0x68f47032",
          "transactionHash": "0x2c6f0d158daa3e1c43083389ec98e0e8749620a38a0ecfbdb1cc447d638ba782",
          "transactionIndex": "0x3",
          "logIndex": "0x3",
          "removed": false
        }
      ],
      "logsBloom": "0x00000000000000000000000000000000000000000000000000000000000000000000001000000800000000000000000000000000000000000000000000000000000000000000000000000000000000000000000000000000000000000000000000000000000000000000000000000000000000000000040000000000000000014000000000000000000000000000040000008000000000000000000000000000000000000000000000000000000000000000000000000000000000000000000000000000010000000000000000000000000000000000000000000000000000000000000000000000000000000000000000080000000000000000000000000000",
      "type": "0x0",
      "transactionHash": "0x2c6f0d158daa3e1c43083389ec98e0e8749620a38a0ecfbdb1cc447d638ba782",
      "transactionIndex": "0x3",
      "blockHash": "0xb95c5c07d1554982c248b7ab92812a000bcfb941820ee6611d9b04814beeb0e0",
      "blockNumber": "0x2a07393",
      "gasUsed": "0x11137",
      "effectiveGasPrice": "0x17bfac7c00",
      "from": "0x2c3a7d88cba76e1b231e969f8b11b73417f03a09",
      "to": "0xefff5d7dd3c754c4cb4d8e68fb8773af853b5dac",
      "contractAddress": null
    },
    {
      "status": "0x1",
      "cumulativeGasUsed": "0x620bf",
      "logs": [
        {
          "address": "0xefff5d7dd3c754c4cb4d8e68fb8773af853b5dac",
          "topics": [
            "0x3213ab8ec2ed122402f038736b41878b69ae9f61f49a7edd0666bce891d29fc9",
            "0x0000000000000000000000001ac16ce4f9158a11152a90c61a66af9ebda10067"
          ],
          "data": "0x0000000000000000000000000000000000000000000000000000000000000001",
          "blockHash": "0xe258aa74091509f4572aa02a0e5ea7b4248fd01c8751011885645e4fe8ca0436",
          "blockNumber": "0x2a07398",
          "blockTimestamp": "0x68f47034",
          "transactionHash": "0x88b76f69794c65769aee7e53a84a6bbaf0ee74c57fe07a54129799a81a27aaf3",
          "transactionIndex": "0x5",
          "logIndex": "0x9",
          "removed": false
        }
      ],
      "logsBloom": "0x00000000000000000000000000000000000000000000000000000000000000000000000000000000000000000001000000000000000000000000000000000000000000000000000000000000000000000000000000000000000000000000000000000000000000000000000040000000000000000000040000000000000000004000000000000000000000000000000000008000000000000000008000000000000000000000000000000100000000000000000000000000000000000000000000000000000000000000000000000000000000000000000000000000000000000000000000000000000000000000000000000000000080000000000000000020",
      "type": "0x0",
      "transactionHash": "0x88b76f69794c65769aee7e53a84a6bbaf0ee74c57fe07a54129799a81a27aaf3",
      "transactionIndex": "0x5",
      "blockHash": "0xe258aa74091509f4572aa02a0e5ea7b4248fd01c8751011885645e4fe8ca0436",
      "blockNumber": "0x2a07398",
      "gasUsed": "0x11173",
      "effectiveGasPrice": "0x17bfac7c00",
      "from": "0x2c3a7d88cba76e1b231e969f8b11b73417f03a09",
      "to": "0xefff5d7dd3c754c4cb4d8e68fb8773af853b5dac",
      "contractAddress": null
    },
    {
      "status": "0x1",
      "cumulativeGasUsed": "0x36a0e",
      "logs": [
        {
          "address": "0xc0606efe733a23540708ce34d44c6e4f53f56f50",
          "topics": [
            "0xd2a0cc0c0474ed6c3349931dee3321400e8bb78763e064e0dc346c44824741d6",
            "0xe98e2830be1a7e4156d656a7505e65d08c67660dc618072422e9c78053c261e9"
          ],
          "data": "0xe62df6c8b4a85fe1a67db44dc12de5db330f7ac66b72dc658afedf0f4a415b43000000000000000000000000000000000000000000000000000000000000001e00000000000000000000000000000000000000000000000000000000000000600000000000000000000000000000000000000000000000000000000000000007426974636f696e00000000000000000000000000000000000000000000000000",
          "blockHash": "0x6e322943684df273774f8a9dd30d718e70dc4c479d3aa268296d0dbebf63f6ad",
          "blockNumber": "0x2a073a1",
          "blockTimestamp": "0x68f47037",
          "transactionHash": "0xa1afe2f2a3ab4dc2d3f697e47ae13d9df3dcc3dcf6684ffb8d6bb73a61aaa8e6",
          "transactionIndex": "0x1",
          "logIndex": "0x1",
          "removed": false
        }
      ],
      "logsBloom": "0x00000000000000000000000000000000000000000000000000000000000000000000000000000000002000000800000000000000000000000000000000000000000400000000000000000000000000000000000000000000000000000000000000000000000000000000000000000000000000000000000020000000000000000000000000000000000000000000000000000000000000000000000000000000000000800000000000000002000000000000000080000000000000000000000000000000000000000000000000000000000000000000000000000000000000000000000000000000000100000000000000000000000000000000000000400000",
      "type": "0x0",
      "transactionHash": "0xa1afe2f2a3ab4dc2d3f697e47ae13d9df3dcc3dcf6684ffb8d6bb73a61aaa8e6",
      "transactionIndex": "0x1",
      "blockHash": "0x6e322943684df273774f8a9dd30d718e70dc4c479d3aa268296d0dbebf63f6ad",
      "blockNumber": "0x2a073a1",
      "gasUsed": "0x36a0e",
      "effectiveGasPrice": "0x17bfac7c00",
      "from": "0x2c3a7d88cba76e1b231e969f8b11b73417f03a09",
      "to": "0xc0606efe733a23540708ce34d44c6e4f53f56f50",
      "contractAddress": null
    },
    {
      "status": "0x1",
      "cumulativeGasUsed": "0x5809a",
      "logs": [
        {
          "address": "0xc0606efe733a23540708ce34d44c6e4f53f56f50",
          "topics": [
            "0xd2a0cc0c0474ed6c3349931dee3321400e8bb78763e064e0dc346c44824741d6",
            "0xaaaebeba3810b1e6b70781f14b2d72c1cb89c0b2b320c43bb67ff79f562f5ff4"
          ],
          "data": "0xff61491a931112ddf1bd8147cd1b641375f79f5825126d665480874634fd0ace000000000000000000000000000000000000000000000000000000000000001900000000000000000000000000000000000000000000000000000000000000600000000000000000000000000000000000000000000000000000000000000008457468657265756d000000000000000000000000000000000000000000000000",
          "blockHash": "0x0ff9227b017fa7eedfd0d90269f35c47bf4d029938cb8c3fb7f5be5bcb454234",
          "blockNumber": "0x2a073ab",
          "blockTimestamp": "0x68f4703b",
          "transactionHash": "0xc6f4dd5af9a7a26e70d2102bdae22fb0293640460af8a1bcf44d942b2f28d98d",
          "transactionIndex": "0x4",
          "logIndex": "0x7",
          "removed": false
        }
      ],
      "logsBloom": "0x00000000000000000000000000000000000000000000000000000000000000000000000000000000000000000800000000000000000000000000000000000000000400000000000000000000000000000000000000000000000000000000000000000000000000000000000000000000000000040000000020000000000000000000000000000000000000008000000000000000000000000000000000000000000000800000000000000002000000000000000080000000000000000000000000000000000000000000000000000000000000000000000000001000000000000000000000000000000000000000000000000000000000000000000000000000",
      "type": "0x0",
      "transactionHash": "0xc6f4dd5af9a7a26e70d2102bdae22fb0293640460af8a1bcf44d942b2f28d98d",
      "transactionIndex": "0x4",
      "blockHash": "0x0ff9227b017fa7eedfd0d90269f35c47bf4d029938cb8c3fb7f5be5bcb454234",
      "blockNumber": "0x2a073ab",
      "gasUsed": "0x30ddb",
      "effectiveGasPrice": "0x17bfac7c00",
      "from": "0x2c3a7d88cba76e1b231e969f8b11b73417f03a09",
      "to": "0xc0606efe733a23540708ce34d44c6e4f53f56f50",
      "contractAddress": null
    },
    {
      "status": "0x1",
      "cumulativeGasUsed": "0x176333",
      "logs": [
        {
          "address": "0xc0606efe733a23540708ce34d44c6e4f53f56f50",
          "topics": [
            "0xd2a0cc0c0474ed6c3349931dee3321400e8bb78763e064e0dc346c44824741d6",
            "0x0a3ec4fc70eaf64faf6eeda4e9b2bd4742a785464053aa23afad8bd24650e86f"
          ],
          "data": "0xef0d8b6fda2ceba41da15d4095d1da392a0d2f8ed0c6c7bc0f4cfac8c280b56d000000000000000000000000000000000000000000000000000000000000001200000000000000000000000000000000000000000000000000000000000000600000000000000000000000000000000000000000000000000000000000000006536f6c616e610000000000000000000000000000000000000000000000000000",
          "blockHash": "0x6e7194ef0bcadc21bf35d6dc72fc6eb5347953645c2563369083b496bc73351d",
          "blockNumber": "0x2a073af",
          "blockTimestamp": "0x68f4703d",
          "transactionHash": "0x214eecaa957129ecc00145940387eb7f41993d68873b50bb7ac6449de59f884e",
          "transactionIndex": "0x4",
          "logIndex": "0xb",
          "removed": false
        }
      ],
      "logsBloom": "0x00000000000000000000000000000000000000000000000000000000000000000000000000000002000000000800000000000000000000000000000000000000000400000000000000000000000000000000000000000000000000000000000000000000000000000000000000000000000000000000000020000000000000000000000000000000000000000000000000000000000000000000000000000000000000800000000000000002000000000000000080000000000000000000000000000000000000000000000000000000000008000000000000000000000040000000000000000000000000000000000000000000000000000000000000000000",
      "type": "0x0",
      "transactionHash": "0x214eecaa957129ecc00145940387eb7f41993d68873b50bb7ac6449de59f884e",
      "transactionIndex": "0x4",
      "blockHash": "0x6e7194ef0bcadc21bf35d6dc72fc6eb5347953645c2563369083b496bc73351d",
      "blockNumber": "0x2a073af",
      "gasUsed": "0x30dbb",
      "effectiveGasPrice": "0x17bfac7c00",
      "from": "0x2c3a7d88cba76e1b231e969f8b11b73417f03a09",
      "to": "0xc0606efe733a23540708ce34d44c6e4f53f56f50",
      "contractAddress": null
    },
    {
      "status": "0x1",
      "cumulativeGasUsed": "0x56ac3",
      "logs": [
        {
          "address": "0xc0606efe733a23540708ce34d44c6e4f53f56f50",
          "topics": [
            "0xd2a0cc0c0474ed6c3349931dee3321400e8bb78763e064e0dc346c44824741d6",
            "0x3ed03c38e59dc60c7b69c2a4bf68f9214acd953252b5a90e8f5f59583e9bc3ae"
          ],
          "data": "0x2f95862b045670cd22bee3114c39763a4a08beeb663b145d283c31d7d1101c4f000000000000000000000000000000000000000000000000000000000000001000000000000000000000000000000000000000000000000000000000000000600000000000000000000000000000000000000000000000000000000000000003424e420000000000000000000000000000000000000000000000000000000000",
          "blockHash": "0x11f456ef5bfccec44c5d2127de65376b99602053aa3247c6f4b7e70c347c7524",
          "blockNumber": "0x2a073b6",
          "blockTimestamp": "0x68f47040",
          "transactionHash": "0xa386fe5064064d0254c98ade800ff2948baf0862c32cb5eaf2b6c1e3e1423123",
          "transactionIndex": "0x2",
          "logIndex": "0x7",
          "removed": false
        }
      ],
      "logsBloom": "0x00000000000000000000000000000000000000000000000000000000000000000000000000000000000100000800000000000000000000000000000000000000000400000000000000000000000000000000000000000000000000000000000000000000000000000000000000000000000000000000000020000000000000000020000000000000000000000000000000000000000000000000000000008000000000800000000000000002000000000000000080000000000000000000000000000000000000000000000000000000000000000000000000000000000000000000000000000000000000000000000000000000000000000000000000000000",
      "type": "0x0",
      "transactionHash": "0xa386fe5064064d0254c98ade800ff2948baf0862c32cb5eaf2b6c1e3e1423123",
      "transactionIndex": "0x2",
      "blockHash": "0x11f456ef5bfccec44c5d2127de65376b99602053aa3247c6f4b7e70c347c7524",
      "blockNumber": "0x2a073b6",
      "gasUsed": "0x33b82",
      "effectiveGasPrice": "0x17bfac7c00",
      "from": "0x2c3a7d88cba76e1b231e969f8b11b73417f03a09",
      "to": "0xc0606efe733a23540708ce34d44c6e4f53f56f50",
      "contractAddress": null
    },
    {
      "status": "0x1",
      "cumulativeGasUsed": "0x7a7ba",
      "logs": [
        {
          "address": "0xc0606efe733a23540708ce34d44c6e4f53f56f50",
          "topics": [
            "0xd2a0cc0c0474ed6c3349931dee3321400e8bb78763e064e0dc346c44824741d6",
            "0x49f18ed70c3220abb735efdc7fce309e384d008d4bc14c846dcce9e31050e29b"
          ],
          "data": "0x93da3352f9f1d105fdfe4971cfa80e9dd777bfc5d0f683ebb6e1294b92137bb7000000000000000000000000000000000000000000000000000000000000000c000000000000000000000000000000000000000000000000000000000000006000000000000000000000000000000000000000000000000000000000000000094176616c616e6368650000000000000000000000000000000000000000000000",
          "blockHash": "0xd20bc6a365c538abe71bc274d9075d4294c1abde7197e639499461ba1eaad5c0",
          "blockNumber": "0x2a073bb",
          "blockTimestamp": "0x68f47042",
          "transactionHash": "0xb0eb82bbfef68f7efb3d9092858e7f309abf621e56a5bfdf84b1762c29266829",
          "transactionIndex": "0x3",
          "logIndex": "0x5",
          "removed": false
        }
      ],
      "logsBloom": "0x00000000000000000000000000000000000000000000000000000080000000000000000000000000000000000800000000000000000000000000000000000000000400000000000000000000000000000000000000000000000000000000000000000000000000000000000000000000000000000000000020000000000000000000000000000001000000000000000000000000000000000000000004000000000000800000000000000002000000000000000080000000000000000000000000000000000000000000000000000000000000000000000000000000000000000000000000000000000000000000000000000000000000000000000000000000",
      "type": "0x0",
      "transactionHash": "0xb0eb82bbfef68f7efb3d9092858e7f309abf621e56a5bfdf84b1762c29266829",
      "transactionIndex": "0x3",
      "blockHash": "0xd20bc6a365c538abe71bc274d9075d4294c1abde7197e639499461ba1eaad5c0",
      "blockNumber": "0x2a073bb",
      "gasUsed": "0x30ddb",
      "effectiveGasPrice": "0x17bfac7c00",
      "from": "0x2c3a7d88cba76e1b231e969f8b11b73417f03a09",
      "to": "0xc0606efe733a23540708ce34d44c6e4f53f56f50",
      "contractAddress": null
    },
    {
      "status": "0x1",
      "cumulativeGasUsed": "0xe21d7",
      "logs": [
        {
          "address": "0xc0606efe733a23540708ce34d44c6e4f53f56f50",
          "topics": [
            "0xd2a0cc0c0474ed6c3349931dee3321400e8bb78763e064e0dc346c44824741d6",
            "0xaeb724422620edb430dcaf22aeeff2e9388a578c02754cd08699652fb76035c7"
          ],
          "data": "0xec5d399846a9209f3fe5881d70aae9268c94339ff9817e8d18ff19fa05eea1c8000000000000000000000000000000000000000000000000000000000000000c00000000000000000000000000000000000000000000000000000000000000600000000000000000000000000000000000000000000000000000000000000006526970706c650000000000000000000000000000000000000000000000000000",
          "blockHash": "0xc8ace9887ac03d11249087a827ea21d5f38358564f3f80bab924bb36c62db0aa",
          "blockNumber": "0x2a073c0",
          "blockTimestamp": "0x68f47044",
          "transactionHash": "0x2f112787a926dd2cd47b8869060cb40da2281c94534aa61a674111dd2a1704c2",
          "transactionIndex": "0x3",
          "logIndex": "0x9",
          "removed": false
        }
      ],
      "logsBloom": "0x00000000000000000000000000000000000000000000000000000000000000000000000000000000000000000800000000000000000000000000000000000000000400000000000000000000000000000000000004000000000000000000000000000000000000000000000000000000000000000000000020000000000000000000000000000000000000000000000000000000000000000000000000000000000000800000000000000002000000000000000080000000000000000000000000000000000000000000000000000000000000000000000000020000000000000000000000000000000000000000000000000000000000000000000000000008",
      "type": "0x0",
      "transactionHash": "0x2f112787a926dd2cd47b8869060cb40da2281c94534aa61a674111dd2a1704c2",
      "transactionIndex": "0x3",
      "blockHash": "0xc8ace9887ac03d11249087a827ea21d5f38358564f3f80bab924bb36c62db0aa",
      "blockNumber": "0x2a073c0",
      "gasUsed": "0x30dbb",
      "effectiveGasPrice": "0x17bfac7c00",
      "from": "0x2c3a7d88cba76e1b231e969f8b11b73417f03a09",
      "to": "0xc0606efe733a23540708ce34d44c6e4f53f56f50",
      "contractAddress": null
    },
    {
      "status": "0x1",
      "cumulativeGasUsed": "0x33bc9",
      "logs": [
        {
          "address": "0xc0606efe733a23540708ce34d44c6e4f53f56f50",
          "topics": [
            "0xd2a0cc0c0474ed6c3349931dee3321400e8bb78763e064e0dc346c44824741d6",
            "0x4e1e6d8aa1ff8f43f933718e113229b0ec6b091b699f7a8671bcbd606da36eea"
          ],
          "data": "0x2a01deaec9e51a579277b34b122399984d0bbf57e2458a7e42fecd2829867a0d000000000000000000000000000000000000000000000000000000000000000a0000000000000000000000000000000000000000000000000000000000000060000000000000000000000000000000000000000000000000000000000000000743617264616e6f00000000000000000000000000000000000000000000000000",
          "blockHash": "0x9783a1bf999f5ff478e2aeed512b208f5cfa63cb14ead604ac65b75c7c076164",
          "blockNumber": "0x2a073c6",
          "blockTimestamp": "0x68f47046",
          "transactionHash": "0x8154785113d6ad29548413a7cda5ef74b29f2573dd991a06dbba2e1380654f7e",
          "transactionIndex": "0x1",
          "logIndex": "0x1",
          "removed": false
        }
      ],
      "logsBloom": "0x00000000000000000000000000000000000000000000000000000000000000800000000000000000000000000800000000000000000000000000000000000000000400000000000000000000000000000000000000000000000000000000000000000000000000000000000000000000000000000000000020000000000000000000000000000000000000400000000000000000000000000000000000020000000000800000000000000002000000000000000080000000000000000000000000000000000000000000000000000000000000000000000000000000000000000000000000000000000000000000000000000000000000000000000000000000",
      "type": "0x0",
      "transactionHash": "0x8154785113d6ad29548413a7cda5ef74b29f2573dd991a06dbba2e1380654f7e",
      "transactionIndex": "0x1",
      "blockHash": "0x9783a1bf999f5ff478e2aeed512b208f5cfa63cb14ead604ac65b75c7c076164",
      "blockNumber": "0x2a073c6",
      "gasUsed": "0x33bc9",
      "effectiveGasPrice": "0x17bfac7c00",
      "from": "0x2c3a7d88cba76e1b231e969f8b11b73417f03a09",
      "to": "0xc0606efe733a23540708ce34d44c6e4f53f56f50",
      "contractAddress": null
    },
    {
      "status": "0x1",
      "cumulativeGasUsed": "0x58f54",
      "logs": [
        {
          "address": "0xc0606efe733a23540708ce34d44c6e4f53f56f50",
          "topics": [
            "0xd2a0cc0c0474ed6c3349931dee3321400e8bb78763e064e0dc346c44824741d6",
            "0xa6a7de01e8b7ba6a4a61c782a73188d808fc1f3cf5743fadb68a02ed884b594f"
          ],
          "data": "0x5de33a9112c2b700b8d30b8a3402c103578ccfa2765696471cc672bd5cf6ac52000000000000000000000000000000000000000000000000000000000000000a00000000000000000000000000000000000000000000000000000000000000600000000000000000000000000000000000000000000000000000000000000007506f6c79676f6e00000000000000000000000000000000000000000000000000",
          "blockHash": "0xc77b03046c64bf2fb4896aafb526d329e2e308d3e16cbd282e315dbde7714f20",
          "blockNumber": "0x2a073ca",
          "blockTimestamp": "0x68f47048",
          "transactionHash": "0x15fdf91e0b672852cdb3284fa5070e375fcdc8d41e4068fd0c2b6a71e281b1a6",
          "transactionIndex": "0x4",
          "logIndex": "0x4",
          "removed": false
        }
      ],
      "logsBloom": "0x00000000000000000000000000000000000000000000000000000000000000000000000000000000000000000800000000000000000000000000000000000000000400000000000000000000000000000000000000000000000000000000400000000000000000000000000000000000000000000000000020000040000000000000000000000000000000000000000000000000000000000000000000000000000000800000000000000002000000000000000080000000000000000000000000000000000000000000000000010000000000000000000000000000000000000000000000000000000000000000000000000000000000000000000000000000",
      "type": "0x0",
      "transactionHash": "0x15fdf91e0b672852cdb3284fa5070e375fcdc8d41e4068fd0c2b6a71e281b1a6",
      "transactionIndex": "0x4",
      "blockHash": "0xc77b03046c64bf2fb4896aafb526d329e2e308d3e16cbd282e315dbde7714f20",
      "blockNumber": "0x2a073ca",
      "gasUsed": "0x30dbb",
      "effectiveGasPrice": "0x17bfac7c00",
      "from": "0x2c3a7d88cba76e1b231e969f8b11b73417f03a09",
      "to": "0xc0606efe733a23540708ce34d44c6e4f53f56f50",
      "contractAddress": null
    },
    {
      "status": "0x1",
      "cumulativeGasUsed": "0x18eeb2",
      "logs": [
        {
          "address": "0xc0606efe733a23540708ce34d44c6e4f53f56f50",
          "topics": [
            "0xd2a0cc0c0474ed6c3349931dee3321400e8bb78763e064e0dc346c44824741d6",
            "0xa486e4b27cce131bfeacd003018c22a55744bdb94821829f0ff1d4061d8d0533"
          ],
          "data": "0xc415de8d2eba7db216527dff4b60e8f3a5311c740dadb233e13e12547e226750000000000000000000000000000000000000000000000000000000000000000a0000000000000000000000000000000000000000000000000000000000000060000000000000000000000000000000000000000000000000000000000000000d4e4541522050726f746f636f6c00000000000000000000000000000000000000",
          "blockHash": "0x06be075c97b4a62609b3701ea144a5c127f7a6658ee11622bf370faa0c78c182",
          "blockNumber": "0x2a073d0",
          "blockTimestamp": "0x68f4704a",
          "transactionHash": "0x09108d5a294f1fd936b8db1d3152853f58bd56791b6fc23ca331324150fc12cf",
          "transactionIndex": "0x2",
          "logIndex": "0x3",
          "removed": false
        }
      ],
      "logsBloom": "0x00000000000000000000000000000000000000000000000000000000000000000000000000000000000000000800000000000000000000000000000000000000000400000000000000000000000000000000000000000000000000000000000000000000000000000000000000000000000000000000008020000000000000000000000000000000000000000000000000000000000000200000000000000000000000800000000000000002000000000000000080000000000000000000000000000000000000000000000000000000000000000000000000000000010000000000000000000000000000000000000000000000000000000000000000000000",
      "type": "0x0",
      "transactionHash": "0x09108d5a294f1fd936b8db1d3152853f58bd56791b6fc23ca331324150fc12cf",
      "transactionIndex": "0x2",
      "blockHash": "0x06be075c97b4a62609b3701ea144a5c127f7a6658ee11622bf370faa0c78c182",
      "blockNumber": "0x2a073d0",
      "gasUsed": "0x33c32",
      "effectiveGasPrice": "0x17bfac7c00",
      "from": "0x2c3a7d88cba76e1b231e969f8b11b73417f03a09",
      "to": "0xc0606efe733a23540708ce34d44c6e4f53f56f50",
      "contractAddress": null
    },
    {
      "status": "0x1",
      "cumulativeGasUsed": "0xc6c3d",
      "logs": [
        {
          "address": "0xc0606efe733a23540708ce34d44c6e4f53f56f50",
          "topics": [
            "0xd2a0cc0c0474ed6c3349931dee3321400e8bb78763e064e0dc346c44824741d6",
            "0x9a3f52b1b31ae58da40209f38379e78c3a0756495a0f585d0b3c84a9e9718f9d"
          ],
          "data": "0xdcef50dd0a4cd2dcc17e45df1676dcb336a11a61c69df7a0299b0150c672d25c000000000000000000000000000000000000000000000000000000000000000900000000000000000000000000000000000000000000000000000000000000600000000000000000000000000000000000000000000000000000000000000008446f6765636f696e000000000000000000000000000000000000000000000000",
          "blockHash": "0x099f8cad62b94095d754e88da71eaaea7e4beab83831465df86506cbe9b2f5c2",
          "blockNumber": "0x2a073d6",
          "blockTimestamp": "0x68f4704c",
          "transactionHash": "0x40a132ec26b7366dca875603775acc3645a37c879a07fd1940ebbea68646c22b",
          "transactionIndex": "0x5",
          "logIndex": "0x9",
          "removed": false
        }
      ],
      "logsBloom": "0x00000000000000000000000000000000000000000000040000000000000000000000000000000000000000000800000000000000000000000000000000000000000400000000000000000000000000000000000000000000000000000000000000000000000000000000000000000000000000000000000020000000000000000000000000000000000000000000000000000000000000000000000000000000000000800001000000000002000000000010000080000000000000000000000000000000000000000000000000000000000000000000000000000000000000000000000000000000000000000000000000000000000000000000000000000000",
      "type": "0x0",
      "transactionHash": "0x40a132ec26b7366dca875603775acc3645a37c879a07fd1940ebbea68646c22b",
      "transactionIndex": "0x5",
      "blockHash": "0x099f8cad62b94095d754e88da71eaaea7e4beab83831465df86506cbe9b2f5c2",
      "blockNumber": "0x2a073d6",
      "gasUsed": "0x30ddb",
      "effectiveGasPrice": "0x17bfac7c00",
      "from": "0x2c3a7d88cba76e1b231e969f8b11b73417f03a09",
      "to": "0xc0606efe733a23540708ce34d44c6e4f53f56f50",
      "contractAddress": null
    },
    {
      "status": "0x1",
      "cumulativeGasUsed": "0xe17e0f",
      "logs": [
        {
          "address": "0xc0606efe733a23540708ce34d44c6e4f53f56f50",
          "topics": [
            "0xd2a0cc0c0474ed6c3349931dee3321400e8bb78763e064e0dc346c44824741d6",
            "0x89e00465fb83774b035e591ad1577585bbb47b9ee6745a0ef8052c9623fc55ac"
          ],
          "data": "0x67aed5a24fdad045475e7195c98a98aea119c763f272d4523f5bac93a4f33c2b00000000000000000000000000000000000000000000000000000000000000080000000000000000000000000000000000000000000000000000000000000060000000000000000000000000000000000000000000000000000000000000000454726f6e00000000000000000000000000000000000000000000000000000000",
          "blockHash": "0x0a63cfae464e9e9b48d762060966f2cd1d5e34d20bcddc2be765dc8d56db60c6",
          "blockNumber": "0x2a073dd",
          "blockTimestamp": "0x68f47051",
          "transactionHash": "0x33d2334c185e7c3ec8ab663b0465dd58071c9dc983b44a4897345de0b974d777",
          "transactionIndex": "0x8",
          "logIndex": "0x26",
          "removed": false
        }
      ],
      "logsBloom": "0x00000000000000800000000000000000000000000000000000000000000000000000000000000000000000000800000000000000000000000010000000000000000400000000000000000000000000000000000000000000000000000000000000000000000000000000000000000000000000000000000020000000000000000000000000000000000000000000000000000000000000000000000000000000000000800000000000000002000000000000000080000000004000000000000000000000000000000000000000000000000000000000000000000000000000000000000000000000000000000000000000000000000000000000000000000000",
      "type": "0x0",
      "transactionHash": "0x33d2334c185e7c3ec8ab663b0465dd58071c9dc983b44a4897345de0b974d777",
      "transactionIndex": "0x8",
      "blockHash": "0x0a63cfae464e9e9b48d762060966f2cd1d5e34d20bcddc2be765dc8d56db60c6",
      "blockNumber": "0x2a073dd",
      "gasUsed": "0x30d99",
      "effectiveGasPrice": "0x17bfac7c00",
      "from": "0x2c3a7d88cba76e1b231e969f8b11b73417f03a09",
      "to": "0xc0606efe733a23540708ce34d44c6e4f53f56f50",
      "contractAddress": null
    },
    {
      "status": "0x1",
      "cumulativeGasUsed": "0x46518",
      "logs": [
        {
          "address": "0xc0606efe733a23540708ce34d44c6e4f53f56f50",
          "topics": [
            "0xd2a0cc0c0474ed6c3349931dee3321400e8bb78763e064e0dc346c44824741d6",
            "0x542d10e155091389b3358f5f9188642f6ada7c12d94c1ffcb1d3a513e62ac319"
          ],
          "data": "0x23d7315113f5b1d3ba7a83604c44b94d79f4fd69af77f804fc7f920a6dc657440000000000000000000000000000000000000000000000000000000000000008000000000000000000000000000000000000000000000000000000000000006000000000000000000000000000000000000000000000000000000000000000035375690000000000000000000000000000000000000000000000000000000000",
          "blockHash": "0x388d1b2ff4f882acaec3b9a349abb1d9e12029f5b3624a163301f85436205cbd",
          "blockNumber": "0x2a073e4",
          "blockTimestamp": "0x68f47054",
          "transactionHash": "0x55782162c805d2747c64eec4c15807e99f6f1f3a26e4b49a361d61f97c9f363d",
          "transactionIndex": "0x3",
          "logIndex": "0x3",
          "removed": false
        }
      ],
      "logsBloom": "0x00000000000000000000000000000000000000000000000000000000000000000000000000000000000000000800000000000000000000000000000000000000000400000000000000000000000000000000000000000000000000000000000000000000000000000000000000000000000000000000000020000000000000000000000000000000000000000000000000004000000000000000000000000000000000800000000000000002000000000000000080000000000000000000080000000000000000000000000000000000000000010000000000000000000000000000000000000000000000000000000000000000000000000000000000000000",
      "type": "0x0",
      "transactionHash": "0x55782162c805d2747c64eec4c15807e99f6f1f3a26e4b49a361d61f97c9f363d",
      "transactionIndex": "0x3",
      "blockHash": "0x388d1b2ff4f882acaec3b9a349abb1d9e12029f5b3624a163301f85436205cbd",
      "blockNumber": "0x2a073e4",
      "gasUsed": "0x33b82",
      "effectiveGasPrice": "0x17bfac7c00",
      "from": "0x2c3a7d88cba76e1b231e969f8b11b73417f03a09",
      "to": "0xc0606efe733a23540708ce34d44c6e4f53f56f50",
      "contractAddress": null
    },
    {
      "status": "0x1",
      "cumulativeGasUsed": "0xdf26a",
      "logs": [
        {
          "address": "0xc0606efe733a23540708ce34d44c6e4f53f56f50",
          "topics": [
            "0xd2a0cc0c0474ed6c3349931dee3321400e8bb78763e064e0dc346c44824741d6",
            "0xc18f56144146939da796e8717010c2f5140aa0b98704a95b71f5b503102c8c27"
          ],
          "data": "0xb7e3904c08ddd9c0c10c6d207d390fd19e87eb6aab96304f571ed94caebdefa00000000000000000000000000000000000000000000000000000000000000007000000000000000000000000000000000000000000000000000000000000006000000000000000000000000000000000000000000000000000000000000000054173746172000000000000000000000000000000000000000000000000000000",
          "blockHash": "0x3c58a2bc9e3de9fb99b27daa490c26d001e522ed8a6101516be61ef1f62af39f",
          "blockNumber": "0x2a073ea",
          "blockTimestamp": "0x68f47056",
          "transactionHash": "0xf4911df18edadb7838dc5eb507d8546e8b1b9806bab98ea6f1464571250517f7",
          "transactionIndex": "0x4",
          "logIndex": "0x16",
          "removed": false
        }
      ],
      "logsBloom": "0x00000000000000000000100000000000000000000000000000000000000000000000000000000000000000000800000000000000000000000000000000000000000400000000000000000000000000000000000000000000000000000000000000000000000020000000000000000000000000000000000020000000000000000000000000000000000000000000000000000000000000000000000000000000000000800000000000000002000000000000000080000000000000000000000000000000000000000000000000000000000000000000000000000000000000000000000000000000000000000000000000000000000000000000000000000010",
      "type": "0x0",
      "transactionHash": "0xf4911df18edadb7838dc5eb507d8546e8b1b9806bab98ea6f1464571250517f7",
      "transactionIndex": "0x4",
      "blockHash": "0x3c58a2bc9e3de9fb99b27daa490c26d001e522ed8a6101516be61ef1f62af39f",
      "blockNumber": "0x2a073ea",
      "gasUsed": "0x33ba5",
      "effectiveGasPrice": "0x17bfac7c00",
      "from": "0x2c3a7d88cba76e1b231e969f8b11b73417f03a09",
      "to": "0xc0606efe733a23540708ce34d44c6e4f53f56f50",
      "contractAddress": null
    },
    {
      "status": "0x1",
      "cumulativeGasUsed": "0xfc715",
      "logs": [
        {
          "address": "0xc0606efe733a23540708ce34d44c6e4f53f56f50",
          "topics": [
            "0xd2a0cc0c0474ed6c3349931dee3321400e8bb78763e064e0dc346c44824741d6",
            "0xefa585451ff82e7559b7e4aa3c7d26b394fd121301bbf6f1da4ef6d29210466e"
          ],
          "data": "0xf0d57deca57b3da2fe63a493f4c25925fdfd8edf834b20f93e1f84dbd1504d4a000000000000000000000000000000000000000000000000000000000000000600000000000000000000000000000000000000000000000000000000000000600000000000000000000000000000000000000000000000000000000000000009536869626120496e750000000000000000000000000000000000000000000000",
          "blockHash": "0x258c2636583d52f1e40a2ba704eb60994ea282af3112182bc2dcd2c2407b5663",
          "blockNumber": "0x2a073f3",
          "blockTimestamp": "0x68f4705a",
          "transactionHash": "0xdb8a24c5894d6edb2d5ccda3125596f7c637a2133fee2904647b656ad16e400a",
          "transactionIndex": "0x2",
          "logIndex": "0x6",
          "removed": false
        }
      ],
      "logsBloom": "0x00000000000000000000000000000000000000000000000000000000000000000000000000000000000000000800000000000000000000000000000000000000000400000000000000000000000000000000000000080000000000000000000000000000000000000000000000000000000000000000000020000000000000000000000000000000000000000000000000000000000000000000000000000000000000800000000000000002000000000000000080000000000000000000000000000000000000000000000000000000000000000000000000000000000000800200000000000000000000000000000000000000000000000000000000000000",
      "type": "0x0",
      "transactionHash": "0xdb8a24c5894d6edb2d5ccda3125596f7c637a2133fee2904647b656ad16e400a",
      "transactionIndex": "0x2",
      "blockHash": "0x258c2636583d52f1e40a2ba704eb60994ea282af3112182bc2dcd2c2407b5663",
      "blockNumber": "0x2a073f3",
      "gasUsed": "0x33bec",
      "effectiveGasPrice": "0x17bfac7c00",
      "from": "0x2c3a7d88cba76e1b231e969f8b11b73417f03a09",
      "to": "0xc0606efe733a23540708ce34d44c6e4f53f56f50",
      "contractAddress": null
    },
    {
      "status": "0x1",
      "cumulativeGasUsed": "0x1c6c24",
      "logs": [
        {
          "address": "0xc0606efe733a23540708ce34d44c6e4f53f56f50",
          "topics": [
            "0xd2a0cc0c0474ed6c3349931dee3321400e8bb78763e064e0dc346c44824741d6",
            "0x608e17bb6814e7eb8d564b13416322f3d8a2dc5e36dde75519945008d7848749"
          ],
          "data": "0xd69731a2e74ac1ce884fc3890f7ee324b6deb66147055249568869ed700882e40000000000000000000000000000000000000000000000000000000000000005000000000000000000000000000000000000000000000000000000000000006000000000000000000000000000000000000000000000000000000000000000045065706500000000000000000000000000000000000000000000000000000000",
          "blockHash": "0xedd19a94fc9d2605ab9de9cd278567cba3cb723f9845e2a43fcaed46986c3041",
          "blockNumber": "0x2a073f7",
          "blockTimestamp": "0x68f4705b",
          "transactionHash": "0xa9b28ddd40607b5300354292ffae7c858ff4444996500b4c0af88d2eb9db70a1",
          "transactionIndex": "0x3",
          "logIndex": "0xc",
          "removed": false
        }
      ],
      "logsBloom": "0x00000000000000000000000000000000000000000000000000000000000000000000000000000000000000000800000000000000000000000000000000000000000400040000000000000000000000000000000000000000000000000000000000000000000000000000000000000000000000000000000020000000000000000000000000000000000000000000000000000000000000000000000000000000000000800000000000000002000000000000000080000020000000000000000000000000000000000000000000000000000000000000000000020000000000000000000000000000000000000000000000000000000000000000000000000000",
      "type": "0x0",
      "transactionHash": "0xa9b28ddd40607b5300354292ffae7c858ff4444996500b4c0af88d2eb9db70a1",
      "transactionIndex": "0x3",
      "blockHash": "0xedd19a94fc9d2605ab9de9cd278567cba3cb723f9845e2a43fcaed46986c3041",
      "blockNumber": "0x2a073f7",
      "gasUsed": "0x30d99",
      "effectiveGasPrice": "0x17bfac7c00",
      "from": "0x2c3a7d88cba76e1b231e969f8b11b73417f03a09",
      "to": "0xc0606efe733a23540708ce34d44c6e4f53f56f50",
      "contractAddress": null
    },
    {
      "status": "0x1",
      "cumulativeGasUsed": "0xa04fc",
      "logs": [
        {
          "address": "0xc0606efe733a23540708ce34d44c6e4f53f56f50",
          "topics": [
            "0xd2a0cc0c0474ed6c3349931dee3321400e8bb78763e064e0dc346c44824741d6",
            "0xa8631acbe37917ccaaf28385e6997f2db9e3876151964f689ee4762ac40f71b8"
          ],
          "data": "0x7c28a4f3ca1e583f83c5c430ae9ad42f80bc3f6fcbde13906e7b569cd6f22aa10000000000000000000000000000000000000000000000000000000000000005000000000000000000000000000000000000000000000000000000000000006000000000000000000000000000000000000000000000000000000000000000044879706500000000000000000000000000000000000000000000000000000000",
          "blockHash": "0x4c6605d506b9150d1a9a665649fe7bbdb6eb1ad6cab9feb14baba8453a28d2d3",
          "blockNumber": "0x2a073fc",
          "blockTimestamp": "0x68f4705d",
          "transactionHash": "0x54bf65cd438e2eea0d2d8e2b559da9d2a034b11504f607e5272abe26d0f0e622",
          "transactionIndex": "0x4",
          "logIndex": "0x6",
          "removed": false
        }
      ],
      "logsBloom": "0x00000000000000000000000000000000000000000000000000000000000000000000000000000000000000000800000000000000000000000000000000000000000400000000000000000000000000000000000000000000000000000000000000000000000000000000000000000000000000000000800020000000000000000400000000000000000000000000000000000000000000000000000000000000000000800000000000000002000000000000000080000000000000000000000100000000000000000000000000000000000000000000000000000000000000000000000000000000000000000000000000000000000000000000000000000000",
      "type": "0x0",
      "transactionHash": "0x54bf65cd438e2eea0d2d8e2b559da9d2a034b11504f607e5272abe26d0f0e622",
      "transactionIndex": "0x4",
      "blockHash": "0x4c6605d506b9150d1a9a665649fe7bbdb6eb1ad6cab9feb14baba8453a28d2d3",
      "blockNumber": "0x2a073fc",
      "gasUsed": "0x30d99",
      "effectiveGasPrice": "0x17bfac7c00",
      "from": "0x2c3a7d88cba76e1b231e969f8b11b73417f03a09",
      "to": "0xc0606efe733a23540708ce34d44c6e4f53f56f50",
      "contractAddress": null
    },
    {
      "status": "0x1",
      "cumulativeGasUsed": "0x559ef",
      "logs": [
        {
          "address": "0xc0606efe733a23540708ce34d44c6e4f53f56f50",
          "topics": [
            "0xd2a0cc0c0474ed6c3349931dee3321400e8bb78763e064e0dc346c44824741d6",
            "0x9bd00430e53a5999c7c603cfc04cbdaf68bdbc180f300e4a2067937f57a0534f"
          ],
          "data": "0xca3eed9b267293f6595901c734c7525ce8ef49adafe8284606ceb307afa2ca5b000000000000000000000000000000000000000000000000000000000000000a00000000000000000000000000000000000000000000000000000000000000600000000000000000000000000000000000000000000000000000000000000008506f6c6b61646f74000000000000000000000000000000000000000000000000",
          "blockHash": "0x192ee515ebf78a5544612a40af2125c07f1d71d6bb5685186481de3dc9ba0fd2",
          "blockNumber": "0x2a07401",
          "blockTimestamp": "0x68f4705f",
          "transactionHash": "0xa78eaae18364c8b1a6b2b5377e1e62a3dbe5f28fccd6ac798d94920b76a8c157",
          "transactionIndex": "0x3",
          "logIndex": "0x6",
          "removed": false
        }
      ],
      "logsBloom": "0x00000000000000000000000000000000000000000000000000000000000000000000000000000000000000000800000000000000000000000000000000000000000400000000000000000000000000000000000000000000000000000000000000000000000000000000000000000000000000000000000020000000000000000000000000000000000000000000000000000000000000000000000040000000000000800000000000000002200000000000000080000000000000000000000000000000000000000000000000000000001000000000000000000000000000000000000000000000000000000000000000000000000000000000000000000000",
      "type": "0x0",
      "transactionHash": "0xa78eaae18364c8b1a6b2b5377e1e62a3dbe5f28fccd6ac798d94920b76a8c157",
      "transactionIndex": "0x3",
      "blockHash": "0x192ee515ebf78a5544612a40af2125c07f1d71d6bb5685186481de3dc9ba0fd2",
      "blockNumber": "0x2a07401",
      "gasUsed": "0x30ddb",
      "effectiveGasPrice": "0x17bfac7c00",
      "from": "0x2c3a7d88cba76e1b231e969f8b11b73417f03a09",
      "to": "0xc0606efe733a23540708ce34d44c6e4f53f56f50",
      "contractAddress": null
    },
    {
      "status": "0x1",
      "cumulativeGasUsed": "0x185c0c",
      "logs": [
        {
          "address": "0xc0606efe733a23540708ce34d44c6e4f53f56f50",
          "topics": [
            "0xd2a0cc0c0474ed6c3349931dee3321400e8bb78763e064e0dc346c44824741d6",
            "0x3a540c592f9dbcbbe2f3f7f7a25a9554cef45a0c93b7209090ddcb77180f6ab1"
          ],
          "data": "0x03ae4db29ed4ae33d323568895aa00337e658e348b37509f5372ae51f0af00d50000000000000000000000000000000000000000000000000000000000000009000000000000000000000000000000000000000000000000000000000000006000000000000000000000000000000000000000000000000000000000000000054170746f73000000000000000000000000000000000000000000000000000000",
          "blockHash": "0xd0c102c243abf5d60bcbb1576f3d0c23d3ee19bfb2a2ca203a617523606bb370",
          "blockNumber": "0x2a07405",
          "blockTimestamp": "0x68f47062",
          "transactionHash": "0xb4c1427c39dec353c5455094ec85ef672313459f5ea5b855b01164e39fb7931e",
          "transactionIndex": "0x9",
          "logIndex": "0x13",
          "removed": false
        }
      ],
      "logsBloom": "0x00000000000000000000000000000000000000000000000000000000000000000000000000000000000000000800000080000000000000000000000000000000000400000000000000000000000000000000000800000000000000000000000000000000000000000000000000000000000000000000000020000000000000000000000000000000000000000000000000000000000000000000000000000000000000800000000000000002000000000000000080000000000000000000000000000000000000000000000000000000001000000000000000000000000000000000000000000000000000000000000000000000000000000000000000000000",
      "type": "0x0",
      "transactionHash": "0xb4c1427c39dec353c5455094ec85ef672313459f5ea5b855b01164e39fb7931e",
      "transactionIndex": "0x9",
      "blockHash": "0xd0c102c243abf5d60bcbb1576f3d0c23d3ee19bfb2a2ca203a617523606bb370",
      "blockNumber": "0x2a07405",
      "gasUsed": "0x33b82",
      "effectiveGasPrice": "0x17bfac7c00",
      "from": "0x2c3a7d88cba76e1b231e969f8b11b73417f03a09",
      "to": "0xc0606efe733a23540708ce34d44c6e4f53f56f50",
      "contractAddress": null
    }
  ],
  "libraries": [],
  "pending": [],
  "returns": {},
  "timestamp": 1760850021198,
  "chain": 10143,
  "commit": null
}