{
  "transactions": [
    {
      "hash": "0x08694056d6c32502a77a4881af6be626ebdea7ea6d59f1f464e9ad77d17b5060",
      "transactionType": "CREATE",
      "contractName": "AssetRegistry",
      "contractAddress": "0x898bca461ce3b7f0697e15dd2209c673dae5fbe2",
      "function": null,
      "arguments": null,
      "transaction": {
        "from": "0x2c3a7d88cba76e1b231e969f8b11b73417f03a09",
        "gas": "0x15f8c6",
        "value": "0x0",
        "input": "0x608060405234801561000f575f80fd5b50338061003557604051631e4fbdf760e01b81525f600482015260240160405180910390fd5b61003e81610044565b50610093565b5f80546001600160a01b038381166001600160a01b0319831681178455604051919092169283917f8be0079c531659141344cd1fd0a4f28419497f9722a3daafe3b4186f6b6457e09190a35050565b611295806100a05f395ff3fe608060405234801561000f575f80fd5b50600436106100e5575f3560e01c8063715018a6116100885780639fda5b66116100635780639fda5b66146101f2578063b6a0a1f314610215578063d9b60e5414610228578063f2fde38b1461023b575f80fd5b8063715018a6146101a65780638da5cb5b146101ae5780639f11194f146101c8575f80fd5b80632acada4d116100c35780632acada4d146101565780632cc3ce801461016b5780633b1270881461018b57806369efa86314610193575f80fd5b806302515835146100e95780630838aebd1461012057806325c8a5ff14610135575b5f80fd5b61010b6100f7366004610d75565b60036020525f908152604090205460ff1681565b60405190151581526020015b60405180910390f35b61013361012e366004610da0565b61024e565b005b610148610143366004610d75565b6102f3565b604051908152602001610117565b61015e610312565b6040516101179190610dca565b61017e610179366004610d75565b610368565b6040516101179190610e50565b61015e610496565b6101486101a1366004610e96565b6105eb565b610133610711565b5f546040516001600160a01b039091168152602001610117565b6101db6101d6366004610e96565b610724565b604080519215158352602083019190915201610117565b610205610200366004610d75565b610886565b6040516101179493929190610f05565b610133610223366004610f4a565b61093f565b610133610236366004610fd6565b610b7a565b610133610249366004611019565b610cbd565b610256610cfa565b5f8281526003602052604090205460ff1661028c5760405162461bcd60e51b815260040161028390611046565b60405180910390fd5b5f82815260016020819052604091829020018054831515620100000262ff0000199091161790555182907f719af64513d5a1594144438ab36d36309d0876815b4e7b611fbcd21e463d48f4906102e790841515815260200190565b60405180910390a25050565b60028181548110610302575f80fd5b5f91825260209091200154905081565b6060600280548060200260200160405190810160405280929190818152602001828054801561035e57602002820191905f5260205f20905b81548152602001906001019080831161034a575b5050505050905090565b604080516080810182525f80825260208201819052918101919091526060808201525f8281526003602052604090205460ff166103b75760405162461bcd60e51b815260040161028390611046565b5f828152600160208181526040928390208351608081018552815481529281015461ffff8116928401929092526201000090910460ff1615159282019290925260028201805491929160608401919061040f90611074565b80601f016020809104026020016040519081016040528092919081815260200182805461043b90611074565b80156104865780601f1061045d57610100808354040283529160200191610486565b820191905f5260205f20905b81548152906001019060200180831161046957829003601f168201915b5050505050815250509050919050565b60605f805b6002548110156104fd5760015f600283815481106104bb576104bb6110ac565b905f5260205f20015481526020019081526020015f2060010160029054906101000a900460ff16156104f557816104f1816110d4565b9250505b60010161049b565b505f8167ffffffffffffffff811115610518576105186110ec565b604051908082528060200260200182016040528015610541578160200160208202803683370190505b5090505f805b6002548110156105e25760015f60028381548110610567576105676110ac565b905f5260205f20015481526020019081526020015f2060010160029054906101000a900460ff16156105da57600281815481106105a6576105a66110ac565b905f5260205f2001548383815181106105c1576105c16110ac565b6020908102919091010152816105d6816110d4565b9250505b600101610547565b50909392505050565b5f80805b838110156107075760035f86868481811061060c5761060c6110ac565b602090810292909201358352508101919091526040015f205460ff166106445760405162461bcd60e51b815260040161028390611046565b60015f868684818110610659576106596110ac565b9050602002013581526020019081526020015f2060010160029054906101000a900460ff166106be5760405162461bcd60e51b8152602060048201526011602482015270105cdcd95d081b9bdd08195b98589b1959607a1b6044820152606401610283565b60015f8686848181106106d3576106d36110ac565b602090810292909201358352508101919091526040015f20600101546106fd9061ffff1683611100565b91506001016105ef565b5090505b92915050565b610719610cfa565b6107225f610d26565b565b5f806007831461073857505f90508061087f565b505f805b838110156108765760035f868684818110610759576107596110ac565b602090810292909201358352508101919091526040015f205460ff1615806107b8575060015f868684818110610791576107916110ac565b9050602002013581526020019081526020015f2060010160029054906101000a900460ff16155b156107c9575f80925092505061087f565b5f6107d5826001611100565b90505b8481101561082c578585828181106107f2576107f26110ac565b9050602002013586868481811061080b5761080b6110ac565b9050602002013503610824575f8093509350505061087f565b6001016107d8565b5060015f868684818110610842576108426110ac565b602090810292909201358352508101919091526040015f206001015461086c9061ffff1683611100565b915060010161073c565b50606481111591505b9250929050565b600160208190525f918252604090912080549181015460028201805461ffff8316936201000090930460ff169291906108be90611074565b80601f01602080910402602001604051908101604052809291908181526020018280546108ea90611074565b80156109355780601f1061090c57610100808354040283529160200191610935565b820191905f5260205f20905b81548152906001019060200180831161091857829003601f168201915b5050505050905084565b610947610cfa565b5f8581526003602052604090205460ff161561099c5760405162461bcd60e51b8152602060048201526014602482015273417373657420616c72656164792065786973747360601b6044820152606401610283565b5f8361ffff161180156109b4575060648361ffff1611155b6109f55760405162461bcd60e51b81526020600482015260126024820152710436f7374206d75737420626520312d3130360741b6044820152606401610283565b83610a345760405162461bcd60e51b815260206004820152600f60248201526e125b9d985b1a590819995959081251608a1b6044820152606401610283565b60405180608001604052808581526020018461ffff16815260200160011515815260200183838080601f0160208091040260200160405190810160405280939291908181526020018383808284375f9201829052509390945250508781526001602081815260409283902085518155908501519181018054938601511515620100000262ffffff1990941661ffff9093169290921792909217905560608301519091506002820190610ae6908261115f565b50506002805460018181019092557f405787fa12a823e0f2b7631cc41b3ba8828b3321ca811111fa75cd3aa3bb5ace018790555f8781526003602052604090819020805460ff1916909217909155518691507fd2a0cc0c0474ed6c3349931dee3321400e8bb78763e064e0dc346c44824741d690610b6b90879087908790879061121f565b60405180910390a25050505050565b610b82610cfa565b5f8481526003602052604090205460ff16610baf5760405162461bcd60e51b815260040161028390611046565b5f8261ffff16118015610bc7575060648261ffff1611155b610c085760405162461bcd60e51b81526020600482015260126024820152710436f7374206d75737420626520312d3130360741b6044820152606401610283565b82610c475760405162461bcd60e51b815260206004820152600f60248201526e125b9d985b1a590819995959081251608a1b6044820152606401610283565b5f84815260016020818152604092839020868155918201805461ffff871662ffffff1990911681176201000087151590810291909117909255845188815292830152928101929092529085907f9afe5bac933bbcf43b02cd6ecffab466868ea75f91058b33e36cb1200a07515f90606001610b6b565b610cc5610cfa565b6001600160a01b038116610cee57604051631e4fbdf760e01b81525f6004820152602401610283565b610cf781610d26565b50565b5f546001600160a01b031633146107225760405163118cdaa760e01b8152336004820152602401610283565b5f80546001600160a01b038381166001600160a01b0319831681178455604051919092169283917f8be0079c531659141344cd1fd0a4f28419497f9722a3daafe3b4186f6b6457e09190a35050565b5f60208284031215610d85575f80fd5b5035919050565b80358015158114610d9b575f80fd5b919050565b5f8060408385031215610db1575f80fd5b82359150610dc160208401610d8c565b90509250929050565b602080825282518282018190525f9190848201906040850190845b81811015610e0157835183529284019291840191600101610de5565b50909695505050505050565b5f81518084525f5b81811015610e3157602081850181015186830182015201610e15565b505f602082860101526020601f19601f83011685010191505092915050565b602081528151602082015261ffff60208301511660408201526040820151151560608201525f6060830151608080840152610e8e60a0840182610e0d565b949350505050565b5f8060208385031215610ea7575f80fd5b823567ffffffffffffffff80821115610ebe575f80fd5b818501915085601f830112610ed1575f80fd5b813581811115610edf575f80fd5b8660208260051b8501011115610ef3575f80fd5b60209290920196919550909350505050565b84815261ffff841660208201528215156040820152608060608201525f610f2f6080830184610e0d565b9695505050505050565b803561ffff81168114610d9b575f80fd5b5f805f805f60808688031215610f5e575f80fd5b8535945060208601359350610f7560408701610f39565b9250606086013567ffffffffffffffff80821115610f91575f80fd5b818801915088601f830112610fa4575f80fd5b813581811115610fb2575f80fd5b896020828501011115610fc3575f80fd5b9699959850939650602001949392505050565b5f805f8060808587031215610fe9575f80fd5b843593506020850135925061100060408601610f39565b915061100e60608601610d8c565b905092959194509250565b5f60208284031215611029575f80fd5b81356001600160a01b038116811461103f575f80fd5b9392505050565b602080825260149082015273105cdcd95d08191bd95cc81b9bdd08195e1a5cdd60621b604082015260600190565b600181811c9082168061108857607f821691505b6020821081036110a657634e487b7160e01b5f52602260045260245ffd5b50919050565b634e487b7160e01b5f52603260045260245ffd5b634e487b7160e01b5f52601160045260245ffd5b5f600182016110e5576110e56110c0565b5060010190565b634e487b7160e01b5f52604160045260245ffd5b8082018082111561070b5761070b6110c0565b601f82111561115a57805f5260205f20601f840160051c810160208510156111385750805b601f840160051c820191505b81811015611157575f8155600101611144565b50505b505050565b815167ffffffffffffffff811115611179576111796110ec565b61118d816111878454611074565b84611113565b602080601f8311600181146111c0575f84156111a95750858301515b5f19600386901b1c1916600185901b178555611217565b5f85815260208120601f198616915b828110156111ee578886015182559484019460019091019084016111cf565b508582101561120b57878501515f19600388901b60f8161c191681555b505060018460011b0185555b505050505050565b84815261ffff8416602082015260606040820152816060820152818360808301375f818301608090810191909152601f909201601f19160101939250505056fea264697066735822122015746f6778de7fa91c5a00fb23819685af2f845f3bd4cb08f42984366a619cb964736f6c63430008180033",
        "nonce": "0x42",
        "chainId": "0x279f"
      },
      "additionalContracts": [],
      "isFixedGasLimit": false
    },
    {
      "hash": "0x8792ece4b386f47d9c1d3ff59fa3ac0920fda74de38c5abb4a5c6f03713fa868",
      "transactionType": "CREATE",
      "contractName": "NFTVault",
      "contractAddress": "0xaeb69e308a2580e48f0371fcd89ecae7f700775a",
      "function": null,
      "arguments": null,
      "transaction": {
        "from": "0x2c3a7d88cba76e1b231e969f8b11b73417f03a09",
        "gas": "0x139799",
        "value": "0x0",
        "input": "0x608060405234801561000f575f80fd5b50338061003557604051631e4fbdf760e01b81525f600482015260240160405180910390fd5b61003e81610048565b5060018055610097565b5f80546001600160a01b038381166001600160a01b0319831681178455604051919092169283917f8be0079c531659141344cd1fd0a4f28419497f9722a3daafe3b4186f6b6457e09190a35050565b611004806100a45f395ff3fe608060405234801561000f575f80fd5b50600436106100e5575f3560e01c806379d4f25711610088578063980d81c111610063578063980d81c114610304578063d5b9221b14610398578063f2fa7392146103ba578063f2fde38b146103cd575f80fd5b806379d4f257146101df5780638c371e1c146102d75780638da5cb5b146102ea575f80fd5b8063499b84dd116100c3578063499b84dd1461014d5780634c294d49146101a25780634f05cbd8146101b5578063715018a6146101d7575f80fd5b8063078e94ca146100e9578063150b7a02146100fe5780632b4380c51461013a575b5f80fd5b6100fc6100f7366004610db2565b6103e0565b005b61011c61010c366004610dff565b630a85bd0160e11b949350505050565b6040516001600160e01b031990911681526020015b60405180910390f35b6100fc610148366004610ed4565b610499565b61019261015b366004610ed4565b6001600160a01b039283165f9081526002602090815260408083209490951682529283528381209181529152206004015460ff1690565b6040519015158152602001610131565b6100fc6101b0366004610f0d565b610676565b6101926101c3366004610f4e565b60036020525f908152604090205460ff1681565b6100fc6109b9565b61028d6101ed366004610ed4565b6040805160a0810182525f80825260208201819052918101829052606081018290526080810191909152506001600160a01b038084165f90815260026020818152604080842087861685528252808420868552825292839020835160a0810185528154861681526001820154928101929092529182015490931691830191909152600381015460608301526004015460ff16151560808201529392505050565b6040805182516001600160a01b039081168252602080850151908301528383015116918101919091526060808301519082015260809182015115159181019190915260a001610131565b6100fc6102e5366004610f6e565b6109cc565b5f546040516001600160a01b039091168152602001610131565b61035f610312366004610ed4565b600260208181525f9485526040808620825293855283852090529083529120805460018201549282015460038301546004909301546001600160a01b039283169493919092169160ff1685565b604080516001600160a01b039687168152602081019590955292909416918301919091526060820152901515608082015260a001610131565b6101926103a6366004610f4e565b60046020525f908152604090205460ff1681565b6100fc6103c8366004610db2565b610c00565b6100fc6103db366004610f4e565b610cb5565b6103e8610cf2565b6001600160a01b03821661043a5760405162461bcd60e51b8152602060048201526014602482015273125b9d985b1a59081391950818dbdb9d1c9858dd60621b60448201526064015b60405180910390fd5b6001600160a01b0382165f81815260036020908152604091829020805460ff191685151590811790915591519182527f39921e5677c943b0b7f6c29ab86b823c5daa404cb1a0a7e470670595761803c791015b60405180910390a25050565b335f9081526004602052604090205460ff16806104bf57505f546001600160a01b031633145b6104db5760405162461bcd60e51b815260040161043190610fa6565b6104e3610d1e565b6001600160a01b038084165f9081526002602090815260408083209386168352928152828220848352905220600481015460ff166105545760405162461bcd60e51b815260206004820152600e60248201526d139195081b9bdd081cdd185ad95960921b6044820152606401610431565b6003818101546001600160a01b038681165f818152600260208181526040808420958b168085529582528084208a855290915280832080546001600160a01b03199081168255600182018590559281018054909316909255958101919091556004908101805460ff191690559351632142170760e11b8152309481019490945260248401526044830185905290916342842e0e906064015f604051808303815f87803b158015610602575f80fd5b505af1158015610614573d5f803e3d5ffd5b5050505082846001600160a01b0316866001600160a01b03167f9e4737e975f458331a69febe3c95a72685013e3334bda3d588f6a8107a8311008460405161065e91815260200190565b60405180910390a4505061067160018055565b505050565b335f9081526004602052604090205460ff168061069c57505f546001600160a01b031633145b6106b85760405162461bcd60e51b815260040161043190610fa6565b6106c0610d1e565b6001600160a01b0384165f9081526003602052604090205460ff166107275760405162461bcd60e51b815260206004820152601a60248201527f436f6c6c656374696f6e206e6f742077686974656c69737465640000000000006044820152606401610431565b6001600160a01b03821661076d5760405162461bcd60e51b815260206004820152600d60248201526c24b73b30b634b21037bbb732b960991b6044820152606401610431565b6001600160a01b038083165f90815260026020908152604080832093881683529281528282208683529052206004015460ff16156107de5760405162461bcd60e51b815260206004820152600e60248201526d105b1c9958591e481cdd185ad95960921b6044820152606401610431565b604051632142170760e11b81526001600160a01b038381166004830152306024830152604482018590528516906342842e0e906064015f604051808303815f87803b15801561082b575f80fd5b505af115801561083d573d5f803e3d5ffd5b505050506040518060a00160405280856001600160a01b03168152602001848152602001836001600160a01b031681526020018281526020016001151581525060025f846001600160a01b03166001600160a01b031681526020019081526020015f205f866001600160a01b03166001600160a01b031681526020019081526020015f205f8581526020019081526020015f205f820151815f015f6101000a8154816001600160a01b0302191690836001600160a01b03160217905550602082015181600101556040820151816002015f6101000a8154816001600160a01b0302191690836001600160a01b03160217905550606082015181600301556080820151816004015f6101000a81548160ff02191690831515021790555090505082846001600160a01b0316836001600160a01b03167feec9ba5bfbc4283796482d3f7c7e891a5375d4e02efefac262ba00280fc2608d846040516109a291815260200190565b60405180910390a46109b360018055565b50505050565b6109c1610cf2565b6109ca5f610d48565b565b335f9081526004602052604090205460ff16806109f257505f546001600160a01b031633145b610a0e5760405162461bcd60e51b815260040161043190610fa6565b610a16610d1e565b6001600160a01b038316610a5d5760405162461bcd60e51b815260206004820152600e60248201526d24b73b30b634b2103bb4b73732b960911b6044820152606401610431565b6001600160a01b038085165f9081526002602090815260408083209386168352928152828220848352905220600481015460ff16610ace5760405162461bcd60e51b815260206004820152600e60248201526d139195081b9bdd081cdd185ad95960921b6044820152606401610431565b6003818101546001600160a01b038781165f9081526002602081815260408084208a86168086529083528185208a865290925280842080546001600160a01b03199081168255600182018690559381018054909416909355958201929092556004908101805460ff191690559351632142170760e11b8152309481019490945290871660248401526044830185905290916342842e0e906064015f604051808303815f87803b158015610b7f575f80fd5b505af1158015610b91573d5f803e3d5ffd5b50505050836001600160a01b0316856001600160a01b0316876001600160a01b03167fa17fea5a60a5d96718e8bb88b07be33e42271a2e5446c825688c8d6416b47a7f8685604051610bed929190918252602082015260400190565b60405180910390a450506109b360018055565b610c08610cf2565b6001600160a01b038216610c5e5760405162461bcd60e51b815260206004820152601860248201527f496e76616c696420636f6e7472616374206164647265737300000000000000006044820152606401610431565b6001600160a01b0382165f81815260046020908152604091829020805460ff191685151590811790915591519182527f3213ab8ec2ed122402f038736b41878b69ae9f61f49a7edd0666bce891d29fc9910161048d565b610cbd610cf2565b6001600160a01b038116610ce657604051631e4fbdf760e01b81525f6004820152602401610431565b610cef81610d48565b50565b5f546001600160a01b031633146109ca5760405163118cdaa760e01b8152336004820152602401610431565b600260015403610d4157604051633ee5aeb560e01b815260040160405180910390fd5b6002600155565b5f80546001600160a01b038381166001600160a01b0319831681178455604051919092169283917f8be0079c531659141344cd1fd0a4f28419497f9722a3daafe3b4186f6b6457e09190a35050565b80356001600160a01b0381168114610dad575f80fd5b919050565b5f8060408385031215610dc3575f80fd5b610dcc83610d97565b915060208301358015158114610de0575f80fd5b809150509250929050565b634e487b7160e01b5f52604160045260245ffd5b5f805f8060808587031215610e12575f80fd5b610e1b85610d97565b9350610e2960208601610d97565b925060408501359150606085013567ffffffffffffffff80821115610e4c575f80fd5b818701915087601f830112610e5f575f80fd5b813581811115610e7157610e71610deb565b604051601f8201601f19908116603f01168101908382118183101715610e9957610e99610deb565b816040528281528a6020848701011115610eb1575f80fd5b826020860160208301375f60208483010152809550505050505092959194509250565b5f805f60608486031215610ee6575f80fd5b610eef84610d97565b9250610efd60208501610d97565b9150604084013590509250925092565b5f805f8060808587031215610f20575f80fd5b610f2985610d97565b935060208501359250610f3e60408601610d97565b9396929550929360600135925050565b5f60208284031215610f5e575f80fd5b610f6782610d97565b9392505050565b5f805f8060808587031215610f81575f80fd5b610f8a85610d97565b9350610f9860208601610d97565b9250610f3e60408601610d97565b6020808252600e908201526d139bdd08185d5d1a1bdc9a5e995960921b60408201526060019056fea264697066735822122042e4296bdc6f39606f2a6f24d52c297fdf153bc27ad94e4eb60beaa46c78e5ed64736f6c63430008180033",
        "nonce": "0x43",
        "chainId": "0x279f"
      },
      "additionalContracts": [],
      "isFixedGasLimit": false
    },
    {
      "hash": "0x5c535839b179bd03b35a0baea51eabdc330b971714aafb75897a3cde831c110e",
      "transactionType": "CREATE",
      "contractName": "Matchmaker",
      "contractAddress": "0x1e5152468537309bd797f6edc1fe112e98a09402",
      "function": null,
      "arguments": [
        "0x898bcA461cE3B7f0697e15Dd2209C673dae5fbe2",
        "0xAEB69e308A2580e48F0371FCD89EcAe7f700775a",
        "0x2880aB155794e7179c9eE2e38200202908C17B43"
      ],
      "transaction": {
        "from": "0x2c3a7d88cba76e1b231e969f8b11b73417f03a09",
        "gas": "0x3cc9d9",
        "value": "0x0",
        "input": "0x608060405234801562000010575f80fd5b506040516200367138038062003671833981016040819052620000339162000176565b60015f556001600160a01b038316620000865760405162461bcd60e51b815260206004820152601060248201526f496e76616c696420726567697374727960801b60448201526064015b60405180910390fd5b6001600160a01b038216620000ce5760405162461bcd60e51b815260206004820152600d60248201526c125b9d985b1a59081d985d5b1d609a1b60448201526064016200007d565b6001600160a01b038116620001175760405162461bcd60e51b815260206004820152600e60248201526d496e76616c6964206f7261636c6560901b60448201526064016200007d565b600180546001600160a01b039485166001600160a01b031991821617909155600280549385169382169390931790925560038054919093169116179055620001bd565b80516001600160a01b038116811462000171575f80fd5b919050565b5f805f6060848603121562000189575f80fd5b62000194846200015a565b9250620001a4602085016200015a565b9150620001b4604085016200015a565b90509250925092565b6134a680620001cb5f395ff3fe608060405234801561000f575f80fd5b5060043610610106575f3560e01c8063a18966051161009e578063cece3cd41161006e578063cece3cd41461023f578063d02c8cdf14610252578063d6913b3214610265578063dbfb7d811461026d578063f5d6ac9014610280575f80fd5b8063a1896605146101dd578063ab9bcfc014610205578063b8c06d0414610224578063bf725a841461022c575f80fd5b80634768d4ef116100d95780634768d4ef1461016e57806360c8b6c0146101975780638d3bf1b3146101aa578063979d7e86146101b2575f80fd5b806301fd19511461010a57806310a95ae3146101265780633d092b3d1461013b5780633ed6110d1461015b575b5f80fd5b61011360045481565b6040519081526020015b60405180910390f35b610139610134366004612c1a565b610293565b005b61014e610149366004612c1a565b61043e565b60405161011d9190612dc7565b610113610169366004612ea5565b61095a565b61018161017c366004612c1a565b610b60565b60405161011d9a99989796959493929190612ed5565b6101396101a5366004612fab565b611018565b610113607881565b6001546101c5906001600160a01b031681565b6040516001600160a01b03909116815260200161011d565b6101136101eb366004613027565b6001600160a01b03165f9081526006602052604090205490565b610113610213366004613027565b60066020525f908152604090205481565b6101396119c1565b61013961023a366004612c1a565b611e08565b61013961024d366004613040565b611f44565b610139610260366004612c1a565b6121df565b610113600581565b6002546101c5906001600160a01b031681565b6003546101c5906001600160a01b031681565b61029b6122af565b5f81815260056020526040812090600182015460ff1660048111156102c2576102c2612c31565b146103145760405162461bcd60e51b815260206004820181905260248201527f4d6174636820616c72656164792073746172746564206f7220736574746c656460448201526064015b60405180910390fd5b60788160190154610325919061308c565b42101561036c5760405162461bcd60e51b815260206004820152601560248201527413585d18da081b9bdd08195e1c1a5c9959081e595d605a1b604482015260640161030b565b60028054908201546003830154600480850154604051632b4380c560e01b81526001600160a01b0395861695632b4380c5956103b09590821694911692910161309f565b5f604051808303815f87803b1580156103c7575f80fd5b505af11580156103d9573d5f803e3d5ffd5b5050505060018101805460ff1916600417905560028101546001600160a01b03165f908152600660205260408082208290555183917f700135b4fe8746e2d2c85a9baa43c62887740aebfeb3a439f71a083fe5d5675991a25061043b60015f55565b50565b61044661295a565b5f8281526005602090815260409182902082516101408101909352805483526001810154909183019060ff16600481111561048357610483612c31565b600481111561049457610494612c31565b81526040805160c0808201835260028501546001600160a01b039081168352600386015481166020848101919091526004870154848601526005870154606080860191909152600688015460ff8082161515608080890191909152610100928390048216151560a0808a0191909152858b019890985288518088018a5260078c01548716815260088c01549096168686015260098b0154868a0152600a8b015486850152600b8b01548083161515918701919091529190910416151583860152858701929092528451600c8801805492830282018501909652938401818152919095019492939284928491908401828280156105ad57602002820191905f5260205f20905b815481526020019060010190808311610599575b505050505081526020016001820180548060200260200160405190810160405280929190818152602001828054801561063257602002820191905f5260205f20905f905b82829054906101000a900460ff16600281111561061057610610612c31565b8152602060019283018181049485019490930390920291018084116105f15790505b50505050508152602001600282018054806020026020016040519081016040528092919081815260200182805480156106aa57602002820191905f5260205f20905f905b825461010083900a900460070b81526020600f83018190049384019360010360089093019290920291018084116106765790505b505050505081526020016003820180548060200260200160405190810160405280929190818152602001828054801561072257602002820191905f5260205f20905f905b825461010083900a900460070b81526020600f83018190049384019360010360089093019290920291018084116106ee5790505b505050505081526020016004820154815250508152602001601182016040518060a00160405290815f820180548060200260200160405190810160405280929190818152602001828054801561079557602002820191905f5260205f20905b815481526020019060010190808311610781575b505050505081526020016001820180548060200260200160405190810160405280929190818152602001828054801561081a57602002820191905f5260205f20905f905b82829054906101000a900460ff1660028111156107f8576107f8612c31565b8152602060019283018181049485019490930390920291018084116107d95790505b505050505081526020016002820180548060200260200160405190810160405280929190818152602001828054801561089257602002820191905f5260205f20905f905b825461010083900a900460070b81526020600f830181900493840193600103600890930192909202910180841161085e5790505b505050505081526020016003820180548060200260200160405190810160405280929190818152602001828054801561090a57602002820191905f5260205f20905f905b825461010083900a900460070b81526020600f83018190049384019360010360089093019290920291018084116108d65790505b5050509183525050600491909101546020918201529082526016830154908201526017820154604082015260188201546001600160a01b0316606082015260199091015460809091015292915050565b5f6109636122af565b335f90815260066020526040902054156109b45760405162461bcd60e51b8152602060048201526012602482015271082d8e4cac2c8f240d2dc40c240dac2e8c6d60731b604482015260640161030b565b816109f25760405162461bcd60e51b815260206004820152600e60248201526d125b9d985b1a590818dbdb5b5a5d60921b604482015260640161030b565b60045f8154610a00906130c3565b9182905550600254604051634c294d4960e01b81526001600160a01b0387811660048301526024820187905233604483015260648201849052929350911690634c294d49906084015f604051808303815f87803b158015610a5f575f80fd5b505af1158015610a71573d5f803e3d5ffd5b5050505f8281526005602081815260408084208681556001808201805460ff19169055825160c081018452338082526001600160a01b038d168287018190528286018d9052606083018c90526080830184905260a09092018890526002840180546001600160a01b03199081168317909155600385018054909116909217909155600483018b90559482018990556006808301805461ffff191690921790915542601983015584865290925280842086905551909350909184917f18a47d8df22f178f89e665cc0fccf4ee175e91434c7b749c4a7607ffa4d33a679190a350610b5960015f55565b9392505050565b600560208181525f92835260409283902080546001820154855160c0808201885260028501546001600160a01b03908116835260038601548116838801526004860154838a015296850154606080840191909152600686015460ff8181161515608080870191909152610100928390048216151560a0808801919091528c518087018e5260078b01548d16815260088b0154909c168c8c015260098a01548c8e0152600a8a0154948c0194909452600b8901548083161515918c01919091529190910481161515898301528951600c88018054998a0282018501909b52918201888152959994169792969295949093928492849190840182828015610c8257602002820191905f5260205f20905b815481526020019060010190808311610c6e575b5050505050815260200160018201805480602002602001604051908101604052809291908181526020018280548015610d0757602002820191905f5260205f20905f905b82829054906101000a900460ff166002811115610ce557610ce5612c31565b815260206001928301818104948501949093039092029101808411610cc65790505b5050505050815260200160028201805480602002602001604051908101604052809291908181526020018280548015610d7f57602002820191905f5260205f20905f905b825461010083900a900460070b81526020600f8301819004938401936001036008909301929092029101808411610d4b5790505b5050505050815260200160038201805480602002602001604051908101604052809291908181526020018280548015610df757602002820191905f5260205f20905f905b825461010083900a900460070b81526020600f8301819004938401936001036008909301929092029101808411610dc35790505b5050505050815260200160048201548152505090806011016040518060a00160405290815f8201805480602002602001604051908101604052809291908181526020018280548015610e6657602002820191905f5260205f20905b815481526020019060010190808311610e52575b5050505050815260200160018201805480602002602001604051908101604052809291908181526020018280548015610eeb57602002820191905f5260205f20905f905b82829054906101000a900460ff166002811115610ec957610ec9612c31565b815260206001928301818104948501949093039092029101808411610eaa5790505b5050505050815260200160028201805480602002602001604051908101604052809291908181526020018280548015610f6357602002820191905f5260205f20905f905b825461010083900a900460070b81526020600f8301819004938401936001036008909301929092029101808411610f2f5790505b5050505050815260200160038201805480602002602001604051908101604052809291908181526020018280548015610fdb57602002820191905f5260205f20905f905b825461010083900a900460070b81526020600f8301819004938401936001036008909301929092029101808411610fa75790505b5050509183525050600491909101546020909101526016820154601783015460188401546019909401549293919290916001600160a01b0316908a565b6110206122af565b5f8681526005602052604090206002600182015460ff16600481111561104857611048612c31565b146110895760405162461bcd60e51b815260206004820152601160248201527013585d18da081b9bdd081cdd185c9d1959607a1b604482015260640161030b565b80601701544210156110cf5760405162461bcd60e51b815260206004820152600f60248201526e13585d18da081b9bdd08195b991959608a1b604482015260640161030b565b60028101546001600160a01b03163314806110f6575060078101546001600160a01b031633145b6111315760405162461bcd60e51b815260206004820152600c60248201526b2737ba103090383630bcb2b960a11b604482015260640161030b565b5f868686868660405160200161114b9594939291906130db565b60408051808303601f19018152919052805160209091012060028301549091506001600160a01b03163314801561121257600583015482146111c05760405162461bcd60e51b815260206004820152600e60248201526d125b9d985b1a59081c995d99585b60921b604482015260640161030b565b6006830154610100900460ff161561120d5760405162461bcd60e51b815260206004820152601060248201526f105b1c9958591e481c995d99585b195960821b604482015260640161030b565b6112a3565b600a83015482146112565760405162461bcd60e51b815260206004820152600e60248201526d125b9d985b1a59081c995d99585b60921b604482015260640161030b565b600b830154610100900460ff16156112a35760405162461bcd60e51b815260206004820152601060248201526f105b1c9958591e481c995d99585b195960821b604482015260640161030b565b600154604051639f11194f60e01b81525f9182916001600160a01b0390911690639f11194f906112d9908d908d90600401613142565b6040805180830381865afa1580156112f3573d5f803e3d5ffd5b505050506040513d601f19601f820116820180604052508101906113179190613188565b915091508161135c5760405162461bcd60e51b8152602060048201526011602482015270496e76616c696420706f7274666f6c696f60781b604482015260640161030b565b6113978888808060200260200160405190810160405280939291908181526020018383602002808284375f920191909152506122d792505050565b6113d35760405162461bcd60e51b815260206004820152600d60248201526c496e76616c696420726f6c657360981b604482015260640161030b565b60408051600780825261010082019092525f916020820160e080368337505060408051600780825261010082019092529293505f9291506020820160e0803683370190505090505f5b600781101561161c576001545f906001600160a01b0316632cc3ce808f8f8581811061144a5761144a6131c6565b905060200201356040518263ffffffff1660e01b815260040161146f91815260200190565b5f60405180830381865afa158015611489573d5f803e3d5ffd5b505050506040513d5f823e601f3d908101601f191682016040526114b09190810190613234565b60035481519192505f916001600160a01b039091169063a4ae35e0906114d86078600561308c565b6114e390603c61308c565b6040516001600160e01b031960e085901b16815260048101929092526024820152604401608060405180830381865afa158015611522573d5f803e3d5ffd5b505050506040513d601f19601f820116820180604052508101906115469190613337565b9050805f015185848151811061155e5761155e6131c6565b60079290920b60209283029190910190910152600354825160405163052571af60e51b81526004810191909152600560248201525f916001600160a01b03169063a4ae35e090604401608060405180830381865afa1580156115c2573d5f803e3d5ffd5b505050506040513d601f19601f820116820180604052508101906115e69190613337565b9050805f01518585815181106115fe576115fe6131c6565b60079290920b6020928302919091019091015250505060010161141c565b5060408051600780825261010082019092525f916020820160e0803683370190505090505f5b60078110156116ac57611687848281518110611660576116606131c6565b602002602001015184838151811061167a5761167a6131c6565b602002602001015161239a565b828281518110611699576116996131c6565b6020908102919091010152600101611642565b505f6116ea828d8d808060200260200160405190810160405280939291908181526020018383602002808284375f9201919091525061241d92505050565b9050861561181b576040518060a001604052808f8f808060200260200160405190810160405280939291908181526020018383602002808284375f81840152601f19601f8201169050808301925050505050505081526020018d8d808060200260200160405190810160405280939291908181526020018383602002808284375f92019190915250505090825250602080820187905260408201869052606090910183905281518051600c8d01926117a6928492910190612a6a565b5060208281015180516117bf9260018501920190612ab3565b50604082015180516117db916002840191602090910190612b5d565b50606082015180516117f7916003840191602090910190612b5d565b506080919091015160049091015560068901805461ff001916610100179055611940565b6040518060a001604052808f8f808060200260200160405190810160405280939291908181526020018383602002808284375f81840152601f19601f8201169050808301925050505050505081526020018d8d808060200260200160405190810160405280939291908181526020018383602002808284375f9201919091525050509082525060208082018790526040820186905260609091018390528151805160118d01926118cf928492910190612a6a565b5060208281015180516118e89260018501920190612ab3565b5060408201518051611904916002840191602090910190612b5d565b5060608201518051611920916003840191602090910190612b5d565b5060809190910151600490910155600b8901805461ff0019166101001790555b336001600160a01b03168f7f672e5933f8d781e4eb1872b8bd9f8587e3bea4755364cee5ea569ea2dee5787660405160405180910390a36006890154610100900460ff1680156119995750600b890154610100900460ff165b156119a7576119a78f61250b565b5050505050505050506119b960015f55565b505050505050565b6119c96122af565b335f9081526006602052604081205490819003611a1a5760405162461bcd60e51b815260206004820152600f60248201526e09cde40c2c6e8d2ecca40dac2e8c6d608b1b604482015260640161030b565b5f81815260056020526040812090600182015460ff166004811115611a4157611a41612c31565b03611b6c5760788160190154611a57919061308c565b421015611a9a5760405162461bcd60e51b815260206004820152601160248201527013585d18da081b9bdd08195e1c1a5c9959607a1b604482015260640161030b565b60028101546001600160a01b03163303611b2f5760028054908201546003830154600480850154604051632b4380c560e01b81526001600160a01b0395861695632b4380c595611af29590821694911692910161309f565b5f604051808303815f87803b158015611b09575f80fd5b505af1158015611b1b573d5f803e3d5ffd5b5050505060018101805460ff191660041790555b335f908152600660205260408082208290555183917f700135b4fe8746e2d2c85a9baa43c62887740aebfeb3a439f71a083fe5d5675991a2611dfb565b60018082015460ff166004811115611b8657611b86612c31565b03611db357611b97607860026133ac565b8160190154611ba6919061308c565b421015611be95760405162461bcd60e51b815260206004820152601160248201527013585d18da081b9bdd08195e1c1a5c9959607a1b604482015260640161030b565b60028101546001600160a01b03163303611c8b5760028054908201546003830154600480850154604051632b4380c560e01b81526001600160a01b0395861695632b4380c595611c419590821694911692910161309f565b5f604051808303815f87803b158015611c58575f80fd5b505af1158015611c6a573d5f803e3d5ffd5b50505060028201546001600160a01b03165f90815260066020526040812055505b60078101546001600160a01b03163303611d2d57600254600782015460088301546009840154604051632b4380c560e01b81526001600160a01b0394851694632b4380c594611ce3949082169391169160040161309f565b5f604051808303815f87803b158015611cfa575f80fd5b505af1158015611d0c573d5f803e3d5ffd5b50505060078201546001600160a01b03165f90815260066020526040812055505b60028101546001600160a01b03165f90815260066020526040902054158015611d6f575060078101546001600160a01b03165f90815260066020526040902054155b15611d845760018101805460ff191660041790555b60405182907f700135b4fe8746e2d2c85a9baa43c62887740aebfeb3a439f71a083fe5d56759905f90a2611dfb565b60405162461bcd60e51b815260206004820152601960248201527f4d61746368207374617465206e6f7420636c65617261626c6500000000000000604482015260640161030b565b5050611e0660015f55565b565b611e106122af565b5f81815260056020526040902060018082015460ff166004811115611e3757611e37612c31565b14611e765760405162461bcd60e51b815260206004820152600f60248201526e4d61746368206e6f7420726561647960881b604482015260640161030b565b60028101546001600160a01b0316331480611e9d575060078101546001600160a01b031633145b611ed85760405162461bcd60e51b815260206004820152600c60248201526b2737ba103090383630bcb2b960a11b604482015260640161030b565b60018101805460ff191660021790554260168201819055611efb9060789061308c565b6017820155601681015460405190815282907fc21a199ff4f6a91b067a8a76292ba2e24c5202ddfbc8f5f5a68823666a51e6e99060200160405180910390a25061043b60015f55565b611f4c6122af565b335f9081526006602052604090205415611f9d5760405162461bcd60e51b8152602060048201526012602482015271082d8e4cac2c8f240d2dc40c240dac2e8c6d60731b604482015260640161030b565b80611fdb5760405162461bcd60e51b815260206004820152600e60248201526d125b9d985b1a590818dbdb5b5a5d60921b604482015260640161030b565b5f84815260056020526040812090600182015460ff16600481111561200257612002612c31565b146120455760405162461bcd60e51b81526020600482015260136024820152724d61746368206e6f7420617661696c61626c6560681b604482015260640161030b565b6002810154336001600160a01b039091160361209a5760405162461bcd60e51b815260206004820152601460248201527321b0b73737ba10383630bc903cb7bab939b2b63360611b604482015260640161030b565b600254604051634c294d4960e01b81526001600160a01b038681166004830152602482018690523360448301526064820188905290911690634c294d49906084015f604051808303815f87803b1580156120f2575f80fd5b505af1158015612104573d5f803e3d5ffd5b50506040805160c081018252338082526001600160a01b03891660208084018290528385018a9052606084018990526001608085018190525f60a09095018590526007890180546001600160a01b0319908116861790915560088a018054909116909317909255600988018a9055600a8801899055600b8801805461ffff191683179055878201805460ff1916909217909155818352600690528282208a905591519193508892507f50d6e5d288766a7340b6110b6738cac822c48c128a47399df2fad303041f8d5091a3506121d960015f55565b50505050565b6121e76122af565b5f81815260056020526040902060028101546001600160a01b031633146122505760405162461bcd60e51b815260206004820152601760248201527f4f6e6c792063726561746f722063616e2063616e63656c000000000000000000604482015260640161030b565b5f600182015460ff16600481111561226a5761226a612c31565b1461036c5760405162461bcd60e51b815260206004820152601560248201527413585d18da08185b1c9958591e481cdd185c9d1959605a1b604482015260640161030b565b60025f54036122d157604051633ee5aeb560e01b815260040160405180910390fd5b60025f55565b5f81516007146122e857505f919050565b5f805f5b8451811015612381576002858281518110612309576123096131c6565b6020026020010151600281111561232257612322612c31565b036123395782612331816130c3565b935050612379565b600185828151811061234d5761234d6131c6565b6020026020010151600281111561236657612366612c31565b036123795781612375816130c3565b9250505b6001016122ec565b508160011480156123925750806001145b949350505050565b5f808360070b136123ed5760405162461bcd60e51b815260206004820152601c60248201527f5374617274207072696365206d75737420626520706f73697469766500000000604482015260640161030b565b5f8360070b8360070b61240091906133c3565b9050600784900b612413612710836133e2565b6123929190613411565b5f81518351146124615760405162461bcd60e51b815260206004820152600f60248201526e098cadccee8d040dad2e6dac2e8c6d608b1b604482015260640161030b565b82516007146124a75760405162461bcd60e51b81526020600482015260126024820152714d757374206861766520372061737365747360701b604482015260640161030b565b505f805b8351811015612504576124f08482815181106124c9576124c96131c6565b60200260200101518483815181106124e3576124e36131c6565b60200260200101516128c7565b6124fa9083613449565b91506001016124ab565b5092915050565b5f8181526005602052604081206010810154601582015491929161252f91906128e0565b6001838101805460ff1916600417905590915060ff8216900361265a576002808301546018840180546001600160a01b0319166001600160a01b0392831690811790915591546003850154600480870154604051632b4380c560e01b815293851695632b4380c5956125a595919416920161309f565b5f604051808303815f87803b1580156125bc575f80fd5b505af11580156125ce573d5f803e3d5ffd5b5050600280546007860154918601546008870154600988015460405163230dc78760e21b81526001600160a01b03958616600482015292851660248401529084166044830152606482015291169250638c371e1c91506084015b5f604051808303815f87803b15801561263f575f80fd5b505af1158015612651573d5f803e3d5ffd5b50505050612845565b8060ff1660020361274f5760078201546018830180546001600160a01b0319166001600160a01b0392831690811790915560025460088501546009860154604051632b4380c560e01b815292851694632b4380c5946126c2949093909116919060040161309f565b5f604051808303815f87803b1580156126d9575f80fd5b505af11580156126eb573d5f803e3d5ffd5b505060028054908501546007860154600387015460048089015460405163230dc78760e21b81526001600160a01b039586169281019290925292841660248201529083166044820152606481019190915291169250638c371e1c9150608401612628565b6018820180546001600160a01b031916905560028054908301546003840154600480860154604051632b4380c560e01b81526001600160a01b0395861695632b4380c5956127a59590821694911692910161309f565b5f604051808303815f87803b1580156127bc575f80fd5b505af11580156127ce573d5f803e3d5ffd5b5050600254600785015460088601546009870154604051632b4380c560e01b81526001600160a01b039485169650632b4380c5955061281794938416939092169160040161309f565b5f604051808303815f87803b15801561282e575f80fd5b505af1158015612840573d5f803e3d5ffd5b505050505b60028201546001600160a01b039081165f90815260066020908152604080832083905560078601548416835280832092909255601885015460108601546015870154845191825292810192909252825193169286927f1fc410bdd49f77d51c03f857ea2d53d582a0e2b9a693caa99798dc76172bdf65928290030190a3505050565b5f806128d28361290a565b9050606461241382866133e2565b5f818313156128f157506001612904565b8282131561290157506002612904565b505f5b92915050565b5f600282600281111561291f5761291f612c31565b0361292c575060c8919050565b600182600281111561294057612940612c31565b0361294d57506096919050565b506064919050565b919050565b6040805161014081019091525f808252602082019081526040805160c0810182525f8082526020828101829052928201819052606082018190526080820181905260a082015291019081526040805160c0810182525f8082526020828101829052928201819052606082018190526080820181905260a08201529101908152602001612a0d6040518060a00160405280606081526020016060815260200160608152602001606081526020015f81525090565b8152602001612a436040518060a00160405280606081526020016060815260200160608152602001606081526020015f81525090565b81526020015f81526020015f81526020015f6001600160a01b031681526020015f81525090565b828054828255905f5260205f20908101928215612aa3579160200282015b82811115612aa3578251825591602001919060010190612a88565b50612aaf929150612c06565b5090565b828054828255905f5260205f2090601f01602090048101928215612aa3579160200282015f5b83821115612b2457835183826101000a81548160ff02191690836002811115612b0457612b04612c31565b021790555092602001926001016020815f01049283019260010302612ad9565b8015612b505782816101000a81549060ff02191690556001016020815f01049283019260010302612b24565b5050612aaf929150612c06565b828054828255905f5260205f2090600301600490048101928215612aa3579160200282015f5b83821115612bd257835183826101000a81548167ffffffffffffffff021916908360070b67ffffffffffffffff1602179055509260200192600801602081600701049283019260010302612b83565b8015612b505782816101000a81549067ffffffffffffffff0219169055600801602081600701049283019260010302612bd2565b5b80821115612aaf575f8155600101612c07565b5f60208284031215612c2a575f80fd5b5035919050565b634e487b7160e01b5f52602160045260245ffd5b60058110612c5557612c55612c31565b9052565b80516001600160a01b03908116835260208083015190911690830152604080820151908301526060808201519083015260808082015115159083015260a0908101511515910152565b60038110612c5557612c55612c31565b5f815180845260208085019450602084015f5b83811015612ce857612cd8878351612ca2565b9582019590820190600101612cc5565b509495945050505050565b5f815180845260208085019450602084015f5b83811015612ce857815160070b87529582019590820190600101612d06565b805160a080845281519084018190525f916020919082019060c0860190845b81811015612d6057835183529284019291840191600101612d44565b5050602085015192508581036020870152612d7b8184612cb2565b9250505060408301518482036040860152612d968282612cf3565b91505060608301518482036060860152612db08282612cf3565b915050608083015160808501528091505092915050565b60208152815160208201525f6020830151612de56040840182612c45565b506040830151612df86060840182612c59565b506060830151610120612e0d81850183612c59565b60808501519150610280806101e0860152612e2c6102a0860184612d25565b925060a0860151601f1986850301610200870152612e4a8482612d25565b93505060c086015161022086015260e0860151610240860152610100860151612e7f6102608701826001600160a01b03169052565b5094015192909301919091525090565b80356001600160a01b0381168114612955575f80fd5b5f805f60608486031215612eb7575f80fd5b612ec084612e8f565b95602085013595506040909401359392505050565b5f6102808c8352612ee9602084018d612c45565b612ef6604084018c612c59565b612f0461010084018b612c59565b806101c0840152612f178184018a612d25565b90508281036101e0840152612f2c8189612d25565b61020084019790975250506102208101939093526001600160a01b0391909116610240830152610260909101529695505050505050565b5f8083601f840112612f73575f80fd5b50813567ffffffffffffffff811115612f8a575f80fd5b6020830191508360208260051b8501011115612fa4575f80fd5b9250929050565b5f805f805f8060808789031215612fc0575f80fd5b86359550602087013567ffffffffffffffff80821115612fde575f80fd5b612fea8a838b01612f63565b90975095506040890135915080821115613002575f80fd5b5061300f89828a01612f63565b979a9699509497949695606090950135949350505050565b5f60208284031215613037575f80fd5b610b5982612e8f565b5f805f8060808587031215613053575f80fd5b8435935061306360208601612e8f565b93969395505050506040820135916060013590565b634e487b7160e01b5f52601160045260245ffd5b8082018082111561290457612904613078565b6001600160a01b039384168152919092166020820152604081019190915260600190565b5f600182016130d4576130d4613078565b5060010190565b5f6001600160fb1b038611156130ef575f80fd5b8560051b808884378201855f5b8681101561313057813560038110613112575f80fd5b61311c8482612ca2565b5060209283019291909101906001016130fc565b50509283525050602001949350505050565b602080825281018290525f6001600160fb1b03831115613160575f80fd5b8260051b80856040850137919091016040019392505050565b80518015158114612955575f80fd5b5f8060408385031215613199575f80fd5b6131a283613179565b9150602083015190509250929050565b634e487b7160e01b5f52604160045260245ffd5b634e487b7160e01b5f52603260045260245ffd5b6040516080810167ffffffffffffffff811182821017156131fd576131fd6131b2565b60405290565b604051601f8201601f1916810167ffffffffffffffff8111828210171561322c5761322c6131b2565b604052919050565b5f6020808385031215613245575f80fd5b825167ffffffffffffffff8082111561325c575f80fd5b908401906080828703121561326f575f80fd5b6132776131da565b825181528383015161ffff8116811461328e575f80fd5b8185015261329e60408401613179565b60408201526060830151828111156132b4575f80fd5b80840193505086601f8401126132c8575f80fd5b8251828111156132da576132da6131b2565b6132ec601f8201601f19168601613203565b92508083528785828601011115613301575f80fd5b5f5b8181101561331e578481018601518482018701528501613303565b505f908301909401939093526060830152509392505050565b5f60808284031215613347575f80fd5b61334f6131da565b82518060070b811461335f575f80fd5b8152602083015167ffffffffffffffff8116811461337b575f80fd5b60208201526040830151600381900b8114613394575f80fd5b60408201526060928301519281019290925250919050565b808202811582820484141761290457612904613078565b8181035f83128015838313168383128216171561250457612504613078565b8082025f8212600160ff1b841416156133fd576133fd613078565b818105831482151761290457612904613078565b5f8261342b57634e487b7160e01b5f52601260045260245ffd5b600160ff1b82145f198414161561344457613444613078565b500590565b8082018281125f83128015821682158216171561346857613468613078565b50509291505056fea264697066735822122032cd9a2e027ab67ee4782e4fed4cc0180b2ddd11dda1e84bfe843af8472e80fb64736f6c63430008180033000000000000000000000000898bca461ce3b7f0697e15dd2209c673dae5fbe2000000000000000000000000aeb69e308a2580e48f0371fcd89ecae7f700775a0000000000000000000000002880ab155794e7179c9ee2e38200202908c17b43",
        "nonce": "0x44",
        "chainId": "0x279f"
      },
      "additionalContracts": [],
      "isFixedGasLimit": false
    },
    {
      "hash": "0xaca4468a2fd5c103842233aed2ad677a64774b67e654801983a15bf24eb1a67e",
      "transactionType": "CREATE",
      "contractName": "ClapoNFT",
      "contractAddress": "0x3b5a097c560636d5090266d5cbf5578b9940543f",
      "function": null,
      "arguments": null,
      "transaction": {
        "from": "0x2c3a7d88cba76e1b231e969f8b11b73417f03a09",
        "gas": "0x1554a6",
        "value": "0x0",
        "input": "0x608060405234801562000010575f80fd5b50336040518060400160405280600e81526020016d10db185c1bc811d85b594813919560921b81525060405180604001604052806005815260200164434c41504f60d81b815250815f9081620000679190620001a8565b506001620000768282620001a8565b5050506001600160a01b038116620000a757604051631e4fbdf760e01b81525f600482015260240160405180910390fd5b620000b281620000b9565b5062000274565b600680546001600160a01b038381166001600160a01b0319831681179093556040519116919082907f8be0079c531659141344cd1fd0a4f28419497f9722a3daafe3b4186f6b6457e0905f90a35050565b634e487b7160e01b5f52604160045260245ffd5b600181811c908216806200013357607f821691505b6020821081036200015257634e487b7160e01b5f52602260045260245ffd5b50919050565b601f821115620001a357805f5260205f20601f840160051c810160208510156200017f5750805b601f840160051c820191505b81811015620001a0575f81556001016200018b565b50505b505050565b81516001600160401b03811115620001c457620001c46200010a565b620001dc81620001d584546200011e565b8462000158565b602080601f83116001811462000212575f8415620001fa5750858301515b5f19600386901b1c1916600185901b1785556200026c565b5f85815260208120601f198616915b82811015620002425788860151825594840194600190910190840162000221565b50858210156200026057878501515f19600388901b60f8161c191681555b505060018460011b0185555b505050505050565b61110c80620002825f395ff3fe608060405234801561000f575f80fd5b506004361061011b575f3560e01c80636a627842116100a9578063a22cb4651161006e578063a22cb46514610241578063b88d4fde14610254578063c87b56dd14610267578063e985e9c51461027a578063f2fde38b1461028d575f80fd5b80636a627842146101fa57806370a082311461020d578063715018a6146102205780638da5cb5b1461022857806395d89b4114610239575f80fd5b8063095ea7b3116100ef578063095ea7b31461019957806323b872dd146101ae57806342842e0e146101c157806343508b05146101d45780636352211e146101e7575f80fd5b80629a9b7b1461011f57806301ffc9a71461013657806306fdde0314610159578063081812fc1461016e575b5f80fd5b6007545b6040519081526020015b60405180910390f35b610149610144366004610d7c565b6102a0565b604051901515815260200161012d565b6101616102f1565b60405161012d9190610de4565b61018161017c366004610df6565b610380565b6040516001600160a01b03909116815260200161012d565b6101ac6101a7366004610e28565b6103a7565b005b6101ac6101bc366004610e50565b6103b6565b6101ac6101cf366004610e50565b610444565b6101ac6101e2366004610e28565b610463565b6101816101f5366004610df6565b610496565b610123610208366004610e89565b6104a0565b61012361021b366004610e89565b6104c3565b6101ac610508565b6006546001600160a01b0316610181565b61016161051b565b6101ac61024f366004610ea2565b61052a565b6101ac610262366004610eef565b610535565b610161610275366004610df6565b61054d565b610149610288366004610fc4565b6105be565b6101ac61029b366004610e89565b6105eb565b5f6001600160e01b031982166380ac58cd60e01b14806102d057506001600160e01b03198216635b5e139f60e01b145b806102eb57506301ffc9a760e01b6001600160e01b03198316145b92915050565b60605f80546102ff90610ff5565b80601f016020809104026020016040519081016040528092919081815260200182805461032b90610ff5565b80156103765780601f1061034d57610100808354040283529160200191610376565b820191905f5260205f20905b81548152906001019060200180831161035957829003601f168201915b5050505050905090565b5f61038a82610628565b505f828152600460205260409020546001600160a01b03166102eb565b6103b2828233610660565b5050565b6001600160a01b0382166103e457604051633250574960e11b81525f60048201526024015b60405180910390fd5b5f6103f083833361066d565b9050836001600160a01b0316816001600160a01b03161461043e576040516364283d7b60e01b81526001600160a01b03808616600483015260248201849052821660448201526064016103db565b50505050565b61045e83838360405180602001604052805f815250610535565b505050565b5f5b8181101561045e57600780545f918261047d8361102d565b91905055905061048d848261075f565b50600101610465565b5f6102eb82610628565b600780545f91829190826104b38361102d565b9190505590506102eb838261075f565b5f6001600160a01b0382166104ed576040516322718ad960e21b81525f60048201526024016103db565b506001600160a01b03165f9081526003602052604090205490565b610510610778565b6105195f6107a5565b565b6060600180546102ff90610ff5565b6103b23383836107f6565b6105408484846103b6565b61043e3385858585610894565b606061055882610628565b505f61056e60408051602081019091525f815290565b90505f81511161058c5760405180602001604052805f8152506105b7565b80610596846109bc565b6040516020016105a7929190611051565b6040516020818303038152906040525b9392505050565b6001600160a01b039182165f90815260056020908152604080832093909416825291909152205460ff1690565b6105f3610778565b6001600160a01b03811661061c57604051631e4fbdf760e01b81525f60048201526024016103db565b610625816107a5565b50565b5f818152600260205260408120546001600160a01b0316806102eb57604051637e27328960e01b8152600481018490526024016103db565b61045e8383836001610a4c565b5f828152600260205260408120546001600160a01b039081169083161561069957610699818486610b50565b6001600160a01b038116156106d3576106b45f855f80610a4c565b6001600160a01b0381165f90815260036020526040902080545f190190555b6001600160a01b03851615610701576001600160a01b0385165f908152600360205260409020805460010190555b5f8481526002602052604080822080546001600160a01b0319166001600160a01b0389811691821790925591518793918516917fddf252ad1be2c89b69c2b068fc378daa952ba7f163c4a11628f55a4df523b3ef91a4949350505050565b6103b2828260405180602001604052805f815250610bb4565b6006546001600160a01b031633146105195760405163118cdaa760e01b81523360048201526024016103db565b600680546001600160a01b038381166001600160a01b0319831681179093556040519116919082907f8be0079c531659141344cd1fd0a4f28419497f9722a3daafe3b4186f6b6457e0905f90a35050565b6001600160a01b03821661082857604051630b61174360e31b81526001600160a01b03831660048201526024016103db565b6001600160a01b038381165f81815260056020908152604080832094871680845294825291829020805460ff191686151590811790915591519182527f17307eab39ab6107e8899845ad3d59bd9653f200f220920489ca2b5937696c31910160405180910390a3505050565b6001600160a01b0383163b156109b557604051630a85bd0160e11b81526001600160a01b0384169063150b7a02906108d690889088908790879060040161107f565b6020604051808303815f875af1925050508015610910575060408051601f3d908101601f1916820190925261090d918101906110bb565b60015b610977573d80801561093d576040519150601f19603f3d011682016040523d82523d5f602084013e610942565b606091505b5080515f0361096f57604051633250574960e11b81526001600160a01b03851660048201526024016103db565b805160208201fd5b6001600160e01b03198116630a85bd0160e11b146109b357604051633250574960e11b81526001600160a01b03851660048201526024016103db565b505b5050505050565b60605f6109c883610bcb565b60010190505f8167ffffffffffffffff8111156109e7576109e7610edb565b6040519080825280601f01601f191660200182016040528015610a11576020820181803683370190505b5090508181016020015b5f19016f181899199a1a9b1b9c1cb0b131b232b360811b600a86061a8153600a8504945084610a1b57509392505050565b8080610a6057506001600160a01b03821615155b15610b21575f610a6f84610628565b90506001600160a01b03831615801590610a9b5750826001600160a01b0316816001600160a01b031614155b8015610aae5750610aac81846105be565b155b15610ad75760405163a9fbf51f60e01b81526001600160a01b03841660048201526024016103db565b8115610b1f5783856001600160a01b0316826001600160a01b03167f8c5be1e5ebec7d5bd14f71427d1e84f3dd0314c0f7b2291e5b200ac8c7c3b92560405160405180910390a45b505b50505f90815260046020526040902080546001600160a01b0319166001600160a01b0392909216919091179055565b610b5b838383610ca2565b61045e576001600160a01b038316610b8957604051637e27328960e01b8152600481018290526024016103db565b60405163177e802f60e01b81526001600160a01b0383166004820152602481018290526044016103db565b610bbe8383610d06565b61045e335f858585610894565b5f8072184f03e93ff9f4daa797ed6e38ed64bf6a1f0160401b8310610c095772184f03e93ff9f4daa797ed6e38ed64bf6a1f0160401b830492506040015b6d04ee2d6d415b85acef81000000008310610c35576d04ee2d6d415b85acef8100000000830492506020015b662386f26fc100008310610c5357662386f26fc10000830492506010015b6305f5e1008310610c6b576305f5e100830492506008015b6127108310610c7f57612710830492506004015b60648310610c91576064830492506002015b600a83106102eb5760010192915050565b5f6001600160a01b03831615801590610cfe5750826001600160a01b0316846001600160a01b03161480610cdb5750610cdb84846105be565b80610cfe57505f828152600460205260409020546001600160a01b038481169116145b949350505050565b6001600160a01b038216610d2f57604051633250574960e11b81525f60048201526024016103db565b5f610d3b83835f61066d565b90506001600160a01b0381161561045e576040516339e3563760e11b81525f60048201526024016103db565b6001600160e01b031981168114610625575f80fd5b5f60208284031215610d8c575f80fd5b81356105b781610d67565b5f5b83811015610db1578181015183820152602001610d99565b50505f910152565b5f8151808452610dd0816020860160208601610d97565b601f01601f19169290920160200192915050565b602081525f6105b76020830184610db9565b5f60208284031215610e06575f80fd5b5035919050565b80356001600160a01b0381168114610e23575f80fd5b919050565b5f8060408385031215610e39575f80fd5b610e4283610e0d565b946020939093013593505050565b5f805f60608486031215610e62575f80fd5b610e6b84610e0d565b9250610e7960208501610e0d565b9150604084013590509250925092565b5f60208284031215610e99575f80fd5b6105b782610e0d565b5f8060408385031215610eb3575f80fd5b610ebc83610e0d565b915060208301358015158114610ed0575f80fd5b809150509250929050565b634e487b7160e01b5f52604160045260245ffd5b5f805f8060808587031215610f02575f80fd5b610f0b85610e0d565b9350610f1960208601610e0d565b925060408501359150606085013567ffffffffffffffff80821115610f3c575f80fd5b818701915087601f830112610f4f575f80fd5b813581811115610f6157610f61610edb565b604051601f8201601f19908116603f01168101908382118183101715610f8957610f89610edb565b816040528281528a6020848701011115610fa1575f80fd5b826020860160208301375f60208483010152809550505050505092959194509250565b5f8060408385031215610fd5575f80fd5b610fde83610e0d565b9150610fec60208401610e0d565b90509250929050565b600181811c9082168061100957607f821691505b60208210810361102757634e487b7160e01b5f52602260045260245ffd5b50919050565b5f6001820161104a57634e487b7160e01b5f52601160045260245ffd5b5060010190565b5f8351611062818460208801610d97565b835190830190611076818360208801610d97565b01949350505050565b6001600160a01b03858116825284166020820152604081018390526080606082018190525f906110b190830184610db9565b9695505050505050565b5f602082840312156110cb575f80fd5b81516105b781610d6756fea26469706673582212203eecd2c9a5bceb81d018f8b65cc945b0cab1e697128373f7c4a4d6611f57e53064736f6c63430008180033",
        "nonce": "0x45",
        "chainId": "0x279f"
      },
      "additionalContracts": [],
      "isFixedGasLimit": false
    },
    {
      "hash": "0x9ba2758fc274b4905eea02b664899321e17c7cfee5866ee8d6805131412098f4",
      "transactionType": "CALL",
      "contractName": "NFTVault",
      "contractAddress": "0xaeb69e308a2580e48f0371fcd89ecae7f700775a",
      "function": "setWhitelistedCollection(address,bool)",
      "arguments": [
        "0x3B5a097c560636D5090266d5cBf5578B9940543F",
        "true"
      ],
      "transaction": {
        "from": "0x2c3a7d88cba76e1b231e969f8b11b73417f03a09",
        "to": "0xaeb69e308a2580e48f0371fcd89ecae7f700775a",
        "gas": "0x11137",
        "value": "0x0",
        "input": "0x078e94ca0000000000000000000000003b5a097c560636d5090266d5cbf5578b9940543f0000000000000000000000000000000000000000000000000000000000000001",
        "nonce": "0x46",
        "chainId": "0x279f"
      },
      "additionalContracts": [],
      "isFixedGasLimit": false
    },
    {
      "hash": "0xc837b2a33e9148f7ad1a413d63e81154560486842d739d84eafa6b03e9c24052",
      "transactionType": "CALL",
      "contractName": "NFTVault",
      "contractAddress": "0xaeb69e308a2580e48f0371fcd89ecae7f700775a",
      "function": "setAuthorizedContract(address,bool)",
      "arguments": [
        "0x1E5152468537309Bd797f6EDc1fe112e98a09402",
        "true"
      ],
      "transaction": {
        "from": "0x2c3a7d88cba76e1b231e969f8b11b73417f03a09",
        "to": "0xaeb69e308a2580e48f0371fcd89ecae7f700775a",
        "gas": "0x10253",
        "value": "0x0",
        "input": "0xf2fa73920000000000000000000000001e5152468537309bd797f6edc1fe112e98a094020000000000000000000000000000000000000000000000000000000000000001",
        "nonce": "0x47",
        "chainId": "0x279f"
      },
      "additionalContracts": [],
      "isFixedGasLimit": false
    },
    {
      "hash": "0xf49421d457934c5fc7e48991b98bd7b2aa69738f6bc2cc4d29cc7ad0b87d8160",
      "transactionType": "CALL",
      "contractName": "AssetRegistry",
      "contractAddress": "0x898bca461ce3b7f0697e15dd2209c673dae5fbe2",
      "function": "addAsset(bytes32,bytes32,uint16,string)",
      "arguments": [
        "0xe98e2830be1a7e4156d656a7505e65d08c67660dc618072422e9c78053c261e9",
        "0xe62df6c8b4a85fe1a67db44dc12de5db330f7ac66b72dc658afedf0f4a415b43",
        "30",
        "Bitcoin"
      ],
      "transaction": {
        "from": "0x2c3a7d88cba76e1b231e969f8b11b73417f03a09",
        "to": "0x898bca461ce3b7f0697e15dd2209c673dae5fbe2",
        "gas": "0x36a0e",
        "value": "0x0",
        "input": "0xb6a0a1f3e98e2830be1a7e4156d656a7505e65d08c67660dc618072422e9c78053c261e9e62df6c8b4a85fe1a67db44dc12de5db330f7ac66b72dc658afedf0f4a415b43000000000000000000000000000000000000000000000000000000000000001e00000000000000000000000000000000000000000000000000000000000000800000000000000000000000000000000000000000000000000000000000000007426974636f696e00000000000000000000000000000000000000000000000000",
        "nonce": "0x48",
        "chainId": "0x279f"
      },
      "additionalContracts": [],
      "isFixedGasLimit": false
    },
    {
      "hash": "0x0b5d5d09fae0b732ab02640b5d4bb16fc382b7a36086721c1f821fd2c1aa988f",
      "transactionType": "CALL",
      "contractName": "AssetRegistry",
      "contractAddress": "0x898bca461ce3b7f0697e15dd2209c673dae5fbe2",
      "function": "addAsset(bytes32,bytes32,uint16,string)",
      "arguments": [
        "0xaaaebeba3810b1e6b70781f14b2d72c1cb89c0b2b320c43bb67ff79f562f5ff4",
        "0xff61491a931112ddf1bd8147cd1b641375f79f5825126d665480874634fd0ace",
        "25",
        "Ethereum"
      ],
      "transaction": {
        "from": "0x2c3a7d88cba76e1b231e969f8b11b73417f03a09",
        "to": "0x898bca461ce3b7f0697e15dd2209c673dae5fbe2",
        "gas": "0x30ddb",
        "value": "0x0",
        "input": "0xb6a0a1f3aaaebeba3810b1e6b70781f14b2d72c1cb89c0b2b320c43bb67ff79f562f5ff4ff61491a931112ddf1bd8147cd1b641375f79f5825126d665480874634fd0ace000000000000000000000000000000000000000000000000000000000000001900000000000000000000000000000000000000000000000000000000000000800000000000000000000000000000000000000000000000000000000000000008457468657265756d000000000000000000000000000000000000000000000000",
        "nonce": "0x49",
        "chainId": "0x279f"
      },
      "additionalContracts": [],
      "isFixedGasLimit": false
    },
    {
      "hash": "0x189d9b8fc8e19861d11289e9cf3f5ac35d610065f7f255d4125dec2c886bdc56",
      "transactionType": "CALL",
      "contractName": "AssetRegistry",
      "contractAddress": "0x898bca461ce3b7f0697e15dd2209c673dae5fbe2",
      "function": "addAsset(bytes32,bytes32,uint16,string)",
      "arguments": [
        "0x0a3ec4fc70eaf64faf6eeda4e9b2bd4742a785464053aa23afad8bd24650e86f",
        "0xef0d8b6fda2ceba41da15d4095d1da392a0d2f8ed0c6c7bc0f4cfac8c280b56d",
        "18",
        "Solana"
      ],
      "transaction": {
        "from": "0x2c3a7d88cba76e1b231e969f8b11b73417f03a09",
        "to": "0x898bca461ce3b7f0697e15dd2209c673dae5fbe2",
        "gas": "0x30dbb",
        "value": "0x0",
        "input": "0xb6a0a1f30a3ec4fc70eaf64faf6eeda4e9b2bd4742a785464053aa23afad8bd24650e86fef0d8b6fda2ceba41da15d4095d1da392a0d2f8ed0c6c7bc0f4cfac8c280b56d000000000000000000000000000000000000000000000000000000000000001200000000000000000000000000000000000000000000000000000000000000800000000000000000000000000000000000000000000000000000000000000006536f6c616e610000000000000000000000000000000000000000000000000000",
        "nonce": "0x4a",
        "chainId": "0x279f"
      },
      "additionalContracts": [],
      "isFixedGasLimit": false
    },
    {
      "hash": "0x6ee60b01de9897ad2c76305b0796c7aa0264c5c050e53db8bc41b8e666949964",
      "transactionType": "CALL",
      "contractName": "AssetRegistry",
      "contractAddress": "0x898bca461ce3b7f0697e15dd2209c673dae5fbe2",
      "function": "addAsset(bytes32,bytes32,uint16,string)",
      "arguments": [
        "0x3ed03c38e59dc60c7b69c2a4bf68f9214acd953252b5a90e8f5f59583e9bc3ae",
        "0x2f95862b045670cd22bee3114c39763a4a08beeb663b145d283c31d7d1101c4f",
        "16",
        "BNB"
      ],
      "transaction": {
        "from": "0x2c3a7d88cba76e1b231e969f8b11b73417f03a09",
        "to": "0x898bca461ce3b7f0697e15dd2209c673dae5fbe2",
        "gas": "0x33b82",
        "value": "0x0",
        "input": "0xb6a0a1f33ed03c38e59dc60c7b69c2a4bf68f9214acd953252b5a90e8f5f59583e9bc3ae2f95862b045670cd22bee3114c39763a4a08beeb663b145d283c31d7d1101c4f000000000000000000000000000000000000000000000000000000000000001000000000000000000000000000000000000000000000000000000000000000800000000000000000000000000000000000000000000000000000000000000003424e420000000000000000000000000000000000000000000000000000000000",
        "nonce": "0x4b",
        "chainId": "0x279f"
      },
      "additionalContracts": [],
      "isFixedGasLimit": false
    },
    {
      "hash": "0xbe7c6fbead1e52c6dd8a66e27782c5bd7d501296be9df7ebadd4144886faea41",
      "transactionType": "CALL",
      "contractName": "AssetRegistry",
      "contractAddress": "0x898bca461ce3b7f0697e15dd2209c673dae5fbe2",
      "function": "addAsset(bytes32,bytes32,uint16,string)",
      "arguments": [
        "0x49f18ed70c3220abb735efdc7fce309e384d008d4bc14c846dcce9e31050e29b",
        "0x93da3352f9f1d105fdfe4971cfa80e9dd777bfc5d0f683ebb6e1294b92137bb7",
        "12",
        "Avalanche"
      ],
      "transaction": {
        "from": "0x2c3a7d88cba76e1b231e969f8b11b73417f03a09",
        "to": "0x898bca461ce3b7f0697e15dd2209c673dae5fbe2",
        "gas": "0x30ddb",
        "value": "0x0",
        "input": "0xb6a0a1f349f18ed70c3220abb735efdc7fce309e384d008d4bc14c846dcce9e31050e29b93da3352f9f1d105fdfe4971cfa80e9dd777bfc5d0f683ebb6e1294b92137bb7000000000000000000000000000000000000000000000000000000000000000c000000000000000000000000000000000000000000000000000000000000008000000000000000000000000000000000000000000000000000000000000000094176616c616e6368650000000000000000000000000000000000000000000000",
        "nonce": "0x4c",
        "chainId": "0x279f"
      },
      "additionalContracts": [],
      "isFixedGasLimit": false
    },
    {
      "hash": "0x233c4e8a1a22d138c657f3b66f33c60af4f7ae51114ac2712341cf8cba64e97a",
      "transactionType": "CALL",
      "contractName": "AssetRegistry",
      "contractAddress": "0x898bca461ce3b7f0697e15dd2209c673dae5fbe2",
      "function": "addAsset(bytes32,bytes32,uint16,string)",
      "arguments": [
        "0xaeb724422620edb430dcaf22aeeff2e9388a578c02754cd08699652fb76035c7",
        "0xec5d399846a9209f3fe5881d70aae9268c94339ff9817e8d18ff19fa05eea1c8",
        "12",
        "Ripple"
      ],
      "transaction": {
        "from": "0x2c3a7d88cba76e1b231e969f8b11b73417f03a09",
        "to": "0x898bca461ce3b7f0697e15dd2209c673dae5fbe2",
        "gas": "0x30dbb",
        "value": "0x0",
        "input": "0xb6a0a1f3aeb724422620edb430dcaf22aeeff2e9388a578c02754cd08699652fb76035c7ec5d399846a9209f3fe5881d70aae9268c94339ff9817e8d18ff19fa05eea1c8000000000000000000000000000000000000000000000000000000000000000c00000000000000000000000000000000000000000000000000000000000000800000000000000000000000000000000000000000000000000000000000000006526970706c650000000000000000000000000000000000000000000000000000",
        "nonce": "0x4d",
        "chainId": "0x279f"
      },
      "additionalContracts": [],
      "isFixedGasLimit": false
    },
    {
      "hash": "0xdc1ef912696639ed58cee3444ec07ca0319580ae77b5869840f9cce3e9ca979d",
      "transactionType": "CALL",
      "contractName": "AssetRegistry",
      "contractAddress": "0x898bca461ce3b7f0697e15dd2209c673dae5fbe2",
      "function": "addAsset(bytes32,bytes32,uint16,string)",
      "arguments": [
        "0x4e1e6d8aa1ff8f43f933718e113229b0ec6b091b699f7a8671bcbd606da36eea",
        "0x2a01deaec9e51a579277b34b122399984d0bbf57e2458a7e42fecd2829867a0d",
        "10",
        "Cardano"
      ],
      "transaction": {
        "from": "0x2c3a7d88cba76e1b231e969f8b11b73417f03a09",
        "to": "0x898bca461ce3b7f0697e15dd2209c673dae5fbe2",
        "gas": "0x33bc9",
        "value": "0x0",
        "input": "0xb6a0a1f34e1e6d8aa1ff8f43f933718e113229b0ec6b091b699f7a8671bcbd606da36eea2a01deaec9e51a579277b34b122399984d0bbf57e2458a7e42fecd2829867a0d000000000000000000000000000000000000000000000000000000000000000a0000000000000000000000000000000000000000000000000000000000000080000000000000000000000000000000000000000000000000000000000000000743617264616e6f00000000000000000000000000000000000000000000000000",
        "nonce": "0x4e",
        "chainId": "0x279f"
      },
      "additionalContracts": [],
      "isFixedGasLimit": false
    },
    {
      "hash": "0xc3f678c6c440e8fc09db7b88d497e6e04f2195dcd356bdb9a3b822a4e932d52e",
      "transactionType": "CALL",
      "contractName": "AssetRegistry",
      "contractAddress": "0x898bca461ce3b7f0697e15dd2209c673dae5fbe2",
      "function": "addAsset(bytes32,bytes32,uint16,string)",
      "arguments": [
        "0xa6a7de01e8b7ba6a4a61c782a73188d808fc1f3cf5743fadb68a02ed884b594f",
        "0x5de33a9112c2b700b8d30b8a3402c103578ccfa2765696471cc672bd5cf6ac52",
        "10",
        "Polygon"
      ],
      "transaction": {
        "from": "0x2c3a7d88cba76e1b231e969f8b11b73417f03a09",
        "to": "0x898bca461ce3b7f0697e15dd2209c673dae5fbe2",
        "gas": "0x30dbb",
        "value": "0x0",
        "input": "0xb6a0a1f3a6a7de01e8b7ba6a4a61c782a73188d808fc1f3cf5743fadb68a02ed884b594f5de33a9112c2b700b8d30b8a3402c103578ccfa2765696471cc672bd5cf6ac52000000000000000000000000000000000000000000000000000000000000000a00000000000000000000000000000000000000000000000000000000000000800000000000000000000000000000000000000000000000000000000000000007506f6c79676f6e00000000000000000000000000000000000000000000000000",
        "nonce": "0x4f",
        "chainId": "0x279f"
      },
      "additionalContracts": [],
      "isFixedGasLimit": false
    },
    {
      "hash": "0x1805389072b0f1650d7e3548f7e33218098f70f24d617545b9d81009663ed1b2",
      "transactionType": "CALL",
      "contractName": "AssetRegistry",
      "contractAddress": "0x898bca461ce3b7f0697e15dd2209c673dae5fbe2",
      "function": "addAsset(bytes32,bytes32,uint16,string)",
      "arguments": [
        "0xa486e4b27cce131bfeacd003018c22a55744bdb94821829f0ff1d4061d8d0533",
        "0xc415de8d2eba7db216527dff4b60e8f3a5311c740dadb233e13e12547e226750",
        "10",
        "NEAR Protocol"
      ],
      "transaction": {
        "from": "0x2c3a7d88cba76e1b231e969f8b11b73417f03a09",
        "to": "0x898bca461ce3b7f0697e15dd2209c673dae5fbe2",
        "gas": "0x33c32",
        "value": "0x0",
        "input": "0xb6a0a1f3a486e4b27cce131bfeacd003018c22a55744bdb94821829f0ff1d4061d8d0533c415de8d2eba7db216527dff4b60e8f3a5311c740dadb233e13e12547e226750000000000000000000000000000000000000000000000000000000000000000a0000000000000000000000000000000000000000000000000000000000000080000000000000000000000000000000000000000000000000000000000000000d4e4541522050726f746f636f6c00000000000000000000000000000000000000",
        "nonce": "0x50",
        "chainId": "0x279f"
      },
      "additionalContracts": [],
      "isFixedGasLimit": false
    },
    {
      "hash": "0xff56b23bf440c1cf9258c735d61a2817010b5925827396f40d97a73f8e7779fc",
      "transactionType": "CALL",
      "contractName": "AssetRegistry",
      "contractAddress": "0x898bca461ce3b7f0697e15dd2209c673dae5fbe2",
      "function": "addAsset(bytes32,bytes32,uint16,string)",
      "arguments": [
        "0x9a3f52b1b31ae58da40209f38379e78c3a0756495a0f585d0b3c84a9e9718f9d",
        "0xdcef50dd0a4cd2dcc17e45df1676dcb336a11a61c69df7a0299b0150c672d25c",
        "9",
        "Dogecoin"
      ],
      "transaction": {
        "from": "0x2c3a7d88cba76e1b231e969f8b11b73417f03a09",
        "to": "0x898bca461ce3b7f0697e15dd2209c673dae5fbe2",
        "gas": "0x30ddb",
        "value": "0x0",
        "input": "0xb6a0a1f39a3f52b1b31ae58da40209f38379e78c3a0756495a0f585d0b3c84a9e9718f9ddcef50dd0a4cd2dcc17e45df1676dcb336a11a61c69df7a0299b0150c672d25c000000000000000000000000000000000000000000000000000000000000000900000000000000000000000000000000000000000000000000000000000000800000000000000000000000000000000000000000000000000000000000000008446f6765636f696e000000000000000000000000000000000000000000000000",
        "nonce": "0x51",
        "chainId": "0x279f"
      },
      "additionalContracts": [],
      "isFixedGasLimit": false
    },
    {
      "hash": "0xc404dcb63d081e52180848cf4ded37745e325f0b2e24c306c376fc82bed186b0",
      "transactionType": "CALL",
      "contractName": "AssetRegistry",
      "contractAddress": "0x898bca461ce3b7f0697e15dd2209c673dae5fbe2",
      "function": "addAsset(bytes32,bytes32,uint16,string)",
      "arguments": [
        "0x89e00465fb83774b035e591ad1577585bbb47b9ee6745a0ef8052c9623fc55ac",
        "0x67aed5a24fdad045475e7195c98a98aea119c763f272d4523f5bac93a4f33c2b",
        "8",
        "Tron"
      ],
      "transaction": {
        "from": "0x2c3a7d88cba76e1b231e969f8b11b73417f03a09",
        "to": "0x898bca461ce3b7f0697e15dd2209c673dae5fbe2",
        "gas": "0x30d99",
        "value": "0x0",
        "input": "0xb6a0a1f389e00465fb83774b035e591ad1577585bbb47b9ee6745a0ef8052c9623fc55ac67aed5a24fdad045475e7195c98a98aea119c763f272d4523f5bac93a4f33c2b00000000000000000000000000000000000000000000000000000000000000080000000000000000000000000000000000000000000000000000000000000080000000000000000000000000000000000000000000000000000000000000000454726f6e00000000000000000000000000000000000000000000000000000000",
        "nonce": "0x52",
        "chainId": "0x279f"
      },
      "additionalContracts": [],
      "isFixedGasLimit": false
    },
    {
      "hash": "0xd836d49ca226e31ca0955b8862a141a27cf34758869edc4946bfc9554673664a",
      "transactionType": "CALL",
      "contractName": "AssetRegistry",
      "contractAddress": "0x898bca461ce3b7f0697e15dd2209c673dae5fbe2",
      "function": "addAsset(bytes32,bytes32,uint16,string)",
      "arguments": [
        "0x542d10e155091389b3358f5f9188642f6ada7c12d94c1ffcb1d3a513e62ac319",
        "0x23d7315113f5b1d3ba7a83604c44b94d79f4fd69af77f804fc7f920a6dc65744",
        "8",
        "Sui"
      ],
      "transaction": {
        "from": "0x2c3a7d88cba76e1b231e969f8b11b73417f03a09",
        "to": "0x898bca461ce3b7f0697e15dd2209c673dae5fbe2",
        "gas": "0x33b82",
        "value": "0x0",
        "input": "0xb6a0a1f3542d10e155091389b3358f5f9188642f6ada7c12d94c1ffcb1d3a513e62ac31923d7315113f5b1d3ba7a83604c44b94d79f4fd69af77f804fc7f920a6dc657440000000000000000000000000000000000000000000000000000000000000008000000000000000000000000000000000000000000000000000000000000008000000000000000000000000000000000000000000000000000000000000000035375690000000000000000000000000000000000000000000000000000000000",
        "nonce": "0x53",
        "chainId": "0x279f"
      },
      "additionalContracts": [],
      "isFixedGasLimit": false
    },
    {
      "hash": "0x6c09d17782f1c4065a82f67b4d6e29cb8a7655d6379e526ebc0f46b6eb6af65d",
      "transactionType": "CALL",
      "contractName": "AssetRegistry",
      "contractAddress": "0x898bca461ce3b7f0697e15dd2209c673dae5fbe2",
      "function": "addAsset(bytes32,bytes32,uint16,string)",
      "arguments": [
        "0xc18f56144146939da796e8717010c2f5140aa0b98704a95b71f5b503102c8c27",
        "0xb7e3904c08ddd9c0c10c6d207d390fd19e87eb6aab96304f571ed94caebdefa0",
        "7",
        "Astar"
      ],
      "transaction": {
        "from": "0x2c3a7d88cba76e1b231e969f8b11b73417f03a09",
        "to": "0x898bca461ce3b7f0697e15dd2209c673dae5fbe2",
        "gas": "0x33ba5",
        "value": "0x0",
        "input": "0xb6a0a1f3c18f56144146939da796e8717010c2f5140aa0b98704a95b71f5b503102c8c27b7e3904c08ddd9c0c10c6d207d390fd19e87eb6aab96304f571ed94caebdefa00000000000000000000000000000000000000000000000000000000000000007000000000000000000000000000000000000000000000000000000000000008000000000000000000000000000000000000000000000000000000000000000054173746172000000000000000000000000000000000000000000000000000000",
        "nonce": "0x54",
        "chainId": "0x279f"
      },
      "additionalContracts": [],
      "isFixedGasLimit": false
    },
    {
      "hash": "0x57b5f9956729c7b6fa3f2d27882e8db3835f6210812a6fabd403ffee160c9ff3",
      "transactionType": "CALL",
      "contractName": "AssetRegistry",
      "contractAddress": "0x898bca461ce3b7f0697e15dd2209c673dae5fbe2",
      "function": "addAsset(bytes32,bytes32,uint16,string)",
      "arguments": [
        "0xefa585451ff82e7559b7e4aa3c7d26b394fd121301bbf6f1da4ef6d29210466e",
        "0xf0d57deca57b3da2fe63a493f4c25925fdfd8edf834b20f93e1f84dbd1504d4a",
        "6",
        "Shiba Inu"
      ],
      "transaction": {
        "from": "0x2c3a7d88cba76e1b231e969f8b11b73417f03a09",
        "to": "0x898bca461ce3b7f0697e15dd2209c673dae5fbe2",
        "gas": "0x33bec",
        "value": "0x0",
        "input": "0xb6a0a1f3efa585451ff82e7559b7e4aa3c7d26b394fd121301bbf6f1da4ef6d29210466ef0d57deca57b3da2fe63a493f4c25925fdfd8edf834b20f93e1f84dbd1504d4a000000000000000000000000000000000000000000000000000000000000000600000000000000000000000000000000000000000000000000000000000000800000000000000000000000000000000000000000000000000000000000000009536869626120496e750000000000000000000000000000000000000000000000",
        "nonce": "0x55",
        "chainId": "0x279f"
      },
      "additionalContracts": [],
      "isFixedGasLimit": false
    },
    {
      "hash": "0xb3270a9ee358659b761e7f8720a55c5442c311bf55eac8b92fa9967b919f717f",
      "transactionType": "CALL",
      "contractName": "AssetRegistry",
      "contractAddress": "0x898bca461ce3b7f0697e15dd2209c673dae5fbe2",
      "function": "addAsset(bytes32,bytes32,uint16,string)",
      "arguments": [
        "0x608e17bb6814e7eb8d564b13416322f3d8a2dc5e36dde75519945008d7848749",
        "0xd69731a2e74ac1ce884fc3890f7ee324b6deb66147055249568869ed700882e4",
        "5",
        "Pepe"
      ],
      "transaction": {
        "from": "0x2c3a7d88cba76e1b231e969f8b11b73417f03a09",
        "to": "0x898bca461ce3b7f0697e15dd2209c673dae5fbe2",
        "gas": "0x30d99",
        "value": "0x0",
        "input": "0xb6a0a1f3608e17bb6814e7eb8d564b13416322f3d8a2dc5e36dde75519945008d7848749d69731a2e74ac1ce884fc3890f7ee324b6deb66147055249568869ed700882e40000000000000000000000000000000000000000000000000000000000000005000000000000000000000000000000000000000000000000000000000000008000000000000000000000000000000000000000000000000000000000000000045065706500000000000000000000000000000000000000000000000000000000",
        "nonce": "0x56",
        "chainId": "0x279f"
      },
      "additionalContracts": [],
      "isFixedGasLimit": false
    },
    {
      "hash": "0xea96c8178923625f6b609d6c6f77e0e35bb35ca7541ccdf81aaad3f3075e125d",
      "transactionType": "CALL",
      "contractName": "AssetRegistry",
      "contractAddress": "0x898bca461ce3b7f0697e15dd2209c673dae5fbe2",
      "function": "addAsset(bytes32,bytes32,uint16,string)",
      "arguments": [
        "0xa8631acbe37917ccaaf28385e6997f2db9e3876151964f689ee4762ac40f71b8",
        "0x7c28a4f3ca1e583f83c5c430ae9ad42f80bc3f6fcbde13906e7b569cd6f22aa1",
        "5",
        "Hype"
      ],
      "transaction": {
        "from": "0x2c3a7d88cba76e1b231e969f8b11b73417f03a09",
        "to": "0x898bca461ce3b7f0697e15dd2209c673dae5fbe2",
        "gas": "0x30d99",
        "value": "0x0",
        "input": "0xb6a0a1f3a8631acbe37917ccaaf28385e6997f2db9e3876151964f689ee4762ac40f71b87c28a4f3ca1e583f83c5c430ae9ad42f80bc3f6fcbde13906e7b569cd6f22aa10000000000000000000000000000000000000000000000000000000000000005000000000000000000000000000000000000000000000000000000000000008000000000000000000000000000000000000000000000000000000000000000044879706500000000000000000000000000000000000000000000000000000000",
        "nonce": "0x57",
        "chainId": "0x279f"
      },
      "additionalContracts": [],
      "isFixedGasLimit": false
    },
    {
      "hash": "0xa73e62d17ed299f8748d49309aed029760762aa9c1a34cd21ece836c8c74246b",
      "transactionType": "CALL",
      "contractName": "AssetRegistry",
      "contractAddress": "0x898bca461ce3b7f0697e15dd2209c673dae5fbe2",
      "function": "addAsset(bytes32,bytes32,uint16,string)",
      "arguments": [
        "0x9bd00430e53a5999c7c603cfc04cbdaf68bdbc180f300e4a2067937f57a0534f",
        "0xca3eed9b267293f6595901c734c7525ce8ef49adafe8284606ceb307afa2ca5b",
        "10",
        "Polkadot"
      ],
      "transaction": {
        "from": "0x2c3a7d88cba76e1b231e969f8b11b73417f03a09",
        "to": "0x898bca461ce3b7f0697e15dd2209c673dae5fbe2",
        "gas": "0x30ddb",
        "value": "0x0",
        "input": "0xb6a0a1f39bd00430e53a5999c7c603cfc04cbdaf68bdbc180f300e4a2067937f57a0534fca3eed9b267293f6595901c734c7525ce8ef49adafe8284606ceb307afa2ca5b000000000000000000000000000000000000000000000000000000000000000a00000000000000000000000000000000000000000000000000000000000000800000000000000000000000000000000000000000000000000000000000000008506f6c6b61646f74000000000000000000000000000000000000000000000000",
        "nonce": "0x58",
        "chainId": "0x279f"
      },
      "additionalContracts": [],
      "isFixedGasLimit": false
    },
    {
      "hash": "0x26677f531abf86005aa5003a0787b33330f834982ec2877fb845517ace60ef40",
      "transactionType": "CALL",
      "contractName": "AssetRegistry",
      "contractAddress": "0x898bca461ce3b7f0697e15dd2209c673dae5fbe2",
      "function": "addAsset(bytes32,bytes32,uint16,string)",
      "arguments": [
        "0x3a540c592f9dbcbbe2f3f7f7a25a9554cef45a0c93b7209090ddcb77180f6ab1",
        "0x03ae4db29ed4ae33d323568895aa00337e658e348b37509f5372ae51f0af00d5",
        "9",
        "Aptos"
      ],
      "transaction": {
        "from": "0x2c3a7d88cba76e1b231e969f8b11b73417f03a09",
        "to": "0x898bca461ce3b7f0697e15dd2209c673dae5fbe2",
        "gas": "0x33b82",
        "value": "0x0",
        "input": "0xb6a0a1f33a540c592f9dbcbbe2f3f7f7a25a9554cef45a0c93b7209090ddcb77180f6ab103ae4db29ed4ae33d323568895aa00337e658e348b37509f5372ae51f0af00d50000000000000000000000000000000000000000000000000000000000000009000000000000000000000000000000000000000000000000000000000000008000000000000000000000000000000000000000000000000000000000000000054170746f73000000000000000000000000000000000000000000000000000000",
        "nonce": "0x59",
        "chainId": "0x279f"
      },
      "additionalContracts": [],
      "isFixedGasLimit": false
    }
  ],
  "receipts": [
    {
      "status": "0x1",
      "cumulativeGasUsed": "0x3278f4",
      "logs": [
        {
          "address": "0x898bca461ce3b7f0697e15dd2209c673dae5fbe2",
          "topics": [
            "0x8be0079c531659141344cd1fd0a4f28419497f9722a3daafe3b4186f6b6457e0",
            "0x0000000000000000000000000000000000000000000000000000000000000000",
            "0x0000000000000000000000002c3a7d88cba76e1b231e969f8b11b73417f03a09"
          ],
          "data": "0x",
          "blockHash": "0xf16dd7d4b7132b831f180a7d7e4af290c58413ef723a77f1a9225349ed17af94",
          "blockNumber": "0x2a7b149",
          "blockTimestamp": "0x68f77c11",
          "transactionHash": "0x08694056d6c32502a77a4881af6be626ebdea7ea6d59f1f464e9ad77d17b5060",
          "transactionIndex": "0x4",
          "logIndex": "0x8",
          "removed": false
        }
      ],
      "logsBloom": "0x00000000000000000000000000000000000000000000000000800000000000000000000000000000000000000000000000000000000000000000000000000000000000000000000000000000000000000001000000000000000020000000000000000000020000000000000000000800000000000000000000000000000000400000000000000000000000000000000000000000000000000000000000000000000000000000000000000000000000000000000000000000000000000000000400000000000000000020000000000000000000000000000000000008000020100000000000000000800000000000000000000000000000000000000000000000",
      "type": "0x0",
      "transactionHash": "0x08694056d6c32502a77a4881af6be626ebdea7ea6d59f1f464e9ad77d17b5060",
      "transactionIndex": "0x4",
      "blockHash": "0xf16dd7d4b7132b831f180a7d7e4af290c58413ef723a77f1a9225349ed17af94",
      "blockNumber": "0x2a7b149",
      "gasUsed": "0x15f8c6",
      "effectiveGasPrice": "0x17bfac7c00",
      "from": "0x2c3a7d88cba76e1b231e969f8b11b73417f03a09",
      "to": null,
      "contractAddress": "0x898bca461ce3b7f0697e15dd2209c673dae5fbe2"
    },
    {
      "status": "0x1",
      "cumulativeGasUsed": "0x1a3690",
      "logs": [
        {
          "address": "0xaeb69e308a2580e48f0371fcd89ecae7f700775a",
          "topics": [
            "0x8be0079c531659141344cd1fd0a4f28419497f9722a3daafe3b4186f6b6457e0",
            "0x0000000000000000000000000000000000000000000000000000000000000000",
            "0x0000000000000000000000002c3a7d88cba76e1b231e969f8b11b73417f03a09"
          ],
          "data": "0x",
          "blockHash": "0x117a7a00752e1e973f856346105318b68b5d2e2ef593e908affc5b3dcde9a848",
          "blockNumber": "0x2a7b150",
          "blockTimestamp": "0x68f77c14",
          "transactionHash": "0x8792ece4b386f47d9c1d3ff59fa3ac0920fda74de38c5abb4a5c6f03713fa868",
          "transactionIndex": "0x2",
          "logIndex": "0x4",
          "removed": false
        }
      ],
      "logsBloom": "0x00000000000000000000000000000000000000000000000000800000000000000000000000000000000000000000000000000100000000000000000000000000000000000000080000000000000000000001000000000000000000000000000000000000020000000000000000000800000000000000000000000000000000400000000000000000000000000000000000000000000000000000000000000000000000000000000000000000000000000000000000000000020000000000000400000000000000000000000000000000000000000000000000000000000020100000000000000000800000000000000000000000000000000000000000000000",
      "type": "0x0",
      "transactionHash": "0x8792ece4b386f47d9c1d3ff59fa3ac0920fda74de38c5abb4a5c6f03713fa868",
      "transactionIndex": "0x2",
      "blockHash": "0x117a7a00752e1e973f856346105318b68b5d2e2ef593e908affc5b3dcde9a848",
      "blockNumber": "0x2a7b150",
      "gasUsed": "0x139799",
      "effectiveGasPrice": "0x17bfac7c00",
      "from": "0x2c3a7d88cba76e1b231e969f8b11b73417f03a09",
      "to": null,
      "contractAddress": "0xaeb69e308a2580e48f0371fcd89ecae7f700775a"
    },
    {
      "status": "0x1",
      "cumulativeGasUsed": "0x3eaa38",
      "logs": [],
      "logsBloom": "0x00000000000000000000000000000000000000000000000000000000000000000000000000000000000000000000000000000000000000000000000000000000000000000000000000000000000000000000000000000000000000000000000000000000000000000000000000000000000000000000000000000000000000000000000000000000000000000000000000000000000000000000000000000000000000000000000000000000000000000000000000000000000000000000000000000000000000000000000000000000000000000000000000000000000000000000000000000000000000000000000000000000000000000000000000000000",
      "type": "0x0",
      "transactionHash": "0x5c535839b179bd03b35a0baea51eabdc330b971714aafb75897a3cde831c110e",
      "transactionIndex": "0x3",
      "blockHash": "0xfd6cdaab449b6fd6b0c50d5243bb5446be32db51c9e9a810b40ce3bbf86874a6",
      "blockNumber": "0x2a7b157",
      "gasUsed": "0x3cc9d9",
      "effectiveGasPrice": "0x17bfac7c00",
      "from": "0x2c3a7d88cba76e1b231e969f8b11b73417f03a09",
      "to": null,
      "contractAddress": "0x1e5152468537309bd797f6edc1fe112e98a09402"
    },
    {
      "status": "0x1",
      "cumulativeGasUsed": "0x1facd7",
      "logs": [
        {
          "address": "0x3b5a097c560636d5090266d5cbf5578b9940543f",
          "topics": [
            "0x8be0079c531659141344cd1fd0a4f28419497f9722a3daafe3b4186f6b6457e0",
            "0x0000000000000000000000000000000000000000000000000000000000000000",
            "0x0000000000000000000000002c3a7d88cba76e1b231e969f8b11b73417f03a09"
          ],
          "data": "0x",
          "blockHash": "0x5ffec67b7b37f68b62bf954fbc85a120f26ce6ee49ab01367f30cef386601beb",
          "blockNumber": "0x2a7b15e",
          "blockTimestamp": "0x68f77c1a",
          "transactionHash": "0xaca4468a2fd5c103842233aed2ad677a64774b67e654801983a15bf24eb1a67e",
          "transactionIndex": "0x3",
          "logIndex": "0x6",
          "removed": false
        }
      ],
      "logsBloom": "0x00000000000000000000000000000000000000000000000000800000000010000000000000000000000000000000000000000000000000000000000000000000000000000000000000000000000000000001000000000000000000000000000000000000020000000000000000000800000000000000000000000000000000400000000000000000000000000000000000000000000000000000000000000000000000000000000000000000000000000000000000800000000000000000000400000000000000001000000000000000000000000000000000000000000020100000000000000000800000000000000000000000000000000000000000000000",
      "type": "0x0",
      "transactionHash": "0xaca4468a2fd5c103842233aed2ad677a64774b67e654801983a15bf24eb1a67e",
      "transactionIndex": "0x3",
      "blockHash": "0x5ffec67b7b37f68b62bf954fbc85a120f26ce6ee49ab01367f30cef386601beb",
      "blockNumber": "0x2a7b15e",
      "gasUsed": "0x1554a6",
      "effectiveGasPrice": "0x17bfac7c00",
      "from": "0x2c3a7d88cba76e1b231e969f8b11b73417f03a09",
      "to": null,
      "contractAddress": "0x3b5a097c560636d5090266d5cbf5578b9940543f"
    },
    {
      "status": "0x1",
      "cumulativeGasUsed": "0x1d76b1",
      "logs": [
        {
          "address": "0xaeb69e308a2580e48f0371fcd89ecae7f700775a",
          "topics": [
            "0x39921e5677c943b0b7f6c29ab86b823c5daa404cb1a0a7e470670595761803c7",
            "0x0000000000000000000000003b5a097c560636d5090266d5cbf5578b9940543f"
          ],
          "data": "0x0000000000000000000000000000000000000000000000000000000000000001",
          "blockHash": "0x1ce0ee70ba64009a008ecb6907ebf0782f9284cd3faa6b878df7dbe3fefd0a04",
          "blockNumber": "0x2a7b165",
          "blockTimestamp": "0x68f77c1d",
          "transactionHash": "0x9ba2758fc274b4905eea02b664899321e17c7cfee5866ee8d6805131412098f4",
          "transactionIndex": "0x6",
          "logIndex": "0xc",
          "removed": false
        }
      ],
      "logsBloom": "0x00000000000000000000000000000000000000000000000000000000000000000000000000000000000000000000000000000100000000001000000000000000000000000000080000000000000000000000400000000000000000000000000000000000000000000000000000000000000000000000000000000000000000000000000000000000004000000000040000000000000000000000000000000000000000000000000000000000000000000000000000000000020000000000000000000000010000000000000000000000000000000000000000000000000000000000000000000000000000000000000000080000000000000000000000000000",
      "type": "0x0",
      "transactionHash": "0x9ba2758fc274b4905eea02b664899321e17c7cfee5866ee8d6805131412098f4",
      "transactionIndex": "0x6",
      "blockHash": "0x1ce0ee70ba64009a008ecb6907ebf0782f9284cd3faa6b878df7dbe3fefd0a04",
      "blockNumber": "0x2a7b165",
      "gasUsed": "0x11137",
      "effectiveGasPrice": "0x17bfac7c00",
      "from": "0x2c3a7d88cba76e1b231e969f8b11b73417f03a09",
      "to": "0xaeb69e308a2580e48f0371fcd89ecae7f700775a",
      "contractAddress": null
    },
    {
      "status": "0x1",
      "cumulativeGasUsed": "0x129514",
      "logs": [
        {
          "address": "0xaeb69e308a2580e48f0371fcd89ecae7f700775a",
          "topics": [
            "0x3213ab8ec2ed122402f038736b41878b69ae9f61f49a7edd0666bce891d29fc9",
            "0x0000000000000000000000001e5152468537309bd797f6edc1fe112e98a09402"
          ],
          "data": "0x0000000000000000000000000000000000000000000000000000000000000001",
          "blockHash": "0x16bf726d1e984db15139cd7de1e1187f10738cdfb4aab77dee704569981ca8f4",
          "blockNumber": "0x2a7b16c",
          "blockTimestamp": "0x68f77c1f",
          "transactionHash": "0xc837b2a33e9148f7ad1a413d63e81154560486842d739d84eafa6b03e9c24052",
          "transactionIndex": "0x4",
          "logIndex": "0x13",
          "removed": false
        }
      ],
      "logsBloom": "0x00000000000000000000000000000000000000000000000000000000000000000000002000000000000000000001000000000100000000000000000000000000000000000000080000000000000000000000000000000000000000000000000000000000000000000000000000000000000000000000000000000000000000000000000000000000000020000000000000000000000000000000000000000000000000000000000000000100000000000000000000000000020000000000000000000000000000000000000000000000000000000000000000000000000000000000000000000000000004000000000000000000000000000000000000000020",
      "type": "0x0",
      "transactionHash": "0xc837b2a33e9148f7ad1a413d63e81154560486842d739d84eafa6b03e9c24052",
      "transactionIndex": "0x4",
      "blockHash": "0x16bf726d1e984db15139cd7de1e1187f10738cdfb4aab77dee704569981ca8f4",
      "blockNumber": "0x2a7b16c",
      "gasUsed": "0x10253",
      "effectiveGasPrice": "0x17bfac7c00",
      "from": "0x2c3a7d88cba76e1b231e969f8b11b73417f03a09",
      "to": "0xaeb69e308a2580e48f0371fcd89ecae7f700775a",
      "contractAddress": null
    },
    {
      "status": "0x1",
      "cumulativeGasUsed": "0x1ff012",
      "logs": [
        {
          "address": "0x898bca461ce3b7f0697e15dd2209c673dae5fbe2",
          "topics": [
            "0xd2a0cc0c0474ed6c3349931dee3321400e8bb78763e064e0dc346c44824741d6",
            "0xe98e2830be1a7e4156d656a7505e65d08c67660dc618072422e9c78053c261e9"
          ],
          "data": "0xe62df6c8b4a85fe1a67db44dc12de5db330f7ac66b72dc658afedf0f4a415b43000000000000000000000000000000000000000000000000000000000000001e00000000000000000000000000000000000000000000000000000000000000600000000000000000000000000000000000000000000000000000000000000007426974636f696e00000000000000000000000000000000000000000000000000",
          "blockHash": "0x51c71baf68fc6479d80273df5da3520f570a02a97ef8f76eedc9592f24c0ffaa",
          "blockNumber": "0x2a7b171",
          "blockTimestamp": "0x68f77c22",
          "transactionHash": "0xf49421d457934c5fc7e48991b98bd7b2aa69738f6bc2cc4d29cc7ad0b87d8160",
          "transactionIndex": "0x6",
          "logIndex": "0x1b",
          "removed": false
        }
      ],
      "logsBloom": "0x00000000000000000000000000000000000000000000000000000000000000000000000000000000002000000000000000000000000000000000000000000000000400000000000000000000000000000000000000000000000020000000000000000000000000000000000000000000000000000000000000000000000000000000000000000000000000000000000000000000000000000000000000000000000000800000000000000002000000000000000000000000000000000000000000000000000000000020000000000000000000000000000000000008000000000000000000000000000100000000000000000000000000000000000000400000",
      "type": "0x0",
      "transactionHash": "0xf49421d457934c5fc7e48991b98bd7b2aa69738f6bc2cc4d29cc7ad0b87d8160",
      "transactionIndex": "0x6",
      "blockHash": "0x51c71baf68fc6479d80273df5da3520f570a02a97ef8f76eedc9592f24c0ffaa",
      "blockNumber": "0x2a7b171",
      "gasUsed": "0x36a0e",
      "effectiveGasPrice": "0x17bfac7c00",
      "from": "0x2c3a7d88cba76e1b231e969f8b11b73417f03a09",
      "to": "0x898bca461ce3b7f0697e15dd2209c673dae5fbe2",
      "contractAddress": null
    },
    {
      "status": "0x1",
      "cumulativeGasUsed": "0x2075ad",
      "logs": [
        {
          "address": "0x898bca461ce3b7f0697e15dd2209c673dae5fbe2",
          "topics": [
            "0xd2a0cc0c0474ed6c3349931dee3321400e8bb78763e064e0dc346c44824741d6",
            "0xaaaebeba3810b1e6b70781f14b2d72c1cb89c0b2b320c43bb67ff79f562f5ff4"
          ],
          "data": "0xff61491a931112ddf1bd8147cd1b641375f79f5825126d665480874634fd0ace000000000000000000000000000000000000000000000000000000000000001900000000000000000000000000000000000000000000000000000000000000600000000000000000000000000000000000000000000000000000000000000008457468657265756d000000000000000000000000000000000000000000000000",
          "blockHash": "0xdd7b22d1caca4cb925a109a6b32767208ef1087439fbe5e351a6d4209f0c3af7",
          "blockNumber": "0x2a7b179",
          "blockTimestamp": "0x68f77c25",
          "transactionHash": "0x0b5d5d09fae0b732ab02640b5d4bb16fc382b7a36086721c1f821fd2c1aa988f",
          "transactionIndex": "0x4",
          "logIndex": "0xe",
          "removed": false
        }
      ],
      "logsBloom": "0x00000000000000000000000000000000000000000000000000000000000000000000000000000000000000000000000000000000000000000000000000000000000400000000000000000000000000000000000000000000000020000000000000000000000000000000000000000000000000040000000000000000000000000000000000000000000000008000000000000000000000000000000000000000000000800000000000000002000000000000000000000000000000000000000000000000000000000020000000000000000000000000000000001008000000000000000000000000000000000000000000000000000000000000000000000000",
      "type": "0x0",
      "transactionHash": "0x0b5d5d09fae0b732ab02640b5d4bb16fc382b7a36086721c1f821fd2c1aa988f",
      "transactionIndex": "0x4",
      "blockHash": "0xdd7b22d1caca4cb925a109a6b32767208ef1087439fbe5e351a6d4209f0c3af7",
      "blockNumber": "0x2a7b179",
      "gasUsed": "0x30ddb",
      "effectiveGasPrice": "0x17bfac7c00",
      "from": "0x2c3a7d88cba76e1b231e969f8b11b73417f03a09",
      "to": "0x898bca461ce3b7f0697e15dd2209c673dae5fbe2",
      "contractAddress": null
    },
    {
      "status": "0x1",
      "cumulativeGasUsed": "0x33cf37",
      "logs": [
        {
          "address": "0x898bca461ce3b7f0697e15dd2209c673dae5fbe2",
          "topics": [
            "0xd2a0cc0c0474ed6c3349931dee3321400e8bb78763e064e0dc346c44824741d6",
            "0x0a3ec4fc70eaf64faf6eeda4e9b2bd4742a785464053aa23afad8bd24650e86f"
          ],
          "data": "0xef0d8b6fda2ceba41da15d4095d1da392a0d2f8ed0c6c7bc0f4cfac8c280b56d000000000000000000000000000000000000000000000000000000000000001200000000000000000000000000000000000000000000000000000000000000600000000000000000000000000000000000000000000000000000000000000006536f6c616e610000000000000000000000000000000000000000000000000000",
          "blockHash": "0x04d0353237d6d5ce84947c91e5da45b93758ff10cc0ebc67d3f8834f0fe8be0b",
          "blockNumber": "0x2a7b17f",
          "blockTimestamp": "0x68f77c28",
          "transactionHash": "0x189d9b8fc8e19861d11289e9cf3f5ac35d610065f7f255d4125dec2c886bdc56",
          "transactionIndex": "0x5",
          "logIndex": "0x16",
          "removed": false
        }
      ],
      "logsBloom": "0x00000000000000000000000000000000000000000000000000000000000000000000000000000002000000000000000000000000000000000000000000000000000400000000000000000000000000000000000000000000000020000000000000000000000000000000000000000000000000000000000000000000000000000000000000000000000000000000000000000000000000000000000000000000000000800000000000000002000000000000000000000000000000000000000000000000000000000020000000000000000008000000000000000008000040000000000000000000000000000000000000000000000000000000000000000000",
      "type": "0x0",
      "transactionHash": "0x189d9b8fc8e19861d11289e9cf3f5ac35d610065f7f255d4125dec2c886bdc56",
      "transactionIndex": "0x5",
      "blockHash": "0x04d0353237d6d5ce84947c91e5da45b93758ff10cc0ebc67d3f8834f0fe8be0b",
      "blockNumber": "0x2a7b17f",
      "gasUsed": "0x30dbb",
      "effectiveGasPrice": "0x17bfac7c00",
      "from": "0x2c3a7d88cba76e1b231e969f8b11b73417f03a09",
      "to": "0x898bca461ce3b7f0697e15dd2209c673dae5fbe2",
      "contractAddress": null
    },
    {
      "status": "0x1",
      "cumulativeGasUsed": "0x2a763f",
      "logs": [
        {
          "address": "0x898bca461ce3b7f0697e15dd2209c673dae5fbe2",
          "topics": [
            "0xd2a0cc0c0474ed6c3349931dee3321400e8bb78763e064e0dc346c44824741d6",
            "0x3ed03c38e59dc60c7b69c2a4bf68f9214acd953252b5a90e8f5f59583e9bc3ae"
          ],
          "data": "0x2f95862b045670cd22bee3114c39763a4a08beeb663b145d283c31d7d1101c4f000000000000000000000000000000000000000000000000000000000000001000000000000000000000000000000000000000000000000000000000000000600000000000000000000000000000000000000000000000000000000000000003424e420000000000000000000000000000000000000000000000000000000000",
          "blockHash": "0xb093357e4c0f03f1f01b2967db05c9c31b1114716c79f05970dea4631f69fbf2",
          "blockNumber": "0x2a7b186",
          "blockTimestamp": "0x68f77c2b",
          "transactionHash": "0x6ee60b01de9897ad2c76305b0796c7aa0264c5c050e53db8bc41b8e666949964",
          "transactionIndex": "0x7",
          "logIndex": "0x17",
          "removed": false
        }
      ],
      "logsBloom": "0x00000000000000000000000000000000000000000000000000000000000000000000000000000000000100000000000000000000000000000000000000000000000400000000000000000000000000000000000000000000000020000000000000000000000000000000000000000000000000000000000000000000000000000020000000000000000000000000000000000000000000000000000000008000000000800000000000000002000000000000000000000000000000000000000000000000000000000020000000000000000000000000000000000008000000000000000000000000000000000000000000000000000000000000000000000000",
      "type": "0x0",
      "transactionHash": "0x6ee60b01de9897ad2c76305b0796c7aa0264c5c050e53db8bc41b8e666949964",
      "transactionIndex": "0x7",
      "blockHash": "0xb093357e4c0f03f1f01b2967db05c9c31b1114716c79f05970dea4631f69fbf2",
      "blockNumber": "0x2a7b186",
      "gasUsed": "0x33b82",
      "effectiveGasPrice": "0x17bfac7c00",
      "from": "0x2c3a7d88cba76e1b231e969f8b11b73417f03a09",
      "to": "0x898bca461ce3b7f0697e15dd2209c673dae5fbe2",
      "contractAddress": null
    },
    {
      "status": "0x1",
      "cumulativeGasUsed": "0x1b4e2a",
      "logs": [
        {
          "address": "0x898bca461ce3b7f0697e15dd2209c673dae5fbe2",
          "topics": [
            "0xd2a0cc0c0474ed6c3349931dee3321400e8bb78763e064e0dc346c44824741d6",
            "0x49f18ed70c3220abb735efdc7fce309e384d008d4bc14c846dcce9e31050e29b"
          ],
          "data": "0x93da3352f9f1d105fdfe4971cfa80e9dd777bfc5d0f683ebb6e1294b92137bb7000000000000000000000000000000000000000000000000000000000000000c000000000000000000000000000000000000000000000000000000000000006000000000000000000000000000000000000000000000000000000000000000094176616c616e6368650000000000000000000000000000000000000000000000",
          "blockHash": "0x9835b66344ae7952ead8e2ab171e5792113798fe353e21fac20e356666c9f5b9",
          "blockNumber": "0x2a7b18c",
          "blockTimestamp": "0x68f77c2d",
          "transactionHash": "0xbe7c6fbead1e52c6dd8a66e27782c5bd7d501296be9df7ebadd4144886faea41",
          "transactionIndex": "0x5",
          "logIndex": "0xb",
          "removed": false
        }
      ],
      "logsBloom": "0x00000000000000000000000000000000000000000000000000000080000000000000000000000000000000000000000000000000000000000000000000000000000400000000000000000000000000000000000000000000000020000000000000000000000000000000000000000000000000000000000000000000000000000000000000000001000000000000000000000000000000000000000004000000000000800000000000000002000000000000000000000000000000000000000000000000000000000020000000000000000000000000000000000008000000000000000000000000000000000000000000000000000000000000000000000000",
      "type": "0x0",
      "transactionHash": "0xbe7c6fbead1e52c6dd8a66e27782c5bd7d501296be9df7ebadd4144886faea41",
      "transactionIndex": "0x5",
      "blockHash": "0x9835b66344ae7952ead8e2ab171e5792113798fe353e21fac20e356666c9f5b9",
      "blockNumber": "0x2a7b18c",
      "gasUsed": "0x30ddb",
      "effectiveGasPrice": "0x17bfac7c00",
      "from": "0x2c3a7d88cba76e1b231e969f8b11b73417f03a09",
      "to": "0x898bca461ce3b7f0697e15dd2209c673dae5fbe2",
      "contractAddress": null
    },
    {
      "status": "0x1",
      "cumulativeGasUsed": "0x9b508",
      "logs": [
        {
          "address": "0x898bca461ce3b7f0697e15dd2209c673dae5fbe2",
          "topics": [
            "0xd2a0cc0c0474ed6c3349931dee3321400e8bb78763e064e0dc346c44824741d6",
            "0xaeb724422620edb430dcaf22aeeff2e9388a578c02754cd08699652fb76035c7"
          ],
          "data": "0xec5d399846a9209f3fe5881d70aae9268c94339ff9817e8d18ff19fa05eea1c8000000000000000000000000000000000000000000000000000000000000000c00000000000000000000000000000000000000000000000000000000000000600000000000000000000000000000000000000000000000000000000000000006526970706c650000000000000000000000000000000000000000000000000000",
          "blockHash": "0x7b028794ce382f487335218da60d245cdbed28da4b8c2c2f7edb00c087b1a77a",
          "blockNumber": "0x2a7b193",
          "blockTimestamp": "0x68f77c30",
          "transactionHash": "0x233c4e8a1a22d138c657f3b66f33c60af4f7ae51114ac2712341cf8cba64e97a",
          "transactionIndex": "0x2",
          "logIndex": "0x4",
          "removed": false
        }
      ],
      "logsBloom": "0x00000000000000000000000000000000000000000000000000000000000000000000000000000000000000000000000000000000000000000000000000000000000400000000000000000000000000000000000004000000000020000000000000000000000000000000000000000000000000000000000000000000000000000000000000000000000000000000000000000000000000000000000000000000000000800000000000000002000000000000000000000000000000000000000000000000000000000020000000000000000000000000000000020008000000000000000000000000000000000000000000000000000000000000000000000008",
      "type": "0x0",
      "transactionHash": "0x233c4e8a1a22d138c657f3b66f33c60af4f7ae51114ac2712341cf8cba64e97a",
      "transactionIndex": "0x2",
      "blockHash": "0x7b028794ce382f487335218da60d245cdbed28da4b8c2c2f7edb00c087b1a77a",
      "blockNumber": "0x2a7b193",
      "gasUsed": "0x30dbb",
      "effectiveGasPrice": "0x17bfac7c00",
      "from": "0x2c3a7d88cba76e1b231e969f8b11b73417f03a09",
      "to": "0x898bca461ce3b7f0697e15dd2209c673dae5fbe2",
      "contractAddress": null
    },
    {
      "status": "0x1",
      "cumulativeGasUsed": "0x171787",
      "logs": [
        {
          "address": "0x898bca461ce3b7f0697e15dd2209c673dae5fbe2",
          "topics": [
            "0xd2a0cc0c0474ed6c3349931dee3321400e8bb78763e064e0dc346c44824741d6",
            "0x4e1e6d8aa1ff8f43f933718e113229b0ec6b091b699f7a8671bcbd606da36eea"
          ],
          "data": "0x2a01deaec9e51a579277b34b122399984d0bbf57e2458a7e42fecd2829867a0d000000000000000000000000000000000000000000000000000000000000000a0000000000000000000000000000000000000000000000000000000000000060000000000000000000000000000000000000000000000000000000000000000743617264616e6f00000000000000000000000000000000000000000000000000",
          "blockHash": "0x78d31dff76fc5283a10cbe0c5618d14661a7027e609aa9fce485991c4eb168c8",
          "blockNumber": "0x2a7b19a",
          "blockTimestamp": "0x68f77c33",
          "transactionHash": "0xdc1ef912696639ed58cee3444ec07ca0319580ae77b5869840f9cce3e9ca979d",
          "transactionIndex": "0x6",
          "logIndex": "0x10",
          "removed": false
        }
      ],
      "logsBloom": "0x00000000000000000000000000000000000000000000000000000000000000800000000000000000000000000000000000000000000000000000000000000000000400000000000000000000000000000000000000000000000020000000000000000000000000000000000000000000000000000000000000000000000000000000000000000000000000400000000000000000000000000000000000020000000000800000000000000002000000000000000000000000000000000000000000000000000000000020000000000000000000000000000000000008000000000000000000000000000000000000000000000000000000000000000000000000",
      "type": "0x0",
      "transactionHash": "0xdc1ef912696639ed58cee3444ec07ca0319580ae77b5869840f9cce3e9ca979d",
      "transactionIndex": "0x6",
      "blockHash": "0x78d31dff76fc5283a10cbe0c5618d14661a7027e609aa9fce485991c4eb168c8",
      "blockNumber": "0x2a7b19a",
      "gasUsed": "0x33bc9",
      "effectiveGasPrice": "0x17bfac7c00",
      "from": "0x2c3a7d88cba76e1b231e969f8b11b73417f03a09",
      "to": "0x898bca461ce3b7f0697e15dd2209c673dae5fbe2",
      "contractAddress": null
    },
    {
      "status": "0x1",
      "cumulativeGasUsed": "0x126e55e",
      "logs": [
        {
          "address": "0x898bca461ce3b7f0697e15dd2209c673dae5fbe2",
          "topics": [
            "0xd2a0cc0c0474ed6c3349931dee3321400e8bb78763e064e0dc346c44824741d6",
            "0xa6a7de01e8b7ba6a4a61c782a73188d808fc1f3cf5743fadb68a02ed884b594f"
          ],
          "data": "0x5de33a9112c2b700b8d30b8a3402c103578ccfa2765696471cc672bd5cf6ac52000000000000000000000000000000000000000000000000000000000000000a00000000000000000000000000000000000000000000000000000000000000600000000000000000000000000000000000000000000000000000000000000007506f6c79676f6e00000000000000000000000000000000000000000000000000",
          "blockHash": "0x30de95dcff8bf9308dff0db20baf73782e3eafa8e47515d8105d552b422fd5de",
          "blockNumber": "0x2a7b1a1",
          "blockTimestamp": "0x68f77c36",
          "transactionHash": "0xc3f678c6c440e8fc09db7b88d497e6e04f2195dcd356bdb9a3b822a4e932d52e",
          "transactionIndex": "0x14",
          "logIndex": "0x79",
          "removed": false
        }
      ],
      "logsBloom": "0x00000000000000000000000000000000000000000000000000000000000000000000000000000000000000000000000000000000000000000000000000000000000400000000000000000000000000000000000000000000000020000000400000000000000000000000000000000000000000000000000000000040000000000000000000000000000000000000000000000000000000000000000000000000000000800000000000000002000000000000000000000000000000000000000000000000000000000020000000010000000000000000000000000008000000000000000000000000000000000000000000000000000000000000000000000000",
      "type": "0x0",
      "transactionHash": "0xc3f678c6c440e8fc09db7b88d497e6e04f2195dcd356bdb9a3b822a4e932d52e",
      "transactionIndex": "0x14",
      "blockHash": "0x30de95dcff8bf9308dff0db20baf73782e3eafa8e47515d8105d552b422fd5de",
      "blockNumber": "0x2a7b1a1",
      "gasUsed": "0x30dbb",
      "effectiveGasPrice": "0x17bfac7c00",
      "from": "0x2c3a7d88cba76e1b231e969f8b11b73417f03a09",
      "to": "0x898bca461ce3b7f0697e15dd2209c673dae5fbe2",
      "contractAddress": null
    },
    {
      "status": "0x1",
      "cumulativeGasUsed": "0x191d69",
      "logs": [
        {
          "address": "0x898bca461ce3b7f0697e15dd2209c673dae5fbe2",
          "topics": [
            "0xd2a0cc0c0474ed6c3349931dee3321400e8bb78763e064e0dc346c44824741d6",
            "0xa486e4b27cce131bfeacd003018c22a55744bdb94821829f0ff1d4061d8d0533"
          ],
          "data": "0xc415de8d2eba7db216527dff4b60e8f3a5311c740dadb233e13e12547e226750000000000000000000000000000000000000000000000000000000000000000a0000000000000000000000000000000000000000000000000000000000000060000000000000000000000000000000000000000000000000000000000000000d4e4541522050726f746f636f6c00000000000000000000000000000000000000",
          "blockHash": "0x418b1800536c86c19023426481285cd04c4ad49a09973b4a07a519439fbb1341",
          "blockNumber": "0x2a7b1a6",
          "blockTimestamp": "0x68f77c38",
          "transactionHash": "0x1805389072b0f1650d7e3548f7e33218098f70f24d617545b9d81009663ed1b2",
          "transactionIndex": "0x3",
          "logIndex": "0x5",
          "removed": false
        }
      ],
      "logsBloom": "0x00000000000000000000000000000000000000000000000000000000000000000000000000000000000000000000000000000000000000000000000000000000000400000000000000000000000000000000000000000000000020000000000000000000000000000000000000000000000000000000008000000000000000000000000000000000000000000000000000000000000000200000000000000000000000800000000000000002000000000000000000000000000000000000000000000000000000000020000000000000000000000000000000000008010000000000000000000000000000000000000000000000000000000000000000000000",
      "type": "0x0",
      "transactionHash": "0x1805389072b0f1650d7e3548f7e33218098f70f24d617545b9d81009663ed1b2",
      "transactionIndex": "0x3",
      "blockHash": "0x418b1800536c86c19023426481285cd04c4ad49a09973b4a07a519439fbb1341",
      "blockNumber": "0x2a7b1a6",
      "gasUsed": "0x33c32",
      "effectiveGasPrice": "0x17bfac7c00",
      "from": "0x2c3a7d88cba76e1b231e969f8b11b73417f03a09",
      "to": "0x898bca461ce3b7f0697e15dd2209c673dae5fbe2",
      "contractAddress": null
    },
    {
      "status": "0x1",
      "cumulativeGasUsed": "0x16eac0",
      "logs": [
        {
          "address": "0x898bca461ce3b7f0697e15dd2209c673dae5fbe2",
          "topics": [
            "0xd2a0cc0c0474ed6c3349931dee3321400e8bb78763e064e0dc346c44824741d6",
            "0x9a3f52b1b31ae58da40209f38379e78c3a0756495a0f585d0b3c84a9e9718f9d"
          ],
          "data": "0xdcef50dd0a4cd2dcc17e45df1676dcb336a11a61c69df7a0299b0150c672d25c000000000000000000000000000000000000000000000000000000000000000900000000000000000000000000000000000000000000000000000000000000600000000000000000000000000000000000000000000000000000000000000008446f6765636f696e000000000000000000000000000000000000000000000000",
          "blockHash": "0x5a27a799cc67378b7e8c24c23a6819c3a3aa87d072f31f3fbce7b0b6c0bda814",
          "blockNumber": "0x2a7b1ab",
          "blockTimestamp": "0x68f77c3b",
          "transactionHash": "0xff56b23bf440c1cf9258c735d61a2817010b5925827396f40d97a73f8e7779fc",
          "transactionIndex": "0x4",
          "logIndex": "0xa",
          "removed": false
        }
      ],
      "logsBloom": "0x00000000000000000000000000000000000000000000040000000000000000000000000000000000000000000000000000000000000000000000000000000000000400000000000000000000000000000000000000000000000020000000000000000000000000000000000000000000000000000000000000000000000000000000000000000000000000000000000000000000000000000000000000000000000000800001000000000002000000000010000000000000000000000000000000000000000000000020000000000000000000000000000000000008000000000000000000000000000000000000000000000000000000000000000000000000",
      "type": "0x0",
      "transactionHash": "0xff56b23bf440c1cf9258c735d61a2817010b5925827396f40d97a73f8e7779fc",
      "transactionIndex": "0x4",
      "blockHash": "0x5a27a799cc67378b7e8c24c23a6819c3a3aa87d072f31f3fbce7b0b6c0bda814",
      "blockNumber": "0x2a7b1ab",
      "gasUsed": "0x30ddb",
      "effectiveGasPrice": "0x17bfac7c00",
      "from": "0x2c3a7d88cba76e1b231e969f8b11b73417f03a09",
      "to": "0x898bca461ce3b7f0697e15dd2209c673dae5fbe2",
      "contractAddress": null
    },
    {
      "status": "0x1",
      "cumulativeGasUsed": "0x156f75",
      "logs": [
        {
          "address": "0x898bca461ce3b7f0697e15dd2209c673dae5fbe2",
          "topics": [
            "0xd2a0cc0c0474ed6c3349931dee3321400e8bb78763e064e0dc346c44824741d6",
            "0x89e00465fb83774b035e591ad1577585bbb47b9ee6745a0ef8052c9623fc55ac"
          ],
          "data": "0x67aed5a24fdad045475e7195c98a98aea119c763f272d4523f5bac93a4f33c2b00000000000000000000000000000000000000000000000000000000000000080000000000000000000000000000000000000000000000000000000000000060000000000000000000000000000000000000000000000000000000000000000454726f6e00000000000000000000000000000000000000000000000000000000",
          "blockHash": "0xfe9a1d81a7abcfa3ca20d8388ccf8f0b9c96c5bd67f1f9c40277c9032e93fa27",
          "blockNumber": "0x2a7b1b2",
          "blockTimestamp": "0x68f77c3e",
          "transactionHash": "0xc404dcb63d081e52180848cf4ded37745e325f0b2e24c306c376fc82bed186b0",
          "transactionIndex": "0x4",
          "logIndex": "0x14",
          "removed": false
        }
      ],
      "logsBloom": "0x00000000000000800000000000000000000000000000000000000000000000000000000000000000000000000000000000000000000000000010000000000000000400000000000000000000000000000000000000000000000020000000000000000000000000000000000000000000000000000000000000000000000000000000000000000000000000000000000000000000000000000000000000000000000000800000000000000002000000000000000000000000004000000000000000000000000000000020000000000000000000000000000000000008000000000000000000000000000000000000000000000000000000000000000000000000",
      "type": "0x0",
      "transactionHash": "0xc404dcb63d081e52180848cf4ded37745e325f0b2e24c306c376fc82bed186b0",
      "transactionIndex": "0x4",
      "blockHash": "0xfe9a1d81a7abcfa3ca20d8388ccf8f0b9c96c5bd67f1f9c40277c9032e93fa27",
      "blockNumber": "0x2a7b1b2",
      "gasUsed": "0x30d99",
      "effectiveGasPrice": "0x17bfac7c00",
      "from": "0x2c3a7d88cba76e1b231e969f8b11b73417f03a09",
      "to": "0x898bca461ce3b7f0697e15dd2209c673dae5fbe2",
      "contractAddress": null
    },
    {
      "status": "0x1",
      "cumulativeGasUsed": "0x1847ac",
      "logs": [
        {
          "address": "0x898bca461ce3b7f0697e15dd2209c673dae5fbe2",
          "topics": [
            "0xd2a0cc0c0474ed6c3349931dee3321400e8bb78763e064e0dc346c44824741d6",
            "0x542d10e155091389b3358f5f9188642f6ada7c12d94c1ffcb1d3a513e62ac319"
          ],
          "data": "0x23d7315113f5b1d3ba7a83604c44b94d79f4fd69af77f804fc7f920a6dc657440000000000000000000000000000000000000000000000000000000000000008000000000000000000000000000000000000000000000000000000000000006000000000000000000000000000000000000000000000000000000000000000035375690000000000000000000000000000000000000000000000000000000000",
          "blockHash": "0x9b85099508e3216d076b066cfcbcd463b95f31f9a75bce278e671ac08bb83286",
          "blockNumber": "0x2a7b1b9",
          "blockTimestamp": "0x68f77c41",
          "transactionHash": "0xd836d49ca226e31ca0955b8862a141a27cf34758869edc4946bfc9554673664a",
          "transactionIndex": "0x4",
          "logIndex": "0x8",
          "removed": false
        }
      ],
      "logsBloom": "0x00000000000000000000000000000000000000000000000000000000000000000000000000000000000000000000000000000000000000000000000000000000000400000000000000000000000000000000000000000000000020000000000000000000000000000000000000000000000000000000000000000000000000000000000000000000000000000000000000004000000000000000000000000000000000800000000000000002000000000000000000000000000000000000080000000000000000000020000000000000000000010000000000000008000000000000000000000000000000000000000000000000000000000000000000000000",
      "type": "0x0",
      "transactionHash": "0xd836d49ca226e31ca0955b8862a141a27cf34758869edc4946bfc9554673664a",
      "transactionIndex": "0x4",
      "blockHash": "0x9b85099508e3216d076b066cfcbcd463b95f31f9a75bce278e671ac08bb83286",
      "blockNumber": "0x2a7b1b9",
      "gasUsed": "0x33b82",
      "effectiveGasPrice": "0x17bfac7c00",
      "from": "0x2c3a7d88cba76e1b231e969f8b11b73417f03a09",
      "to": "0x898bca461ce3b7f0697e15dd2209c673dae5fbe2",
      "contractAddress": null
    },
    {
      "status": "0x1",
      "cumulativeGasUsed": "0x107993",
      "logs": [
        {
          "address": "0x898bca461ce3b7f0697e15dd2209c673dae5fbe2",
          "topics": [
            "0xd2a0cc0c0474ed6c3349931dee3321400e8bb78763e064e0dc346c44824741d6",
            "0xc18f56144146939da796e8717010c2f5140aa0b98704a95b71f5b503102c8c27"
          ],
          "data": "0xb7e3904c08ddd9c0c10c6d207d390fd19e87eb6aab96304f571ed94caebdefa00000000000000000000000000000000000000000000000000000000000000007000000000000000000000000000000000000000000000000000000000000006000000000000000000000000000000000000000000000000000000000000000054173746172000000000000000000000000000000000000000000000000000000",
          "blockHash": "0x41fc06434eddb5e619aadc370031af1500be234b35a63c6603e0f175754236ff",
          "blockNumber": "0x2a7b1c0",
          "blockTimestamp": "0x68f77c43",
          "transactionHash": "0x6c09d17782f1c4065a82f67b4d6e29cb8a7655d6379e526ebc0f46b6eb6af65d",
          "transactionIndex": "0x3",
          "logIndex": "0x7",
          "removed": false
        }
      ],
      "logsBloom": "0x00000000000000000000100000000000000000000000000000000000000000000000000000000000000000000000000000000000000000000000000000000000000400000000000000000000000000000000000000000000000020000000000000000000000020000000000000000000000000000000000000000000000000000000000000000000000000000000000000000000000000000000000000000000000000800000000000000002000000000000000000000000000000000000000000000000000000000020000000000000000000000000000000000008000000000000000000000000000000000000000000000000000000000000000000000010",
      "type": "0x0",
      "transactionHash": "0x6c09d17782f1c4065a82f67b4d6e29cb8a7655d6379e526ebc0f46b6eb6af65d",
      "transactionIndex": "0x3",
      "blockHash": "0x41fc06434eddb5e619aadc370031af1500be234b35a63c6603e0f175754236ff",
      "blockNumber": "0x2a7b1c0",
      "gasUsed": "0x33ba5",
      "effectiveGasPrice": "0x17bfac7c00",
      "from": "0x2c3a7d88cba76e1b231e969f8b11b73417f03a09",
      "to": "0x898bca461ce3b7f0697e15dd2209c673dae5fbe2",
      "contractAddress": null
    },
    {
      "status": "0x1",
      "cumulativeGasUsed": "0x15fcbb",
      "logs": [
        {
          "address": "0x898bca461ce3b7f0697e15dd2209c673dae5fbe2",
          "topics": [
            "0xd2a0cc0c0474ed6c3349931dee3321400e8bb78763e064e0dc346c44824741d6",
            "0xefa585451ff82e7559b7e4aa3c7d26b394fd121301bbf6f1da4ef6d29210466e"
          ],
          "data": "0xf0d57deca57b3da2fe63a493f4c25925fdfd8edf834b20f93e1f84dbd1504d4a000000000000000000000000000000000000000000000000000000000000000600000000000000000000000000000000000000000000000000000000000000600000000000000000000000000000000000000000000000000000000000000009536869626120496e750000000000000000000000000000000000000000000000",
          "blockHash": "0x50a252c0a671436308340645efc8f274bdf4a9218c6ae94c7c37166202967aeb",
          "blockNumber": "0x2a7b1c6",
          "blockTimestamp": "0x68f77c46",
          "transactionHash": "0x57b5f9956729c7b6fa3f2d27882e8db3835f6210812a6fabd403ffee160c9ff3",
          "transactionIndex": "0x3",
          "logIndex": "0xc",
          "removed": false
        }
      ],
      "logsBloom": "0x00000000000000000000000000000000000000000000000000000000000000000000000000000000000000000000000000000000000000000000000000000000000400000000000000000000000000000000000000080000000020000000000000000000000000000000000000000000000000000000000000000000000000000000000000000000000000000000000000000000000000000000000000000000000000800000000000000002000000000000000000000000000000000000000000000000000000000020000000000000000000000000000000000008000000800200000000000000000000000000000000000000000000000000000000000000",
      "type": "0x0",
      "transactionHash": "0x57b5f9956729c7b6fa3f2d27882e8db3835f6210812a6fabd403ffee160c9ff3",
      "transactionIndex": "0x3",
      "blockHash": "0x50a252c0a671436308340645efc8f274bdf4a9218c6ae94c7c37166202967aeb",
      "blockNumber": "0x2a7b1c6",
      "gasUsed": "0x33bec",
      "effectiveGasPrice": "0x17bfac7c00",
      "from": "0x2c3a7d88cba76e1b231e969f8b11b73417f03a09",
      "to": "0x898bca461ce3b7f0697e15dd2209c673dae5fbe2",
      "contractAddress": null
    },
    {
      "status": "0x1",
      "cumulativeGasUsed": "0x2b6c27",
      "logs": [
        {
          "address": "0x898bca461ce3b7f0697e15dd2209c673dae5fbe2",
          "topics": [
            "0xd2a0cc0c0474ed6c3349931dee3321400e8bb78763e064e0dc346c44824741d6",
            "0x608e17bb6814e7eb8d564b13416322f3d8a2dc5e36dde75519945008d7848749"
          ],
          "data": "0xd69731a2e74ac1ce884fc3890f7ee324b6deb66147055249568869ed700882e40000000000000000000000000000000000000000000000000000000000000005000000000000000000000000000000000000000000000000000000000000006000000000000000000000000000000000000000000000000000000000000000045065706500000000000000000000000000000000000000000000000000000000",
          "blockHash": "0x38404eb25229cc4cbd2157a840f85959a8575f1d44e91c4c56b9c0e8f2a8c07e",
          "blockNumber": "0x2a7b1cd",
          "blockTimestamp": "0x68f77c49",
          "transactionHash": "0xb3270a9ee358659b761e7f8720a55c5442c311bf55eac8b92fa9967b919f717f",
          "transactionIndex": "0x7",
          "logIndex": "0x13",
          "removed": false
        }
      ],
      "logsBloom": "0x00000000000000000000000000000000000000000000000000000000000000000000000000000000000000000000000000000000000000000000000000000000000400040000000000000000000000000000000000000000000020000000000000000000000000000000000000000000000000000000000000000000000000000000000000000000000000000000000000000000000000000000000000000000000000800000000000000002000000000000000000000020000000000000000000000000000000000020000000000000000000000000000000020008000000000000000000000000000000000000000000000000000000000000000000000000",
      "type": "0x0",
      "transactionHash": "0xb3270a9ee358659b761e7f8720a55c5442c311bf55eac8b92fa9967b919f717f",
      "transactionIndex": "0x7",
      "blockHash": "0x38404eb25229cc4cbd2157a840f85959a8575f1d44e91c4c56b9c0e8f2a8c07e",
      "blockNumber": "0x2a7b1cd",
      "gasUsed": "0x30d99",
      "effectiveGasPrice": "0x17bfac7c00",
      "from": "0x2c3a7d88cba76e1b231e969f8b11b73417f03a09",
      "to": "0x898bca461ce3b7f0697e15dd2209c673dae5fbe2",
      "contractAddress": null
    },
    {
      "status": "0x1",
      "cumulativeGasUsed": "0x55d024",
      "logs": [
        {
          "address": "0x898bca461ce3b7f0697e15dd2209c673dae5fbe2",
          "topics": [
            "0xd2a0cc0c0474ed6c3349931dee3321400e8bb78763e064e0dc346c44824741d6",
            "0xa8631acbe37917ccaaf28385e6997f2db9e3876151964f689ee4762ac40f71b8"
          ],
          "data": "0x7c28a4f3ca1e583f83c5c430ae9ad42f80bc3f6fcbde13906e7b569cd6f22aa10000000000000000000000000000000000000000000000000000000000000005000000000000000000000000000000000000000000000000000000000000006000000000000000000000000000000000000000000000000000000000000000044879706500000000000000000000000000000000000000000000000000000000",
          "blockHash": "0xdba762e1bebeee0dd23e0fbfc11e39700155ad09f50f1feb5835ddd06f0028d9",
          "blockNumber": "0x2a7b1d5",
          "blockTimestamp": "0x68f77c4c",
          "transactionHash": "0xea96c8178923625f6b609d6c6f77e0e35bb35ca7541ccdf81aaad3f3075e125d",
          "transactionIndex": "0x7",
          "logIndex": "0x25",
          "removed": false
        }
      ],
      "logsBloom": "0x00000000000000000000000000000000000000000000000000000000000000000000000000000000000000000000000000000000000000000000000000000000000400000000000000000000000000000000000000000000000020000000000000000000000000000000000000000000000000000000800000000000000000000400000000000000000000000000000000000000000000000000000000000000000000800000000000000002000000000000000000000000000000000000000100000000000000000020000000000000000000000000000000000008000000000000000000000000000000000000000000000000000000000000000000000000",
      "type": "0x0",
      "transactionHash": "0xea96c8178923625f6b609d6c6f77e0e35bb35ca7541ccdf81aaad3f3075e125d",
      "transactionIndex": "0x7",
      "blockHash": "0xdba762e1bebeee0dd23e0fbfc11e39700155ad09f50f1feb5835ddd06f0028d9",
      "blockNumber": "0x2a7b1d5",
      "gasUsed": "0x30d99",
      "effectiveGasPrice": "0x17bfac7c00",
      "from": "0x2c3a7d88cba76e1b231e969f8b11b73417f03a09",
      "to": "0x898bca461ce3b7f0697e15dd2209c673dae5fbe2",
      "contractAddress": null
    },
    {
      "status": "0x1",
      "cumulativeGasUsed": "0x1734c0",
      "logs": [
        {
          "address": "0x898bca461ce3b7f0697e15dd2209c673dae5fbe2",
          "topics": [
            "0xd2a0cc0c0474ed6c3349931dee3321400e8bb78763e064e0dc346c44824741d6",
            "0x9bd00430e53a5999c7c603cfc04cbdaf68bdbc180f300e4a2067937f57a0534f"
          ],
          "data": "0xca3eed9b267293f6595901c734c7525ce8ef49adafe8284606ceb307afa2ca5b000000000000000000000000000000000000000000000000000000000000000a00000000000000000000000000000000000000000000000000000000000000600000000000000000000000000000000000000000000000000000000000000008506f6c6b61646f74000000000000000000000000000000000000000000000000",
          "blockHash": "0x4ddadc99332b86f157c3e46f0078e68daa15dec5bd4e25c54cff42223ba300f5",
          "blockNumber": "0x2a7b1dc",
          "blockTimestamp": "0x68f77c4f",
          "transactionHash": "0xa73e62d17ed299f8748d49309aed029760762aa9c1a34cd21ece836c8c74246b",
          "transactionIndex": "0x4",
          "logIndex": "0xa",
          "removed": false
        }
      ],
      "logsBloom": "0x00000000000000000000000000000000000000000000000000000000000000000000000000000000000000000000000000000000000000000000000000000000000400000000000000000000000000000000000000000000000020000000000000000000000000000000000000000000000000000000000000000000000000000000000000000000000000000000000000000000000000000000000040000000000000800000000000000002200000000000000000000000000000000000000000000000000000000020000000000000001000000000000000000008000000000000000000000000000000000000000000000000000000000000000000000000",
      "type": "0x0",
      "transactionHash": "0xa73e62d17ed299f8748d49309aed029760762aa9c1a34cd21ece836c8c74246b",
      "transactionIndex": "0x4",
      "blockHash": "0x4ddadc99332b86f157c3e46f0078e68daa15dec5bd4e25c54cff42223ba300f5",
      "blockNumber": "0x2a7b1dc",
      "gasUsed": "0x30ddb",
      "effectiveGasPrice": "0x17bfac7c00",
      "from": "0x2c3a7d88cba76e1b231e969f8b11b73417f03a09",
      "to": "0x898bca461ce3b7f0697e15dd2209c673dae5fbe2",
      "contractAddress": null
    },
    {
      "status": "0x1",
      "cumulativeGasUsed": "0x33b82",
      "logs": [
        {
          "address": "0x898bca461ce3b7f0697e15dd2209c673dae5fbe2",
          "topics": [
            "0xd2a0cc0c0474ed6c3349931dee3321400e8bb78763e064e0dc346c44824741d6",
            "0x3a540c592f9dbcbbe2f3f7f7a25a9554cef45a0c93b7209090ddcb77180f6ab1"
          ],
          "data": "0x03ae4db29ed4ae33d323568895aa00337e658e348b37509f5372ae51f0af00d50000000000000000000000000000000000000000000000000000000000000009000000000000000000000000000000000000000000000000000000000000006000000000000000000000000000000000000000000000000000000000000000054170746f73000000000000000000000000000000000000000000000000000000",
          "blockHash": "0xbbcd3ba6b3f0ac3c1a86dee0a89e227e9964ebb8552bc995596faf1282f65b2d",
          "blockNumber": "0x2a7b1e4",
          "blockTimestamp": "0x68f77c52",
          "transactionHash": "0x26677f531abf86005aa5003a0787b33330f834982ec2877fb845517ace60ef40",
          "transactionIndex": "0x1",
          "logIndex": "0x1",
          "removed": false
        }
      ],
      "logsBloom": "0x00000000000000000000000000000000000000000000000000000000000000000000000000000000000000000000000080000000000000000000000000000000000400000000000000000000000000000000000800000000000020000000000000000000000000000000000000000000000000000000000000000000000000000000000000000000000000000000000000000000000000000000000000000000000000800000000000000002000000000000000000000000000000000000000000000000000000000020000000000000001000000000000000000008000000000000000000000000000000000000000000000000000000000000000000000000",
      "type": "0x0",
      "transactionHash": "0x26677f531abf86005aa5003a0787b33330f834982ec2877fb845517ace60ef40",
      "transactionIndex": "0x1",
      "blockHash": "0xbbcd3ba6b3f0ac3c1a86dee0a89e227e9964ebb8552bc995596faf1282f65b2d",
      "blockNumber": "0x2a7b1e4",
      "gasUsed": "0x33b82",
      "effectiveGasPrice": "0x17bfac7c00",
      "from": "0x2c3a7d88cba76e1b231e969f8b11b73417f03a09",
      "to": "0x898bca461ce3b7f0697e15dd2209c673dae5fbe2",
      "contractAddress": null
    }
  ],
  "libraries": [],
  "pending": [],
  "returns": {},
  "timestamp": 1761049684881,
  "chain": 10143,
  "commit": "0fe7168"
}